:10000000C8C10000F7C10000F5C10000F3C1000045
:10001000F1C10000EFC10000EDC10000EBC1000024
:10002000E9C10000E7C10000E5C10000E3C1000034
:10003000E1C10000DFC10000DDC100000C945B14D1
:10004000D9C10000D7C10000D5C10000D3C1000054
:10005000D1C10000CFC10000CDC100000C948710B9
:10006000C9C100000C94E30F0C94BA0FC3C1000087
:10007000C1C10000BFC10000BDC10000BBC1000084
:10008000B9C10000B7C10000B5C10000B3C1000094
:10009000B1C10000AFC10000ADC10000ABC10000A4
:1000A000A9C10000A7C10000A5C10000A3C10000B4
:1000B000A1C100009FC100009DC100009BC10000C4
:1000C00099C1000097C1000095C1000093C10000D4
:1000D00091C100008FC100008DC100008BC10000E4
:1000E00089C1000051025402430247024D028B02B3
:1000F00058025C02620266026A02700274027802AE
:100100008B027E028202860270012C01900127017F
:10011000B0012201C0011D01F001180110021301FC
:1001200030020E016002090190020401C002FF00CA
:100130000003FA004003F5008003F000D003EB0059
:100140002004E6007004E100E004DC004005D70074
:10015000C005D2004006CD00D006C8008007C3000D
:100160003008BE00F008B900C009B400B00AAF0002
:10017000B00BAA00D00CA500000EA000500F9B00F1
:10018000C01096005012910000148C00C01587001A
:10019000B0178200B0197D00D01B7800001E7300DC
:1001A00040206E0090226900F024640040275F0028
:1001B00090295A00E02B5500102E500020304B00A3
:1001C00010324600E033410090353C0010373700D4
:1001D00070383200A0392D00B03A2800A03B23002F
:1001E000603C1E00103D1900903D1400103E0F00B1
:1001F000703E0A00C03E0500003F000000000A0BF0
:1002000002090C0D0E0807030401000000000000A5
:1002100000000000000000000000000000000000DE
:10022000000000000000000012111000000000009B
:1002300000000000000000000000000000000000BE
:1002400000000000000000000000000000000000AE
:100250000000062833D036C23E013F154132423BF2
:1002600043F2443B45F24622473B48F2493B4AF0C1
:100270005898590C5A085B0C5C086110679B6E22F9
:1002800071077208FF095A0D000EFF19045E08205D
:10029000642B6D322FFF00002100240027002A006C
:1002A0002D003000330001010000040107010A01A4
:1002B000000020002300260029002C002F0032001F
:1002C00000010000030106010901000022002500D1
:1002D00028002B002E00310034000201000005012F
:1002E00008010B01050505050705080808080202B5
:1002F00002020A0A080804040404010101010101C0
:1003000001010303030303030303040707070C0CA2
:100310000C0C0C0C0C0C0202020206060606060669
:1003200006060B0B0B0B0B0B0B0B07070A0A0A0A33
:100330000A0A050505040404080801021020200823
:100340000810204010204080020102010804020130
:10035000010204081020408080402010080402019F
:1003600080040201804020100804020108040201F8
:10037000010204081020408001020408102040807F
:1003800010080408801020400440801020400480A1
:100390002D2411241FBECFEFD1E2DEBFCDBF00E080
:1003A0000CBF13E0A0E0B2E0E6EAFEE400E00BBF21
:1003B00002C007900D92A63CB107D9F729E0A6EC40
:1003C000B3E001C01D92A836B207E1F711E0C9EC15
:1003D000D1E000E006C021970109802FFE010E94B4
:1003E0002C27C83CD10780E00807A9F70E94DA1B38
:1003F0000C94512705CEDC015996ED91FC915A974A
:100400003097B9F083899489A589B6894285538547
:1004100064857585841B950BA60BB70B811520E8A9
:100420009207A105B10538F08FEF9FE7A0E0B0E09B
:10043000089580E090E00895CF93DF931F92CDB7A9
:10044000DEB76983DC01ED91FC910280F381E02D40
:1004500041E050E0BE016F5F7F4F19950F90DF9133
:10046000CF910895089580E090E0089590E0FC0118
:100470003197E231F10508F04EC08827EE58FF4F62
:100480008F4F0C942C27809180008F7703C0809130
:1004900080008F7D80938000089580918000877F09
:1004A000F9CF84B58F7702C084B58F7D84BD089560
:1004B0008091B0008F7703C08091B0008F7D8093D2
:1004C000B0000895809190008F7707C080919000D0
:1004D0008F7D03C080919000877F80939000089566
:1004E0008091A0008F7707C08091A0008F7D03C00E
:1004F0008091A000877F8093A000089580912001C3
:100500008F7707C0809120018F7D03C080912001EB
:10051000877F809320010895CF93DF931F92CDB7FB
:10052000DEB7FC01818D928D009751F0BE016F5FA7
:100530007F4F0E94E81A019719F4898190E002C068
:100540008FEF9FEF0F90DF91CF91089508958EBDAB
:1005500000000DB407FEFDCF8EB508958FEFF7CFE5
:100560000F931F93CF93DF93EB010E947B108B01BE
:10057000F5DF8F3F49F00E947B10601B710B6C17F9
:100580007D07B0F380E001C081E0DF91CF911F9142
:100590000F9108958CBD9DBD08951F93CF93DF9358
:1005A000EC01162FAC01495D5F4F662371F08FEFB0
:1005B0009FEFAFE0B0E08FA398A7A9A7BAA764E91F
:1005C000CE010E94D11060E008C01FA218A619A693
:1005D0001AA664E90E94D11061E0CE010E94C51103
:1005E000812F90E0A0E0B0E0BA2FA92F982F8827A4
:1005F00088279170AA27BB274F89588D698D7A8DDE
:100600005E7F842B952BA62BB72B8F8B988FA98F72
:10061000BA8FAE01495E5F4F60E8CE01DF91CF91A6
:100620001F910C94D1102F923F924F925F926F9234
:100630007F928F929F92AF92BF92CF92DF92EF9272
:10064000FF920F931F93CF93DF93262F30E0220F5B
:10065000331FF901E85EFD4F40815181452B09F4BC
:100660004BC0C0EFDFE3C81BD90BF901EC5EFD4FB7
:10067000E080F180DD24D3948D2C912C8E149F0486
:100680004CF58401000F111F000F111FF801859117
:100690009491C817D907E4F4F8016591749181E049
:1006A000881A9108880C991C880C991CF401859172
:1006B0009491681B790B072E000C880B990B0E94F4
:1006C000EF2520E030E0A9010E949F26181674F162
:1006D000D394D2CF8E149F0429F5F701EE0FFF1F9C
:1006E000EE0FFF1F329765917491072E000C880B57
:1006F000990B0E94EF2567C0BC01990F880B990BDD
:100700000E94EF2520E030E04AEF5EE30E94A3263E
:1007100020E030E040E85DE30E94A32620E030E0E6
:10072000A9014FC060E070E0CB014DC0C40102964A
:10073000FC0165917491F401A590B490F801329692
:10074000E590F490FC01C590D490F80105911491C6
:10075000F40125903490072E000C880B990B0E9411
:10076000EF252B013C01CA19DB09BE01DD0F880B07
:10077000990B0E94EF254B015C01B7016C197D09B3
:10078000072E000C880B990B0E94EF259B01AC01F2
:10079000C501B4010E94A3266B017C01B801621956
:1007A0007309072E000C880B990B0E94EF259B0103
:1007B000AC01C701B6010E9459259B01AC01C301E0
:1007C000B2010E94F124DF91CF911F910F91FF9010
:1007D000EF90DF90CF90BF90AF909F908F907F90E1
:1007E0006F905F904F903F902F900895CF93DF933D
:1007F000282F30E0F901E450FE4F8491F901E65CC6
:10080000FC4FD491F901EC51FD4FC491CC2389F0F8
:1008100081112CDEEC2FF0E0EE0FFF1FE055FD4FB5
:10082000A591B491EC91ED2381E090E021F480E07A
:1008300002C080E090E0DF91CF9108951F93CF93A5
:10084000DF93282F30E0F901E450FE4F8491F90145
:10085000E65CFC4FD491F901EC51FD4FC491CC23DF
:10086000C1F0162F811102DEEC2FF0E0EE0FFF1F1A
:10087000E653FD4FA591B4918FB7F894111105C0BF
:100880009C91ED2FE095E92302C0EC91ED2BEC93C8
:100890008FBFDF91CF911F910895CF93DF93EC012C
:1008A0008091E703811108C081E08093E703809184
:1008B000B1069091B2066EDE60E08C81DF91CF913F
:1008C000BDCF61E0FC018481B9DF8091E703811134
:1008D0001092E7030895CF93DF93EC018E81882374
:1008E00079F08F8198859C012F5F3F4F38872F8348
:1008F0008230924010F432DEF4CFCE01E2DF1E826D
:10090000DF91CF910895CF92DF92FF920F931F93C3
:10091000CF93DF9300D01F92CDB7DEB76C01F62ED8
:1009200029833A834B835C83D6DFC601B6DF6CE252
:1009300071E0C60115DE8F2D806409DE08E110E04C
:100940005C814B813A812981DA01C901002E04C002
:10095000B695A795979587950A94D2F729833A83F8
:100960004B835C83F4DD0850110929813A814B8166
:100970005C81083F8FEF180739F7FF2029F0E8E086
:10098000FE1204C087E803C085E901C08FEFDFDDF8
:1009900010E0E4DDF601828787FF04C01F3F11F0FD
:1009A0001F5FF7CF0F900F900F900F90DF91CF91B7
:1009B0001F910F91FF90DF90CF900895AF92BF925B
:1009C000CF92DF92EF92FF920F931F93CF93DF931B
:1009D000EC016901C801820F931F8130924008F039
:1009E0006AC08E81882371F088819981AA81BB8138
:1009F000481759076A077B0729F48F819885C8161D
:100A0000D90698F5488359836A837B838B85833025
:100A100039F089E0440F551F661F771F8A95D1F77B
:100A20009A01AB0161E1CE016EDF882319F083E00A
:100A30008D8341C00E947B105B0190DD8A878F3FD0
:100A400049F40E947B106A197B096D327140A8F34A
:100A50008FE003C08E3F29F08DE08D83CE0131DF22
:100A60002AC018861F8281E08E838F8198858C151D
:100A70009D0538F473DD8F819885019698878F8363
:100A8000F4CF6701E00EF11ECE14DF0429F066DD1D
:100A9000F60181936F01F8CF8F819885080F191F98
:100AA00018870F838985882319F00115124038F0C3
:100AB000CE0111DF04C0CE0104DF80E001C081E07F
:100AC000DF91CF911F910F91FF90EF90DF90CF902A
:100AD000BF90AF900895EF92FF920F931F93CF9323
:100AE000DF93EC017901411551056105710511F4A0
:100AF00082E134C08B85833039F089E0440F551F83
:100B0000661F771F8A95D1F79A01AB0168E1CE0184
:100B1000FADE882311F084E021C08EEF18DD870112
:100B20008EEFF81AF80181918F0111DD0E151F0566
:100B3000C9F78FEF0CDD8FEF0ADD10DD8A878F712B
:100B4000853029F081E18D83CE01BBDE08C068E5E8
:100B500072E0CE0105DD811106C085E18D83CE01F5
:100B6000B0DE80E010C020E030E0A9016DE0CE01F1
:100B7000CADE811103C0F2DC882311F084E1EECFDC
:100B8000CE019FDE81E0DF91CF911F910F91FF9009
:100B9000EF9008958091E803882399F14091100225
:100BA00050911102609112027091130222E134E01F
:100BB00080911206909113068EDF811102C080E0B1
:100BC00008954091E9035091EA036091EB0370911D
:100BD000EC03411551056105710589F022E134E00E
:100BE000809112069091130676DF882341F31092CC
:100BF000E9031092EA031092EB031092EC031092B7
:100C0000E80381E008958F929F92AF92BF92EF9296
:100C1000FF920F931F93CF934B015C01C42F8091E0
:100C2000100290911102A0911202B0911302881546
:100C30009905AA05BB05F1F0ADDF811102C080E086
:100C40001FC082E1E82E84E0F82E00E012E020E0F0
:100C500030E0B501A4018091120690911306AEDE3A
:100C6000882369F38092100290921102A0921202DE
:100C7000B09213028091E803C82BC093E80381E08F
:100C8000CF911F910F91FF90EF90BF90AF909F90E9
:100C90008F9008958F929F92AF92BF92CF92DF92E2
:100CA000EF92FF920F931F93CF93DF93FC01818507
:100CB0009285A385B4850196A11DB11D8417950762
:100CC000A607B70710F480E05BC083899489A589E3
:100CD000B689C789C03129F4852E962EA72EBB244C
:100CE00009C04A015B01C7E0B694A7949794879422
:100CF000CA95D1F7E9016A017B018F01BC01CD01E1
:100D0000680D791D8A1D9B1D809010029090110224
:100D1000A0901202B0901302681579058A059B0510
:100D200099F4F80187898031A1F4B701A60155270C
:100D300066277727440F551FFA01EE5EFB4F80812F
:100D40009181A0E0B0E017C040E05DDF8111E9CF04
:100D5000BACFB701A6014F77552766277727440FEB
:100D6000551F440F551FFA01EE5EFB4F80819181A4
:100D7000A281B381BF7088839983AA83BB8381E0FA
:100D8000DF91CF911F910F91FF90EF90DF90CF9067
:100D9000BF90AF909F908F9008958F929F92AF9247
:100DA000BF92CF92DF92EF92FF920F931F93CF9358
:100DB000DF93EC018D81811102C080E076C00B8948
:100DC0001C892D893E890417150726073707A8F3C4
:100DD0006A017B01823029F4CA86DB86EC86FD86B7
:100DE0000DC0C114D104E104F10451F41E821F822C
:100DF000188619861A861B861C861D8681E055C0BA
:100E00008A849B84AC84BD84EB8DFC8D258530E089
:100E1000275F3F4FB501A401415051096109710994
:100E2000022E04C076956795579547950A94D2F798
:100E3000D701C6010197A109B10904C0B695A795CC
:100E4000979587952A95D2F784179507A607B70730
:100E500020F089288A288B2849F44F89588D698D7C
:100E60007A8D4E835F836887798704C0841B950BD6
:100E7000A60BB70B4C015D018E010A5F1F4F811459
:100E80009104A104B10409F4A7CF4E815F81688564
:100E9000798598018B8D9C8DFDDE91E0891A9108F2
:100EA000A108B1088111EBCF88CFDF91CF911F91BD
:100EB0000F91FF90EF90DF90CF90BF90AF909F90F9
:100EC0008F900895EF92FF920F931F93CF93DF932C
:100ED0001F92CDB7DEB7FC01818D928D0097F9F09E
:100EE0007F01BE016F5F7F4F0E94E81A019719F4DE
:100EF000098110E002C00FEF1FEF0F3F8FEF1807BF
:100F000081F0F701818D928DFC01428553856485C6
:100F1000758541505109610971093FDF02C000E048
:100F200010E0C8010F90DF91CF911F910F91FF90BA
:100F3000EF9008953F924F925F926F927F928F92BF
:100F40009F92AF92BF92CF92DF92EF92FF920F9358
:100F50001F93CF93DF93CDB7DEB72C970FB6F894DE
:100F6000DEBF0FBECDBF5C01DC015B968D909C9017
:100F70005C971696CD90DD90ED90FC901997C1147A
:100F8000D104E104F10439F0BFEFCB1ADB0AEB0A1C
:100F9000FB0A312C07C0F401C080D180E280F380CD
:100FA00033243394F40181859285A385B4859C0113
:100FB000AD012F5F3F4F4F4F5F4F29873A874B87D8
:100FC0005C87260137011D821E821F821886F4016C
:100FD00081859285A385B4852D813E814F81588579
:100FE000281739074A075B0708F062C089859A8588
:100FF000AB85BC858C159D05AE05BF0550F482E020
:10100000C82ED12CE12CF12C92E0492E512C612CD0
:10101000712C9E012F5F3F4FB701A601C4013ADE3C
:10102000882309F445C089819A81AB81BC81892BD1
:101030008A2B8B2B41F0260137019FEF491A590A61
:10104000690A790A05C0C414D504E604F70491F0CE
:101050002D813E814F8158852F5F3F4F4F4F5F4F0E
:101060002D833E834F8358873FEFC31AD30AE30A89
:10107000F30AADCF0FEF1FEF2FEF3FE0B301A20157
:10108000C4010E94E714882399F0D50116964D916A
:101090005D916D917C91199741155105610571051F
:1010A00049F093018201C4010E94E714811102C03A
:1010B00080E02AC0D50116964D925D926D927C9289
:1010C0001997332051F0D301C2010196A11DB11D22
:1010D000F40180839183A283B383F5018789908D86
:1010E000A18DB28D892B8A2B8B2B69F4D501579654
:1010F0004D925D926D927C925A9714968C911497B2
:10110000806814968C9381E02C960FB6F894DEBF1D
:101110000FBECDBFDF91CF911F910F91FF90EF9048
:10112000DF90CF90BF90AF909F908F907F906F9007
:101130005F904F903F900895CF93DF93FC012481FF
:1011400027FF2DC0EC01668577858089918941E074
:101150005ADD882339F1EA8980E2E89FF001112401
:10116000DF01AE5EBB4F1097E9F08D81823050F405
:101170004B895C896D897E895C964D935D936D93F7
:101180007C935F978F89988DA98DBA8DEE5EFB4F0A
:10119000938F828FB58BA48B8C818F778C83DF911B
:1011A000CF91F8CC80E0DF91CF910895FC01818D43
:1011B000928D009721F0FC0125812111BDCF08956A
:1011C0002F923F924F925F926F927F928F929F9257
:1011D000AF92BF92CF92DF92EF92FF920F931F9345
:1011E000CF93DF9300D01F92CDB7DEB78C015B01A8
:1011F0001A01DC0115968C9115978130C1F4149673
:101200008C9181FF14C082FF1CC0F801438954896E
:101210006589768982859385A485B5858417950728
:10122000A607B70771F0C801B8DD81110AC081E0D7
:1012300090E0D80113969C938E93129780E090E0F3
:1012400037C1610182C0D8015B968D919C915C97FA
:10125000FC01248121502A013B0139E076946794F6
:10126000579447943A95D1F7722E74207A01F1E0A1
:10127000FF22772009F475C080E092E08E199F0963
:1012800046018C159D0508F44C01D8015B962D9103
:101290003C915C9716968D919D910D90BC91A02DDF
:1012A0000297A109B109F901058404C0880F991FAB
:1012B000AA1FBB1F0A94D2F746855785608971899A
:1012C000840F951FA61FB71F9C01AD01270D311D6F
:1012D000411D511D29013A01811432E0930609F0A4
:1012E00085C08091100290911102A0911202B091DC
:1012F000130284159505A605B70559F48FEF9FEFE6
:10130000DC018093100290931102A0931202B0931B
:1013100013029501B301A201809112069091130668
:10132000DADB882309F483CF9EEFB91AC818D908ED
:10133000F80182859385A485B585880D991DA11D29
:10134000B11D82879387A487B587D8011A964D91DE
:101350005D916D917C911D97C114D10409F073CFFB
:1013600083C0E114F10409F087CF16964D915D9189
:101370006D917C911997411551056105710559F4DD
:1013800057968D919D910D90BC91A02D0097A10530
:10139000B10531F520C09E012F5F3F4F7BDC8823D4
:1013A00009F44DCF89819A81AB81BC81F801238DED
:1013B000348DF9012789203129F048EF5FEF6FEF75
:1013C0007FE004C048EF5FEF60E070E084179507AE
:1013D000A607B70728F0C801ADDD81114DCF27CF93
:1013E000F80186839783A087B18746CFE114F10483
:1013F00021F5D8011A964D915D916D917C911D97C3
:1014000053968D919D910D90BC91A02D4817590731
:101410006A077B0790F0BEDB882309F408CF40926F
:101420001002509211026092120270921302809187
:10143000E80381608093E80307C041E0C301B20183
:10144000E2DB882309F4F3CED501F701EE5EFB4F12
:10145000CF01880D991DE817F90719F02D912193F7
:10146000FACFA80CB91C62CF53968D919D910D9027
:10147000BC91A02D84179507A607B70740F4F80183
:10148000438B548B658B768B848180688483D801F1
:1014900014968C9183FD02C0C1010AC0F8018581B8
:1014A000882309F4C4CEC80147DE8111F5CFBFCE31
:1014B0000F900F900F900F90DF91CF911F910F9190
:1014C000FF90EF90DF90CF90BF90AF909F908F9064
:1014D0007F906F905F904F903F902F900895CF93A3
:1014E000DF931F92CDB7DEB7698341E050E0BE01C4
:1014F0006F5F7F4F65DE0F90DF91CF910895CF939F
:10150000DF93EC01898D9A8D009739F481E090E0AA
:101510009B838A8380E090E00AC0FC0113821282E0
:101520004FDEE98DFA8D22813381232B79F7DF910C
:10153000CF910895CF93DF93EC0160E08E817ED947
:1015400061E08E817BD960E08E8178D98BE891E073
:101550000197F1F7DF91CF910895CF92DF92EF924B
:10156000FF920F931F93CF93DF937C016C0187E071
:10157000C80ED11CC0E0D0E0062F10E0B8010C2E40
:1015800002C0759567950A94E2F76170F601819142
:101590006F0154D92196C430D10581F7C701DF917D
:1015A000CF911F910F91FF90EF90DF90CF90C2CF1E
:1015B000CF92DF92EF92FF920F931F93CF93DF931F
:1015C000EC01F62E642F8C8139D98D818F3F11F07B
:1015D00060E034D98F850F2D10E084FF23C06E01A9
:1015E00087E0C80ED11CE12CF12CB8010E2C02C0F2
:1015F000759567950A94E2F76170F60181916F0124
:101600001DD9FFEFEF1AFF0A88E0E816F10469F729
:10161000CE01DF91CF911F910F91FF90EF90DF905E
:10162000CF9088CFB80184E0759567958A95E1F7EA
:10163000CE0193DF6F2DCE01DF91CF911F910F91DE
:10164000FF90EF90DF90CF9088CF41E0B1DF81E055
:1016500090E0089540E0ACCFDF92EF92FF920F93BD
:101660001F93CF93DF938C01C7E0D0E0E62EF12CDF
:10167000C7010C2E02C0959587950A94E2F780FF6A
:1016800002C061E001C060E080910F02D7D8C801BC
:10169000EFD4D0900E0261E08D2DD0D8C801E8D4EF
:1016A00060E08D2DCBD8C801E3D4219708F7DF91F6
:1016B000CF911F910F91FF90EF90DF900895CF93FE
:1016C000DF93EC0161E080910E02B8D8CE01D0D456
:1016D00061E080910F02B2D8CE01DF91CF91C8C4F2
:1016E000CF93DF93EC0160E080910F02A7D8CE0189
:1016F000BFD460E080910E02A1D8CE01DF91CF91DE
:10170000B7C461E086E39AD861E08CE397D861E0E2
:101710008BE294D861E08AE191D860E086E38ED8CC
:1017200060E08CE38BD860E08BE288D860E08AE1EF
:1017300085C8CF93DF9390E0FC01E65CFC4F2491D9
:10174000FC01EC51FD4F8491882361F190E0880FFA
:10175000991FFC01EA56FD4FC591D491FC01E65357
:10176000FD4FA591B491611109C09FB7F89488818C
:10177000209582238883EC912E230BC0623061F484
:101780009FB7F8943881822F809583238883EC91CA
:101790002E2B2C939FBF06C08FB7F894E8812E2B79
:1017A00028838FBFDF91CF910895CF93CFB7F8945F
:1017B0008091E603811123C0E9E1F3E08491EFE633
:1017C000F3E09491E82FF0E0EE0FFF1FEA56FD4F93
:1017D000A591B491EC91E92319F461E085E32ED849
:1017E00061E085E3A6DF8CB580618CBD8CB580643B
:1017F0008CBD61E084E39DDF61E083E39ADF80914B
:10180000E6038F5F8093E603CFBFCF910895AF9239
:10181000BF92DF92EF92FF920F931F93CF93DF93CC
:101820001F92CDB7DEB75C01D62EF0900F0260E0BC
:101830008F2D79837EDFC5011BD4C50119D4E090BB
:101840000E0261E08E2D0E941E040D2D7981172F4E
:101850008F2D0E94F603892BF9F411E060E08E2DA4
:101860000E941E04C50104D461E08F2D62DFC50112
:10187000FFD360E08F2D0E941E04C501F9D3812F94
:1018800090E00F90DF91CF911F910F91FF90EF901B
:10189000DF90BF90AF9008950115110529F0C501A3
:1018A000E7D301501109D4CF10E0D8CFEF92FF92C7
:1018B0000F931F93CF93DF93E82EF62E90910D0296
:1018C000892F8F7001E010E0E80102C0CC0FDD1F0E
:1018D0008A95E2F792959F7002C0000F111F9A95AA
:1018E000E2F7CE01FDDE6AEECE01B6DEB801CE0132
:1018F0008EDF892B19F4CE01E2DE18C06E2DCE01E9
:10190000ABDEB801CE0183DF892B81F06F2DCE01D4
:10191000A3DEB801CE017BDF892B41F0CE01DF9140
:10192000CF911F910F91FF90EF90C9CE8FEF8093D1
:10193000E5038093E403DF91CF911F910F91FF9016
:10194000EF900895BF92CF92DF92EF92FF920F93A4
:101950001F93CF93DF93F82E90910D02892F8F70F4
:1019600001E010E0E80102C0CC0FDD1F8A95E2F72C
:1019700092959F7002C0000F111F9A95E2F7CE0159
:10198000AFDE6AEECE0168DEB801CE0140DF892B02
:1019900019F4CE0194DE4EC06F2DCE015DDEB8018C
:1019A000CE0135DF892B09F445C0CE0188DECE019A
:1019B00097DE6BEECE0150DEB801CE0128DF892B19
:1019C00009F438C0F0900F0261E08F2D0E941E04D0
:1019D000CE014ED360E08F2DACDEB12C87E0C82E57
:1019E000D12CE0900E0261E08E2D0E941E04CE01EB
:1019F0003FD38F2D0E94F60301E010E0892B11F4F4
:101A000000E010E00C2C01C0000F0A94EAF70B294B
:101A1000B02E60E08E2D0E941E04CE0129D381E0FD
:101A2000C81AD108F0F661E08F2D83DECE0147DEC3
:101A3000802F06C08FEF8093E5038093E40380E05E
:101A4000DF91CF911F910F91FF90EF90DF90CF909A
:101A5000BF9008950F931F93CF93DF9384E18093FA
:101A60000F0285E180930E0281EB80930D0261E00D
:101A700084E15FDE61E085E15CDE61E084E10E949B
:101A80001E0461E085E10E941E048BE99FE001973E
:101A9000F1F780E057DF8093E50381E053DF809327
:101AA000E4039091E503913379F4813969F460E0BE
:101AB0008FE7FCDE67E986E0F9DE8BE99FE00197BE
:101AC000F1F705E812E01DC080E03CDF8093E503FC
:101AD00081E038DF8093E4039091E503913319F0BE
:101AE00080E090E03BC08139D9F7E1CF0E5F1F4F16
:101AF0003196C4916C2F8D2FD9DE8D2F23DF8C135F
:101B0000EFCFF801D491DF3F89F78BE39CE9019790
:101B1000F1F761E08FE7CADE02E512E0F801D49147
:101B2000DF3F61F00E5F1F4F3196C4916C2F8D2FF8
:101B3000BDDE8D2F07DF8C1789F3D2CF60E08FE7F2
:101B4000B5DE60E089E0B2DE80E0FCDE8093E50394
:101B500081E0F8DE8093E40381E090E0DF91CF91B3
:101B60001F910F910895CF92DF92EF92FF920F9302
:101B70001F93CF93DF936C017A018B01C0E0D0E01B
:101B8000CE15DF0589F0D8016D918D01D601ED915B
:101B9000FC910190F081E02DC6011995892B11F47B
:101BA0007E0102C02196ECCFC701DF91CF911F913A
:101BB0000F91FF90EF90DF90CF900895FC01538D2F
:101BC000448D252F30E0842F90E0821B930B541717
:101BD00010F0CF96089501970895FC01918D828DA4
:101BE000981761F0828DDF01A80FB11D5D968C9171
:101BF000928D9F5F9F73928F90E008958FEF9FEF7C
:101C00000895FC01918D828D981731F0828DE80F37
:101C1000F11D858D90E008958FEF9FEF0895FC01F1
:101C2000918D228D892F90E0805C9F4F821B9109BE
:101C30008F739927089584E196E0F1DF21E0892BE5
:101C400009F420E0822F0895FC01848DDF01A80FA4
:101C5000B11DA35ABF4F2C91848D90E001968F73D4
:101C60009927848FA689B7892C93A089B1898C91F3
:101C700080648C93938D848D981306C00288F389B9
:101C8000E02D80818F7D80830895EF92FF920F93E6
:101C90001F93CF93DF93EC0181E0888F9B8D8C8D18
:101CA000981305C0E889F989808185FD23C0F62E47
:101CB0000B8D10E00F5F1F4F0F731127E02E8C8DDF
:101CC000E8120BC00FB607FCFACFE889F9898081CA
:101CD00085FFF5CFCE01B8DFF2CF8B8DFE01E80F87
:101CE000F11DE35AFF4FF0820B8FEA89FB89808157
:101CF000806207C0EE89FF896083E889F989808165
:101D00008064808381E090E0DF91CF911F910F91FB
:101D1000FF90EF900895CF93DF93EC01888D882397
:101D2000C1F0EA89FB89808185FD05C0A889B98950
:101D30008C9186FD0EC00FB607FCF5CF808185FF24
:101D4000F2CFA889B9898C9185FFEDCFCE017CDFD8
:101D5000E8CFDF91CF91089580E090E0892B19F0D2
:101D60006ADF811125C080E090E0892B41F080E09E
:101D700090E0892B21F00E94000081111CC080E0BE
:101D800090E0892B41F080E090E0892B21F00E94C7
:101D90000000811113C080E090E0892BA1F080E069
:101DA00090E0892B81F00E94000081110AC0089503
:101DB0000E940000D8CF0E940000E1CF0E940000E6
:101DC000EACF0C94000008953FB7F8948091F70390
:101DD0009091F803A091F903B091FA0326B5A89B5E
:101DE00005C02F3F19F00196A11DB11D3FBFBA2FAD
:101DF000A92F982F8827820F911DA11DB11DBC010D
:101E0000CD0142E0660F771F881F991F4A95D1F7D1
:101E100008950E944D27DC01ED91FC910190F08125
:101E2000E02D19946115710579F0FB0101900020F6
:101E3000E9F73197AF01461B570BDC01ED91FC919F
:101E40000280F381E02D199480E090E008954F9294
:101E50005F926F927F92EF92FF920F931F93CF93B7
:101E6000DF93CDB7DEB7A1970FB6F894DEBF0FBEF4
:101E7000CDBF7C01FA01CB0119A2223008F42AE07F
:101E80008E010F5D1F4F422E512C612C712CBF0112
:101E9000A30192010E940A27F901CA010150110908
:101EA0006A3014F4605D01C0695CD8016C93232B27
:101EB000242B252B61F7B801C701B4DFA1960FB61B
:101EC000F894DEBF0FBECDBFDF91CF911F910F9170
:101ED000FF90EF907F906F905F904F900895CF921A
:101EE000DF92EF92FF920F931F93CF93DF93EC015A
:101EF0004115510571F4E881F9810190F081E02DDF
:101F0000DF91CF911F910F91FF90EF90DF90CF90D5
:101F100019946B01770FEE08FF084A305105E1F480
:101F2000F7FE18C06DE277DF8C0144275527BA0110
:101F30004C195D096E097F092AE0CE0188DF800F08
:101F4000911FDF91CF911F910F91FF90EF90DF9044
:101F5000CF9008952AE001C0242FB701A601CE0139
:101F6000DF91CF911F910F91FF90EF90DF90CF9075
:101F70006ECF58CF1F920F920FB60F9211240BB64F
:101F80000F922F933F934F935F936F937F938F9312
:101F90009F93AF93BF93EF93FF9384E196E054DE5A
:101FA000FF91EF91BF91AF919F918F917F916F9131
:101FB0005F914F913F912F910F900BBE0F900FBEED
:101FC0000F901F9018951F920F920FB60F92112429
:101FD0000BB60F922F938F939F93EF93FF93E09104
:101FE0002406F09125068081E0912A06F0912B06C7
:101FF00082FD12C0908180912D068F5F8F7320919A
:102000002E06821751F0E0912D06F0E0EC5EF94FBC
:10201000958F80932D0601C08081FF91EF919F9154
:102020008F912F910F900BBE0F900FBE0F901F90AE
:102030001895863308F0865390917B00282F2870DE
:10204000977F922B90937B008770806480937C00B5
:1020500080917A00806480937A0080917A0086FD76
:10206000FCCF809178002091790090E0922B089528
:102070008230910538F0880F991F880F991F0597B6
:102080000197F1F708958F929F92AF92BF92CF92EE
:10209000DF92EF92FF926B017C0196DE4B015C01B7
:1020A000C114D104E104F104E9F08EDEDC01CB01BE
:1020B00088199909AA09BB09883E9340A105B10571
:1020C00078F321E0C21AD108E108F10888EE880E01
:1020D00083E0981EA11CB11CC114D104E104F104D9
:1020E00021F7DECFFF90EF90DF90CF90BF90AF90C1
:1020F0009F908F9008952FB7F8946091F30370919B
:10210000F4038091F5039091F6032FBF08951F9279
:102110000F920FB60F9211242F933F938F939F939B
:10212000AF93BF938091F3039091F403A091F503D3
:10213000B091F6033091F20323E0230F2D3720F402
:102140000196A11DB11D05C026E8230F0296A11D11
:10215000B11D2093F2038093F3039093F403A093B3
:10216000F503B093F6038091F7039091F803A091E3
:10217000F903B091FA030196A11DB11D8093F703F5
:102180009093F803A093F903B093FA03BF91AF9132
:102190009F918F913F912F910F900FBE0F901F90A5
:1021A0001895DF92EF92FF920F931F93CF93DF93D7
:1021B0008C01D62EEA01FC01EF57FF4F8081E62EFD
:1021C000F12C882309F468C060E0F80183890E943B
:1021D0001E048D2DC5D7F8018583EE0CEF2CEE1C67
:1021E000FF08EF2849F08B81BBD78A81B9D7898155
:1021F000B7D78881B5D744C0F8D7F7D761E0F801E1
:1022000083890E941E0460E0F80183890E941E04F5
:102210008D2DA6D780E0A4D790E0A0E0B0E0BA2F43
:10222000A92F982F882788839983AA83BB8380E06E
:1022300097D7488159816A817B81482B762F652FFA
:10224000542F4427488359836A837B8380E088D74F
:10225000488159816A817B81482B762F652F542FC5
:102260004427488359836A837B8380E079D74881F8
:1022700059816A817B81482B488359836A837B8398
:1022800061E0F8018389DF91CF911F910F91FF9059
:10229000EF90DF900C941E0488DA8DE591E00E94A7
:1022A000CA0260E0F80183890E941E048D2D0E94FD
:1022B000A702F8018583EE0CEF2CEE1CFF08EF2837
:1022C00069F08B810E94A7028A810E94A7028981FE
:1022D0000E94A70288810E94A70249C024D723D761
:1022E00061E0F80183890E941E0460E0F80183899F
:1022F0000E941E048D2D0E94A70280E00E94A7026A
:1023000090E0A0E0B0E0BA2FA92F982F882788830B
:102310009983AA83BB8380E00E94A70248815981E8
:102320006A817B81482B762F652F542F4427488361
:1023300059836A837B8380E00E94A7024881598188
:102340006A817B81482B762F652F542F4427488341
:1023500059836A837B8380E00E94A7024881598168
:102360006A817B81482B488359836A837B8361E040
:10237000F80183890E941E04DF91CF911F910F9174
:10238000FF90EF90DF900C94A6020F931F93462FBF
:1023900050E060E070E022E0440F551F661F771F99
:1023A0002A95D1F74470552766277727FC010789BE
:1023B000108D218D328D0B7F402B512B622B732B77
:1023C000478B508F618F728FAC01495E5F4F60E821
:1023D0001F910F91E6CECF92DF92EF92FF920F9373
:1023E0001F93AC01455A5F4F062F10E020E030E00C
:1023F000302F2227112700270027112722273F707F
:10240000FA01C080D180E280F380F0EFFF220C2936
:102410001D292E293F29FA0100831183228333834A
:102420006CEE1F910F91FF90EF90DF90CF90B9CE9F
:10243000CF92DF92EF92FF920F931F93AC01455A18
:102440005F4F062F10E020E030E06FE0000F111F1B
:10245000221F331F6A95D1F7002710782170332788
:10246000FA01C080D180E280F380E894D7F8E0F8E8
:102470000C291D292E293F290083118322833383B0
:102480006CEE1F910F91FF90EF90DF90CF9089CE6F
:10249000CF92DF92EF92FF920F931F93AC01455AB8
:1024A0005F4F062F660F110B220B330B67E0000FF7
:1024B000111F221F331F6A95D1F70078177022274A
:1024C0003327FA01C080D180E280F380E894C7F816
:1024D000F8EFDF220C291D292E293F29FA0100835C
:1024E0001183228333836CEE1F910F91FF90EF9045
:1024F000DF90CF9056CE0F931F93AC01455A5F4F9C
:102500006F70FA010081118122813381007F062BD7
:1025100000831183228333836CEE1F910F9141CE90
:10252000FC01E159FF4F4083518362837383AF0104
:1025300061E937CECF93DF93EC01C559DF4F1882A5
:1025400019821A821B82AE0161E02BDE8881DF9145
:10255000CF910895CF93DF93EC0168EC70E080E0B9
:1025600090E091DD8F8598898F3F2FEF920731F0B2
:1025700061E0DFD861E08F850E941E048D899E890D
:102580008F3FEFEF9E0731F061E0D3D860E08D8997
:102590000E941E0489899A898F3FFFEF9F0731F0BF
:1025A00061E0C7D860E089890E941E0461E08B89E0
:1025B000C0D861E08B890E941E04FE01EF57FF4FD7
:1025C0008081882309F457C061E080910304B1D869
:1025D00061E080910704ADD860E080910504A9D83E
:1025E0004091030450910404FA01E65CFC4FE4912D
:1025F000E09309042091050430910604F901E65C9A
:10260000FC4FE491E0930A04809107049091080440
:10261000FC01E65CFC4FE491E0930B04FA01EC5101
:10262000FD4FE491F0E0EE0FFF1FE653FD4F4591A3
:10263000549150930D0440930C04F901EC51FD4F5B
:10264000E491F0E0EE0FFF1FE055FD4F259134912E
:1026500030930F0420930E04FC01EC51FD4FE491E4
:10266000F0E0EE0FFF1FE653FD4F8591949190939C
:10267000110480931004AE01495E5F4F60E8CE0103
:1026800090DDAE01455E5F4F60E9CE018ADDFE015F
:10269000E159FF4F4081518162817381CE0140DF5A
:1026A000AE014D5D5F4F63E9CE017BDDAE01495D5B
:1026B0005F4F64E9CE0175DDAE01455D5F4F65E9B1
:1026C000CE016FDDAE01415D5F4F6DEACE0169DD88
:1026D000AE014D5C5F4F63EBCE0163DDAE01455A49
:1026E0005F4F6CEECE015DDDAE01415A5F4F6DEE86
:1026F000CE0157DDAE0149595F4F60EFCE0151DD8C
:10270000AE014D585F4FFA0180819181A281B38162
:102710009927AA27BB2780839183A283B38362EF83
:10272000CE013FDD68E0CE01E6DE61E0CE0180DE75
:1027300081E08C83DF91CF910895CF92DF92EF9269
:10274000FF920F931F93FC018EEA97E4A1EEBDE385
:1027500080839183A283B3831682108617821186A9
:1027600012861386148616861586178A108E118E89
:10277000128E138E148E158E168E178E10A211A225
:1027800012A213A214A215A216A217A210A611A695
:1027900012A613A614A615A616A617A610AA11AA65
:1027A00012AA13AA14AA15AA16AA17AA10AE11AE35
:1027B00012AE13AE14AE15AE16AEDF01DF961D924B
:1027C0001D921D921C92139714961D921D921D929C
:1027D0001C92139714961D921D921D921C92139792
:1027E00014961D921D921D921C92139714961D9281
:1027F0001D921D921C92139714961D921D921D926C
:102800001C92139714961D921D921D921C92139761
:1028100014961D921D921D921C92139714961D9250
:102820001D921D921C92139714961D921D921D923B
:102830001C921397149680E8C82E84E0D82E85E069
:10284000E82EF12CCD92DD92ED92FC921397149626
:102850001D921D921D921C92139714961D921D920B
:102860001D921C92139714961D921D921D921C92FC
:10287000139714961D921D921D921C9213971496F5
:102880001D921D921D921C921397149611961C92E4
:102890001E9212961C921482708B6787328B218B4A
:1028A000148B038B568B458B1F910F91FF90EF90EC
:1028B000DF90CF9008951F920F920FB60F921124C0
:1028C0000BB60F922F933F934F935F936F937F932A
:1028D0008F939F93AF93BF93EF93FF938091FB03ED
:1028E0009091FC038093B2008091EE039091EF03EE
:1028F000A091F003B091F1030196A11DB11D809349
:10290000EE039093EF03A093F003B093F103809153
:10291000EE039091EF03A091F003B091F103409189
:10292000FF03509100046091010470910204841728
:102930009507A607B70710F18091ED0381111EC01E
:1029400081E08093ED038091EE039091EF03A091DD
:10295000F003B091F103841B950BA60BB70B80938A
:10296000EE039093EF03A093F003B093F103E09193
:10297000FD03F091FE0319951092ED03FF91EF9185
:10298000BF91AF919F918F917F916F915F914F9187
:102990003F912F910F900BBE0F900FBE0F901F9085
:1029A00018951092EE031092EF031092F00310921C
:1029B000F1031092ED038091FB039091FC0380934F
:1029C000B200E0E7F0E080818160808308954F925B
:1029D0005F926F927F928F929F92AF92BF92CF92AF
:1029E000DF92EF92FF920F931F93CF93DF93EC014F
:1029F0006A017B01280139014230510561057105E9
:102A000010F480E073C089859A85AB85BC850196FA
:102A1000A11DB11D84179507A607B70790F38B88F2
:102A20009C88AD88BE888F89803129F4BB27AF2D63
:102A30009E2D8D2D09C0DB01CA0147E0B695A795F3
:102A4000979587954A95D1F7880E991EAA1EBB1EA9
:102A50008091100290911102A0911202B091130284
:102A600088169906AA06BB0679F48F898031A1F4ED
:102A7000DD24EE24FF24C601880F991FFC01EE5EC1
:102A8000FB4F5182408219C040E0C501B4010E9451
:102A900003068111EACFB5CFE894C7F8DD24EE2410
:102AA000FF24C601880F991F880F991FFC01EE5E55
:102AB000FB4F40825182628273828091E803816081
:102AC0008093E8038A89823080F08D819E81AF8176
:102AD000B885880E991EAA1EBB1E8092E9039092AB
:102AE000EA03A092EB03B092EC0381E0DF91CF9177
:102AF0001F910F91FF90EF90DF90CF90BF90AF901C
:102B00009F908F907F906F905F904F900895CF929D
:102B1000DF92EF92FF920F931F93CF93DF938C017D
:102B20006B01770FEE08FF08F7FE10C06DE273D956
:102B3000EC0144275527BA014C195D096E097F093C
:102B40002AE0C80184D9C80FD91F05C02AE0B701FF
:102B5000A6017DD9EC016CE273E0C80163D98C0F4A
:102B60009D1FDF91CF911F910F91FF90EF90DF900C
:102B7000CF900895643008F063E09091C60669171D
:102B800010F06FEF690FE62FF0E0ED54F94F9489E4
:102B9000682F690F606883EB96E00C942A0BEF9224
:102BA000FF920F931F93CF93DF93EC01423018F005
:102BB0008F8588608F874B8B1C8A80E48D8B6E8B12
:102BC00070E0605C7F4F6F8B61E08C810E94990B9D
:102BD0008D818F3F19F061E00E94990B61E08E8139
:102BE0000E94990B7E0187E0E80EF11C00E010E0E6
:102BF0008F8584FD03C084E090E002C088E090E00F
:102C0000081719074CF461E0F70181917F010E94D8
:102C1000990B0F5F1F4FECCF8BE39DE00197F1F70E
:102C200060E08C810E941E0460E08E810E941E0480
:102C30008D818F3F19F060E00E941E046F8564FD56
:102C40001DC063E0CE010E94AD0A0BE416E4C8018A
:102C50000197F1F763E0CE010E94AD0AC801019728
:102C6000F1F763E0CE010E94AD0A83E592E001979F
:102C7000F1F762E0CE010E94AD0A16C06062CE019B
:102C80000E942A0B8BE496E40197F1F76F8560624E
:102C9000CE010E942A0B83E592E00197F1F76F8540
:102CA0006062CE010E942A0B6F856062CE010E9495
:102CB0002A0B84E0888B6CE0CE010E942A0B61E035
:102CC000CE010E942A0B8BE39FE10197F1F782E08E
:102CD000898B66E0CE01DF91CF911F910F91FF901C
:102CE000EF900C942A0B8F929F92AF92BF92CF924B
:102CF000DF92EF92FF92CF93DF93C82F88EF98E097
:102D00009093130680931206CC2369F1C53010F01E
:102D100080E00DC140E060E070E0CB010E9403065E
:102D20008823B1F320E1C29FC00111248E5F9B4F25
:102D3000FC01E254FE4F20812F7751F73C964081F1
:102D4000518162817381443651056105710500F33B
:102D50003497C080D180E280F380C114D104E104B3
:102D6000F10421F4D5CFC12CD12C760140E0C7016C
:102D7000B6010E940306882359F280911D049091A8
:102D80001E048115924021F6A0912204AA2309F481
:102D9000BFCF60912004709121046115710509F481
:102DA000B7CF20911F04222309F4B2CFA093EC08DF
:102DB0002093DE0880E030E0E1E0F0E0C82FAF01D2
:102DC000082E02C0440F551F0A94E2F72417350756
:102DD00041F0982F8F5F983089F789E08093E7085A
:102DE00097CF8093E708209128043091290421157A
:102DF000310519F040E050E008C0209136043091D0
:102E0000370440913804509139042093DF083093FF
:102E1000E0084093E1085093E20846015701860E0E
:102E2000971EA11CB11C8092ED089092EE08A09212
:102E3000EF08B092F008E0912304F0912404F0939D
:102E4000F308E093F208B0E00E943427860E971E44
:102E5000A81EB91E8092F4089092F508A092F60878
:102E6000B092F70885E0EE0FFF1F8A95E1F7E15079
:102E7000FE4FEF2FFF27E6958E0E9F1EA11CB11C63
:102E80008092E8089092E908A092EA08B092EB08D4
:102E900020912504309126042115310521F0A90146
:102EA00060E070E008C040913204509133046091BA
:102EB000340470913504D701C60188199909AA090B
:102EC000BB09840F951FA61FB71F04C0B695A79511
:102ED00097958795CA95D2F78093E3089093E40875
:102EE000A093E508B093E608853F2FE09207A1057F
:102EF000B10510F48CE018C0853F9F4FA105B105C6
:102F000010F480E111C080913E0490913F04A091A3
:102F10004004B09141048093F4089093F508A09385
:102F2000F608B093F70880E28093F10881E0DF9122
:102F3000CF91FF90EF90DF90CF90BF90AF909F9098
:102F40008F900895CF93DF93BC0184E196E00E94B7
:102F5000120FEC016CE273E084E196E00E94120F24
:102F60008C0F9D1FDF91CF9108954F925F926F92CA
:102F70007F928F929F92AF92BF92CF92DF92EF9209
:102F8000FF926B017C01B42E9B01AC010E940627CD
:102F9000882319F069EB73E027C026013701E89414
:102FA00077F82FEF3FEF4FE75FE7C301B2010E94D1
:102FB000062781110DC02FEF3FEF4FE75FE7C301F9
:102FC000B2010E94552518161CF46DEB73E00CC07D
:102FD0002FEF3FEF4FE75FE4C701B6010E949F2646
:102FE000181694F461EC73E084E196E0FF90EF90A2
:102FF000DF90CF90BF90AF909F908F907F906F9019
:103000005F904F900C94120F2FEF3FEF4FE75FEC64
:10301000C701B6010E94552587FDE4CF20E030E0CE
:10302000A901C701B6010E94552587FF0BC06DE2BB
:1030300084E196E00E940B0F4C01F7FAF094F7F848
:10304000F09402C0812C912CA12C60E070E080E013
:103050009FE3AB1441F020E030E040E251E40E94F5
:103060005925A394F6CF9B01AC01C701B6010E947C
:10307000F1242B013C010E94C1256B017C010E94BF
:10308000ED259B01AC01C301B2010E94F0242B018C
:103090003C012AE0B701A60184E196E00E94270FD7
:1030A0007C01E80CF91CBB2039F06EE284E196E06B
:1030B0000E940B0FE80EF91EDB2CDD2031F120E021
:1030C00030E040E251E4C301B2010E94A3262B018B
:1030D0003C010E94C1254B01A12CB12C2AE0B50175
:1030E000A40184E196E00E94270FE80EF91EC501B5
:1030F000B4010E94ED259B01AC01C301B2010E9405
:10310000F0242B013C01DA94D8CFC701FF90EF9057
:10311000DF90CF90BF90AF909F908F907F906F90F7
:103120005F904F9008950CB405FC0DC01EBC0000CC
:103130000DB407FEFDCF9EB51EBC00000DB407FE0A
:10314000FDCF8EB508951EBC00000DB407FEFDCF67
:103150008EB51EBC00000DB407FEFDCF9EB50895D0
:1031600027E030E0A0E0682F70E0B22FE0910C047F
:10317000F0910D0490910904AB01022E02C0559507
:1031800047950A94E2F7808140FF02C0982B02C065
:10319000909598239083E0911004F0911104908110
:1031A00080910B04892B8083E0910E04F0910F0431
:1031B000408180910A04482381E090E011F480E08E
:1031C00090E001C0880FBA95EAF78A2BA82FE0910A
:1031D0001004F0911104508140910B044095452357
:1031E00040832150310908F60895CF9380E0B8DF7D
:1031F000C82F80E0B5DF2C2F30E0322F2227A90125
:10320000482BCA01CF9108950F931F93AC01415AE7
:103210005F4FFA0100811181228133812078216082
:1032200000831183228333836DEE1F910F910C94E1
:10323000D1100F931F93AC0149595F4FFA010081E0
:103240001181228133810F6F0083118322833383A5
:1032500060EF1F910F910C94D1100F931F93AC014D
:1032600049595F4FFA010081118122813381112771
:103270001560008311832283338360EF1F910F91C8
:103280000C94D1100F931F93AC0149595F4FFA0171
:103290000081118122813381246000831183228384
:1032A000338360EF1F910F910C94D1100F931F93F4
:1032B000AC0149595F4FFA010081118122813381AC
:1032C0002C7F2160008311832283338360EF1F9161
:1032D0000F910C94D110FC014789508D618D728D36
:1032E0005062478B508F618F728FAC01495E5F4F88
:1032F00060E80C94D1100F931F93AC01455A5F4FB7
:10330000FA0100811181228133810F7800620083EC
:103310001183228333836CEE1F910F910C94D11093
:103320000F931F93AC01455A5F4FFA010081118141
:1033300022813381306100831183228333836CEED9
:103340001F910F910C94D110FF920F931F93CF9365
:10335000DF93EC018EEA97E4A1EEBDE388839983C5
:10336000AA83BB83AE01455A5F4FFA0180819181E8
:10337000A281B381A26080839183A283B3836CEE28
:10338000CE010E94D1102AE037ED43EA5CE3688168
:1033900079818A819B810E94F12425ED34E045E307
:1033A00051E40E94A3262CEE31E548E35EE30E943F
:1033B000592520E030E040E85FE30E94F0240E94BD
:1033C000C125F62E862F90E0A0E0B0E0BA2FA92FFD
:1033D000982F882788279F71AA27BB274B8D5C8D44
:1033E0006D8D7E8D507E842B952BA62BB72B8B8FCE
:1033F0009C8FAD8FBE8F8E01055E1F4FA80160E9C7
:10340000CE010E94D1106F2D70E080E090E00E940C
:10341000EF2520E030E040E05FE30E94A3260E9419
:10342000C1256F718B8D9C8DAD8DBE8D807E862B61
:103430008B8F9C8FAD8FBE8FA80160E9CE010E945B
:10344000D110C158DF4F8AEF90E099838883DF91D4
:10345000CF911F910F91FF900895CF93DF9382E05A
:1034600090E0A0E0B0E08093FF0390930004A0936D
:103470000104B093020481E89BE09093FE038093E3
:10348000FD03A0E7B0E08C918E7F8C93E0EBF0E041
:1034900080818C7F8083E1EBF0E08081877F808377
:1034A000C6EBD0E088818F7D88838C918D7F8C9353
:1034B00080818260808380818A7F80838CE990E034
:1034C0009093FC038093FB03DF91CF910895CF93FA
:1034D000DF938CB5CBECD6E08B838DB58C838D815F
:1034E0009E810E94CA0260E08881DF91CF910C9496
:1034F0001E04CF93DF93CBECD6E061E088810E947D
:103500001E040E94A6028B818CBD8C818DBDDF9133
:10351000CF9108951F93CF93DF931F92CDB7DEB75E
:10352000182F662321F060E086E0F4DFE2DF1B3A2B
:1035300041F4CDDF812F0F90DF91CF911F910C943B
:10354000A702C5DF85E00E94A70280E00E94A702D3
:103550008983CFDF898180FDF4CFEBCFCF93DF93D9
:10356000B6DF8FE90E94A70280E00E94A702C82F61
:10357000D0E0DC2FCC2780E00E94A702C82BB9DF67
:10358000CE01DF91CF9108950F931F93CF93DF93D7
:103590001F921F92CDB7DEB7162F082F61E082E091
:1035A0004A837983B7DF802F0E94A7027981872F12
:1035B0000E94A702812F0E94A7024A81842F0E94A5
:1035C000A7020F900F90DF91CF911F910F9191CF94
:1035D0002F923F924F925F926F927F928F929F9223
:1035E000AF92BF92CF92DF92EF92FF920F931F9311
:1035F000CF93DF93EC015B018D81811103C08FEFCD
:103600009FEFC5C08C8180FFFACF81E04B885C883A
:103610006D887E884A855B856C857D854416550658
:103620006606770609F480E090E03C014E01E6E092
:103630008E0E911C892B09F472C04A855B856C85BE
:103640007D856A0121E0D2222D811A012B0189E0BA
:1036500056944794379427948A95D1F78B8D9C8DF7
:10366000FC01223059F4828D938DA48DB58DBC015F
:10367000CD01620D731D841D951D40C01481115034
:103680001221C114D104C9F4111117C0452B462BC6
:10369000472B49F48F89988DA98DBA8D8E839F838E
:1036A000A887B9870AC04E815F81688579859401B2
:1036B0000E944A06882309F4A2CFEB8DFC8D8E81EF
:1036C0009F81A885B9850297A109B109AC01BD0107
:1036D000058404C0440F551F661F771F0A94D2F754
:1036E00086859785A089B189840F951FA61FB71F6E
:1036F000BC01CD01610F711D811D911D2C8126FF23
:1037000010C000911002109111022091120230910C
:103710001302601771078207930731F502C0C301D6
:1037200036C040E00E940306882309F468CFF60102
:10373000EE5EFB4FD501CF010196E817F90719F0AE
:1037400021912D93FACF2FEFA21AB20A8A859B8579
:10375000AC85BD850196A11DB11D8A879B87AC876D
:10376000BD8780E090E066CF750101E010E0960132
:10377000AB01BC0180911206909113060E94DE04F9
:10378000882309F43CCFFFEFAF1ABF0ADFCFDF91E8
:10379000CF911F910F91FF90EF90DF90CF90BF904E
:1037A000AF909F908F907F906F905F904F903F90E1
:1037B0002F900895CF93DF931F92CDB7DEB7789403
:1037C00084B5826084BD84B5816084BD85B5826026
:1037D00085BD85B5816085BD80916E0081608093D7
:1037E0006E00109281008091810082608093810040
:1037F0008091810081608093810080918000816050
:10380000809380008091B10084608093B1008091AA
:10381000B00081608093B0008091910082608093BD
:10382000910080919100816080939100809190003F
:103830008160809390008091A10082608093A100BC
:103840008091A10081608093A1008091A00081609F
:103850008093A0008091210182608093210180915A
:1038600021018160809321018091200181608093FA
:10387000200180917A00846080937A0080917A00A0
:10388000826080937A0080917A00816080937A00D0
:1038900080917A00806880937A001092C10088E756
:1038A00097E09093CF038093CE0380E190E09093D4
:1038B000CD038093CC0381E090E0A0E0B0E0809362
:1038C000C8039093C903A093CA03B093CB0361E0EC
:1038D00085E20E941E048CEB93E00E94381060E0A9
:1038E00085E20E941E048CEB93E00E94381061E098
:1038F00085E20E94990B61E083E00E94990B61E0F0
:1039000085E00E94990B60E085E00E941E0461E062
:1039100086E00E94990B60E086E00E941E0461E050
:1039200087E00E94990B60E087E00E941E0460E03F
:103930008CE00E94990B60E08CE00E941E0460E025
:103940008DE00E94990B60E08DE00E941E0460E013
:103950008EE00E94990B60E08EE00E941E0460E001
:1039600083E00E941E0468E572E084E196E00E9414
:10397000B90F61E085E30E94990B60E081E30E944A
:10398000990B61E081E30E941E0460E082E30E94E3
:10399000990B61E083E30E94990B61E084E30E944C
:1039A000990B60E083E30E941E0460E084E30E94C0
:1039B0001E0460E08DE40E941E0461E070E080E07F
:1039C00090E00E9443101092030910920109109296
:1039D000FE081092FD0885E38093FC080E947B108E
:1039E0005B0161E08091FC080E94990B61E080918D
:1039F000FC080E941E040E94D50B82E58093B1064C
:103A00001092B2068091B1069091B2060E94CA024D
:103A10001AE08FEF0E94A7021150D9F70E94A60268
:103A200088EF98E00E944D0420E030E0A90160E0BA
:103A300088EF98E00E948304182F80930209813058
:103A400049F00E947B106A197B09613D774060F361
:103A500081E054C02AEA31E040E050E068E088EFBD
:103A600098E00E94830482FF03C0109303090EC0F4
:103A700014E00E94AE02809302091150D1F78A3AF5
:103A800011F082E03BC082E080930309809103093A
:103A9000823021F0C12CD12C760105C0C12CD12C53
:103AA000E12C20E4F22E20E030E0A90167E388EF6A
:103AB00098E00E948304A701960169E288EF98E0EC
:103AC0000E94830480930209882349F00E947B109E
:103AD0006A197B09613D774030F388E00FC080911F
:103AE0000309823001F520E030E0A9016AE388EFA4
:103AF00098E00E948304882341F086E08093FD08CB
:103B000088EF98E00E9461041FC00E94AE02807C92
:103B1000803C19F483E0809303090E94AE020E9466
:103B2000AE020E94AE0288EF98E00E94610480E538
:103B30008093B10681E08093B206D5D8811107C089
:103B400080E0D1D8811103C01092DE0303C081E070
:103B50008093DE03E0912406F091250682E08083C5
:103B6000E0912006F09121061082E0912206F0916A
:103B7000230680E1808310922C06E0912806F091C4
:103B8000290686E08083E0912606F0912706808151
:103B900080618083E0912606F0912706808188600D
:103BA0008083E0912606F0912706808180688083DB
:103BB000E0912606F091270680818F7D808381E742
:103BC00092E0C0D944E064E183EB96E00E94CF1517
:103BD00061E083EB96E00E942A0B8BE39FE1019763
:103BE000F1F768EC70E080E090E00E9443108CB543
:103BF0008093CE068DB58093CF0661E08091CB0691
:103C00000E94990B0E94D50B80E58093D0061092FC
:103C1000D1066FDC5CDC8BEA0E94A7026ADC809133
:103C2000CC069091CD06892B09F406C697DC20912D
:103C3000CC063091CD068217930709F4FDC58BE7BA
:103C400092E080D91092DF0368EC70E080E090E0B1
:103C50000E94431088E598E00E94AA1288E598E047
:103C600073DB64E088E598E00E94EB1161E088E591
:103C700098E00E94181265E088E598E00E947B12A7
:103C800088E598E04DDB40E850E060E070E088E5D2
:103C900098E00E94901288E598E02DDB65E088E5C9
:103CA00098E00E94481288E598E015DB88E598E0E6
:103CB000FDDA88E598E0E6DA88E598E0CEDA88E58E
:103CC00098E0B7DA61E088E598E00E94C51186EDDA
:103CD00097E09ADA88E598E00E949A1261E088E518
:103CE00098E00E94CD0286ED97E00E94AA1286ED30
:103CF00097E02ADB64E086ED97E00E94EB1161E03B
:103D000086ED97E00E94181265E086ED97E00E942C
:103D10007B1286ED97E004DB40E850E060E070E065
:103D200086ED97E00E94901286ED97E0E4DA65E078
:103D300086ED97E00E94481286ED97E0CCDA86ED9A
:103D400097E0B4DA86ED97E09DDA86ED97E085DAC4
:103D500086ED97E06EDA61E086ED97E00E94C5118E
:103D600086ED97E051DA86ED97E00E949A1261E0C5
:103D700086ED97E00E94CD0284E597E00E94AA12AA
:103D800084E597E0E1DA64E084E597E00E94EB11D6
:103D900061E084E597E00E94181265E084E597E011
:103DA0000E947B1284E597E0BBDA40E850E060E0D7
:103DB00070E084E597E00E94901284E597E09BDA3A
:103DC00065E084E597E00E94481284E597E083DA95
:103DD00084E597E06BDA84E597E054DA84E597E0D0
:103DE0003CDA84E597E025DA61E084E597E00E941B
:103DF000C51184E597E008DA84E597E00E949A12FD
:103E000061E084E597E00E94CD0282ED96E00E9499
:103E1000AA1282ED96E098DA64E082ED96E00E94C4
:103E2000EB1161E082ED96E00E94181265E082EDF0
:103E300096E00E947B1282ED96E072DA40E850E054
:103E400060E070E082ED96E00E94901282ED96E0D4
:103E500052DA65E082ED96E00E94481282ED96E02B
:103E60003ADA82ED96E022DA82ED96E00BDA82ED24
:103E700096E0F3D982ED96E0DCD961E082ED96E040
:103E80000E94C51182ED96E0BFD982ED96E00E94B6
:103E90009A1261E082ED96E00E94CD0260E086E237
:103EA0000E941E0460E088E30E941E0460E08AE332
:103EB0000E941E0460E088E10E941E0480910701B8
:103EC0008D7F809307019FB7F894809108018260ED
:103ED000809308019FBF809104018D7F809304012E
:103EE0009FB7F894809105018260809305019FBF80
:103EF00026982E9A809107018B7F809307019FB7A8
:103F0000F894809108018460809308019FBF80919C
:103F100004018E7F809304019FB7F894809105017E
:103F20008160809305019FBF809101018F7B809309
:103F300001019FB7F894809102018064809302018F
:103F40009FBF68EC70E080E090E00E94431085DA4B
:103F50000E94D11480E2C82E83E0D82EE12CF12CEF
:103F6000812C912C5401839484E196E00E940F0EE1
:103F7000181619060CF048C184E196E00E94ED0D78
:103F8000182F813639F461E088E598E00E94CD026F
:103F900061E008C0823659F460E088E598E00E944C
:103FA000CD0260E086ED97E00E94CD022DC1833600
:103FB00031F4809170008E7F8093700025C184362B
:103FC00021F44BDA0E94D1141FC1803709F063C07D
:103FD0000E942A0D8C016CE872E084E196E00E9458
:103FE000B90FB80184E196E00E948715012B29F4EE
:103FF00081E08093C70310E003C01092C70311E073
:104000006AE972E084E196E00E94B90F112381F120
:1040100063EA72E084E196E00E94B90F61E08AE011
:104020000E94BA156CEA72E083EB96E00E94B90F29
:104030000E942A0D8C016CE872E084E196E00E94F7
:10404000B90FB80184E196E00E94871501151105AA
:1040500019F01092C70303C081E08093C70381E089
:10406000012B09F480E0809300021092C603CCC0BB
:1040700065EB72E084E196E00E94B90F61E08AE0AE
:104080000E94BA156FEB72E083EB96E00E94B90FC5
:1040900010920002B9C0823799F586EF92E00E9433
:1040A000A217412C512C320160E083E033DA80E02A
:1040B0000E94A702852D0E94A702842D0E94A702BC
:1040C00080E00E94A702898314DA8981482F50E09A
:1040D00060E070E020E184E196E00E94270F6EE24C
:1040E00084E196E00E940B0F4FEF441A540A640AD1
:1040F000740A51E04516550661047104A9F62CC0F6
:104100008536C9F468EC72E084E196E00E94B90F4C
:1041100061E080E6FFD9EDD9DAD985E00E94A702F7
:1041200080E00E94A7028983E4D9898180FDF4CFD1
:1041300080EE92E040C08936B1F465EE72E084E131
:1041400096E00E94B90F0ADAAC0160E070E020E16D
:1041500084E196E00E94270F6CE273E084E196E030
:104160000E94120F51C0873749F580EF92E00E94FC
:10417000A217412C512C3201442DC301B20104DAA3
:10418000B2016F5F7F4F40E150E084E196E00E9412
:104190006F0F6EE284E196E00E940B0F8FEF481ADA
:1041A000580A680A780A91E04916590661047104B0
:1041B00019F785E093E00E94A21726C080ED810FD9
:1041C0008A3010F568E073E084E196E00E94B90F50
:1041D000612F84E196E00E940B0F64E173E084E1BB
:1041E00096E00E94B90F0E947B1060FD02C04BEB6D
:1041F00001C04AEA612F110F770B60537109072E36
:10420000000C880B990BC0D90E947B10A701960166
:1042100001D66436710581059105C8F428E737E0B9
:104220003093CF032093CE0380E190E09093CD03B1
:104230008093CC038092C8039092C903A092CA03D2
:10424000B092CB0310E000E0712C61E042C00E940C
:104250007B10A7019601DED5683C710581059105AB
:1042600060F10E947B10A7019601D4D56C32714099
:104270008105910538F10E947B10A7019601CAD5EE
:104280006039714081059105B0F00E947B10A70153
:104290009601C0D5643F714081059105B0F00E9440
:1042A0007B10A7019601B6D568357240810591054E
:1042B00010F00E947B1010E009C010E000E07724AD
:1042C000739406C010E001E002C011E000E0712C20
:1042D00060E085E00E941E04672D86E00E941E04B7
:1042E000602F87E00E941E04612F88E00E941E0458
:1042F00061E083E00E941E0461E084E00E941E04ED
:104300000E947B102B013C018FE30E94F60311E019
:10431000892B09F410E0109307028EE00E94F60347
:1043200001E0892B09F400E0009308028CE00E9470
:10433000F60333243394892B09F4312C309209028B
:1043400080E40E94F60321E0892B09F420E0209309
:104350000A028FE029830E94F603222423942981F4
:10436000892B09F4212C20920B0289E029830E94D9
:10437000F60331E02981892B09F430E030930C02F7
:104380008091D90381110EC080910102181721F08C
:1043900081E08093D90306C0809104022813F8CFEE
:1043A0001092D9038091D80381110EC0809102022E
:1043B000081721F081E08093D80306C080910502A0
:1043C0002812F8CF1092D8038091D70381110EC024
:1043D00080910302381621F081E08093D70306C054
:1043E000809106023813F8CF1092D7038091D3033F
:1043F0009091D403A091D503B091D603A30192016B
:10440000281B390B4A0B5B0BDA01C901893B9B4026
:10441000A105B10508F4ADC04092D3035092D40376
:104420006092D5037092D6030091D903002331F036
:104430009091D20381E089278093D2031091D80311
:10444000112331F09091D10381E089278093D1032A
:104450007090D703772031F09091D00381E08927C5
:104460008093D0038091D203882311F060E001C0D3
:1044700061E087E30E941E048091D103882311F03C
:1044800060E001C061E08DE30E941E048091D003D2
:10449000882311F060E001C061E080E30E941E0407
:1044A000011105C0111103C0772009F458C086E13D
:1044B00093E00E94A2176091070270E04AE050E08A
:1044C00084E196E00E946F0F6091010270E084E148
:1044D00096E00E94871560910A0270E04AE050E081
:1044E00084E196E00E946F0F6091040270E084E125
:1044F00096E00E9487156091D90370E084E196E010
:104500000E9487156091D20370E084E196E00E94DA
:1045100087156FE273E084E196E00E94B90F2AE00C
:1045200046E050E060E070E084E196E00E94270FF2
:104530006CE273E084E196E00E94120F62E087E093
:104540000E94BA1568E373E083EB96E00E94B90F0E
:104550001092D9031092D8031092D7030AC062E0D8
:1045600087E00E94BA156FE373E083EB96E00E9448
:10457000B90FE7E0F2E0A1E0B2E042E0ED30F4078D
:1045800019F081918D93F9CF0E947B100091DA038D
:104590001091DB032091DC033091DD03DC01CB01C2
:1045A000801B910BA20BB30B893E9340A105B10573
:1045B00008F4D6C00E947B106093DA037093DB038B
:1045C0008093DC039093DD038CE00E9419108C0132
:1045D00066E473E084E196E00E94B90F4AE050E09F
:1045E000B80184E196E00E946F0F6AE473E084E111
:1045F00096E00E94B90F60E080E094E0801B910B90
:104600000E94130340E00E94B51760E080E00E9422
:10461000BA156CE473E083EB96E00E94B90F4AE0B0
:1046200050E0B80183EB96E00E946F0F6FE473E0F7
:1046300084E196E00E94B90F8DE00E9419108C0170
:104640004AE050E0BC0184E196E00E946F0F6AE40A
:1046500073E084E196E00E94B90F61E080E094E0AD
:10466000801B910B0E94130340E00E94B51760E08D
:1046700087E00E94BA1564E573E083EB96E00E9440
:10468000B90F4AE050E0B80183EB96E00E946F0F4B
:1046900067E573E084E196E00E94B90F8EE00E9426
:1046A00019108C014AE050E0BC0184E196E00E94C0
:1046B0006F0F6AE473E084E196E00E94B90F62E054
:1046C00080E094E0801B910B0E94130340E00E9465
:1046D000B51760E08EE00E94BA156CE573E083EBDD
:1046E00096E00E94B90FB80183EB96E00E9487150F
:1046F0006FE573E084E196E00E94B90F8FE00E94BD
:1047000019108C014AE050E0BC0184E196E00E945F
:104710006F0F6AE473E084E196E00E94B90F62E0F3
:1047200080E094E0801B910B0E94130340E00E9404
:10473000B5176CE273E084E196E00E94120F61E02D
:104740008EE00E94BA1564E673E083EB96E00E9467
:10475000B90F4AE050E0B80183EB96E00E946F0F7A
:104760000E947B100091E0031091E1032091E2038D
:104770003091E303DC01CB01801B910BA20BB30B47
:10478000893E9340A105B105E0F10E947B10609342
:10479000E0037093E1038093E2039093E30380913D
:1047A000DF03882359F087E693E00E94A21762E0B6
:1047B0008EE00E94BA1560E773E00AC087E793E0D5
:1047C0000E94A21762E08EE00E94BA1561E873E0D1
:1047D00083EB96E00E94B90F8091DE03882319F0E5
:1047E00088E893E002C083E993E00E94A21762E0A8
:1047F00080E00E94BA156EE873E083EB96E00E94B9
:10480000B90F63E080E00E94BA1562EA73E083EBBF
:1048100096E00E94B90F0E947B1028EE33E040E042
:1048200050E0F8D2BA01A9012AE083EB96E00E9499
:10483000270F0E94AC0E98CB61E081E00E948A1A9B
:1048400080E00E94A7020E94791A8AEA93E00E94FF
:10485000A21781E08093DF03F7C90F931F93CF93D3
:10486000E4E1F6E01382128288EE93E0A0E0B0E08B
:1048700084839583A683B78320E232E0318320834B
:1048800025EC30E03587248724EC30E03787268715
:1048900020EC30E0318B208B21EC30E0338B228B0D
:1048A00022EC30E0358B248B26EC30E0378B268BE6
:1048B000118E128E138E148EE1EBF6E0C0E5C083EC
:1048C0001182E4E0F9E0158216821186138642E037
:1048D00050E060E070E0448755876687778713A2D1
:1048E00015A614A622E332E033A722A717A6E8EF05
:1048F000F8E01582168211861386EAEDF8E040830F
:10490000518362837383178AEDE4F9E01382128284
:1049100084839583A683B7838AE492E0918380831E
:10492000128E118E148606E410E026E330E047E391
:1049300050E066E270E088E598E00E949D1307E28F
:1049400010E02CE330E04DE350E068E370E086EDEA
:1049500097E00E949D130AE410E02BE230E040E370
:1049600050E06AE370E084E597E00E949D130FE257
:1049700010E02AE130E04CE150E068E170E082EDC7
:1049800096E00E949D13EBECF6E0C583168283E56A
:10499000808380E39FEE92838183E3EBF6E01382D2
:1049A00012828EE392E09183808380E184838FEF93
:1049B000858381E1868387E1878389E180878BE135
:1049C00081878DE182871386148615861686178661
:1049D00041E060E1CF01CF911F910F910C94CF1571
:1049E0005058BB27AA270ED070C161D130F066D1D4
:1049F00020F031F49F3F11F41EF456C10EF4E095FF
:104A0000E7FB4CC1E92F72D180F3BA176207730735
:104A10008407950718F071F49EF58AC10EF4E095AD
:104A20000B2EBA2FA02D0B01B90190010C01CA0168
:104A3000A0011124FF27591B99F0593F50F4503E13
:104A400068F11A16F040A22F232F342F4427585F05
:104A5000F3CF469537952795A795F0405395C9F71D
:104A60007EF41F16BA0B620B730B840BBAF09150D5
:104A7000A1F0FF0FBB1F661F771F881FC2F70EC074
:104A8000BA0F621F731F841F48F487957795679547
:104A9000B795F7959E3F08F0B3CF9395880F08F030
:104AA0009927EE0F979587950895D4D008F481E063
:104AB00008950CD00AC102D140F0F9D030F021F4B1
:104AC0005F3F19F0EBC0511134C1EEC00FD198F324
:104AD0009923C9F35523B1F3951B550BBB27AA277F
:104AE00062177307840738F09F5F5F4F220F331FF1
:104AF000441FAA1FA9F333D00E2E3AF0E0E830D0BD
:104B000091505040E695001CCAF729D0FE2F27D0BF
:104B1000660F771F881FBB1F261737074807AB078D
:104B2000B0E809F0BB0B802DBF01FF2793585F4F02
:104B30002AF09E3F510568F0B1C0FBC05F3FECF327
:104B4000983EDCF3869577956795B795F7959F5FC7
:104B5000C9F7880F911D9695879597F90895E1E01B
:104B6000660F771F881FBB1F621773078407BA077A
:104B700020F0621B730B840BBA0BEE1F88F7E095D5
:104B80000895BCD088F09F5790F0B92F9927B7515E
:104B9000A0F0D1F0660F771F881F991F1AF0BA9501
:104BA000C9F712C0B13081F0C3D0B1E00895C0C0E0
:104BB000672F782F8827B85F39F0B93FCCF38695F7
:104BC00077956795B395D9F73EF490958095709554
:104BD00061957F4F8F4F9F4F0895E89409C097FBD1
:104BE0003EF490958095709561957F4F8F4F9F4FC4
:104BF0009923A9F0F92F96E9BB279395F695879508
:104C000077956795B795F111F8CFFAF4BB0F11F4CA
:104C100060FF1BC06F5F7F4F8F4F9F4F16C0882371
:104C200011F096E911C0772321F09EE8872F762FA7
:104C300005C0662371F096E8862F70E060E02AF0E8
:104C40009A95660F771F881FDAF7880F96958795D4
:104C500097F90895990F0008550FAA0BE0E8FEEFA9
:104C600016161706E807F907C0F012161306E40730
:104C7000F50798F0621B730B840B950B39F40A2629
:104C800061F0232B242B252B21F408950A2609F407
:104C9000A140A6958FEF811D811D089597F99F670B
:104CA00080E870E060E008959FEF80EC08950024B4
:104CB0000A941616170618060906089500240A9481
:104CC00012161306140605060895092E0394000C07
:104CD00011F4882352F0BB0F40F4BF2B11F460FF96
:104CE00004C06F5F7F4F8F4F9F4F089557FD9058BF
:104CF000440F551F59F05F3F71F04795880F97FBA0
:104D0000991F61F09F3F79F0879508951216130659
:104D10001406551FF2CF4695F1DF08C01616170688
:104D20001806991FF1CF86957105610508940895BD
:104D3000E894BB2766277727CB0197F908958ADF88
:104D400008F48FEF08950BD0C0CFB1DF28F0B6DFA5
:104D500018F0952309F0A2CFA7CF1124EACFC6DF20
:104D6000A0F3959FD1F3950F50E0551F629FF0017E
:104D7000729FBB27F00DB11D639FAA27F00DB11DD7
:104D8000AA1F649F6627B00DA11D661F829F222760
:104D9000B00DA11D621F739FB00DA11D621F839FE7
:104DA000A00D611D221F749F3327A00D611D231FBD
:104DB000849F600D211D822F762F6A2F11249F570B
:104DC00050408AF0E1F088234AF0EE0FFF1FBB1F2E
:104DD000661F771F881F91505040A9F79E3F5105CD
:104DE00070F05CCFA6CF5F3FECF3983EDCF3869586
:104DF00077956795B795F795E7959F5FC1F7FE2B78
:104E0000880F911D9695879597F9089523DF880B54
:104E1000990B0895A1E21A2EAA1BBB1BFD010DC020
:104E2000AA1FBB1FEE1FFF1FA217B307E407F5075A
:104E300020F0A21BB30BE40BF50B661F771F881F36
:104E4000991F1A9469F760957095809590959B01CC
:104E5000AC01BD01CF010895EE0FFF1F881F8BBF6E
:104E60000790F691E02D199409D0A59F900DB49F5D
:104E7000900DA49F800D911D11240895A29FB00153
:104E8000B39FC001A39F700D811D1124911DB29F7E
:104E9000700D811D1124911D089581E090E0F8941A
:064EA00000C0F894FFCFF2
:104EA60001010000000000010000000000B115141F
:104EB600FFFFFFFF3D003D00080108010000000064
:104EC600450EB30DDE0D8B0E0F0EED0D010E00001F
:104ED60000006F0AB30D3302320200000000250BFA
:104EE600B30D33023202000000001C027F0A3302B7
:104EF600D608FB018C0262070A496E697469616C07
:104F0600697A696E6720534420636172642E2E2E7F
:104F1600000A53746172742E2E2E0066616C7368DB
:104F260020696E6974204641494C2100504154392C
:104F36003132355F696E69743A004653656E736F38
:104F4600722000454E41424C45440A006465746532
:104F5600637465640044495341424C45440A006EFB
:104F66006F7464657465740045726173696E672059
:104F7600466C6173682063686970202E2E2E2000AF
:104F8600444F4E450044657669636549443A2000BE
:104F9600577269746520466C61736820636F6E741E
:104FA600656E743A006F6B000A57726974654279D0
:104FB6007465280029006D6F746F7220696E7665BE
:104FC6007273652064657465637465640D0A0073A5
:104FD600697A656F660D0A004D3A20594553004DB2
:104FE6003A204E4F5400543020002F00303A002013
:104FF60054312000313A002054322000323A002049
:1050060054422000423A00666C617368204F4B00A0
:10501600463A20204F4B00666C617368204241443B
:1050260000463A20424144005344204F4B00533A35
:105036004F4B00534420496E6974206661696C6564
:10504600640054494D45203A2000666C617368201F
:10505600696E6974204F4B21006E616E00696E6641
:06506600006F76660000F9
:00000001FF
