:100000000C9412110C9443110C9443110C94431151
:100010000C9443110C9443110C9443110C94431110
:100020000C9443110C9443110C9443110C94431100
:100030000C9443110C9443110C9443110C944311F0
:100040000C9443110C94E3520C9443110C944311FF
:100050000C9443110C9443110C94566F0C94166934
:100060000C9443110C9424320C941A320C944311C6
:100070000C9443110C9443110C9443110C944311B0
:100080000C9443110C9443110C9443110C944311A0
:100090000C9443110C9443110C9443110C94431190
:1000A0000C9443110C9443110C9443110C94431180
:1000B0000C9443110C9443110C9443110C94431170
:1000C0000C9443110C9443110C9443110C94042B85
:1000D0000C94CF2A0C9443110C9443110C944311AB
:1000E0000C94431190679367826786678C67CA6731
:1000F00097679B67A167A567A967AF67B367B7678E
:10010000CA67BD67C167C567306835683A684468C3
:100110004E68C76858686068686872687C688668F6
:1001200095689F68C768A968B368BD68084AD73BE7
:100130003BCE016E84BCBFFDC12F3D6C74319ABDB6
:1001400056833DDA3D00C77F11BED9E4BB4C3E91DA
:100150006BAAAABE000000803F05A84CCDB2D44EC9
:10016000B93836A9020C50B9918688083CA6AAAACB
:100170002ABE000000803F000C94C7680C942D75C7
:100180000C94A8780C943A680C944E790C94F577FA
:100190000C94BD680C94BC780C94DD460C940575E9
:1001A0000C942D460C94BD420C949B670C94B7673D
:1001B0000C94CB410C94B3670C94CA670C943342F3
:1001C0000C9448450C9485420C94BF410C94A27643
:1001D0000C9490670C94A9680C9453780C948978CB
:1001E0000C9453750C949F680C9486680C94184377
:1001F0000C9424780C94C5670C945C750C948E4117
:100200000C9486670C94DA750C9401750C945868FC
:100210000C9493670C9438760C9419450C94606890
:100220000C946A420C9444680C94F9420C94E17466
:100230000C94C1670C9495680C94EB750C94A041D8
:100240000C9497670C945D490C9470750C948B45D5
:100250000C94BD670C94FD8C0C94A9670C94A56755
:100260000C947C680C948C670C94A1670C94E879CE
:100270000C943C780C9472680C940B420C94356886
:100280000C9491410C9482670C9468680C94154905
:100290000C94B3680C94E38C0C94AF670C943068A6
:1002A0000C944E680C94A0790C94EB780C942F76F7
:1002B0000C9420774E414E494E495459494E46CDF3
:1002C000CCCC3D0AD7233C17B7D13877CC2B32950D
:1002D00095E6241FB14F0A000020410000C84200EB
:1002E000401C4620BCBE4CCA1B0E5AAEC59D744372
:1002F0004F4D4D554E49434154494F4E004452597C
:1003000052554E004552524F525300494E464F00EF
:100310004543484F0020746F6F206C6F6E672065F7
:100320007874727573696F6E2070726576656E741D
:1003300065640A0020636F6C64206578747275735D
:10034000696F6E2070726576656E7465640A004729
:10035000322F47332062616420706172616D657471
:100360006572730A00536C6565702E2E2E00436C07
:1003700069636B20746F20526573756D652E2E2E28
:10038000004E6F204D6F76652E00456E64206669C5
:100390006C65206C6973740A00426567696E20663B
:1003A000696C65206C6973740A00286E6F20666939
:1003B0006C65290043757272656E742066696C65A0
:1003C0003A20005344207072696E74696E6720622F
:1003D00079746520004E6F74205344207072696EEA
:1003E00074696E670A002E0A0044656C6574696F53
:1003F0006E206661696C65642C2046696C653A20E4
:100400000046696C652064656C657465643A0050EB
:1004100072696E742074696D653A2000496E766168
:100420006C69642050696E204D6F64650A00205726
:100430003A00436F6F6C696E672E2E2E004865611F
:1004400074696E672E2E2E006F6B006F666600104B
:10045000030B030403FD02EF0244454255473A00F3
:100460004D3131322053687574646F776E004D31B1
:1004700031332053004348414D4245525F54454D6E
:100480005045524154555245004D4F54494F4E5FCF
:100490004D4F44455300544845524D414C5F5052D6
:1004A0004F54454354494F4E004155544F524550C7
:1004B0004F52545F53445F5354415455530050526C
:1004C0004F4D50545F535550504F525400454D4579
:1004D0005247454E43595F504152534552004341A4
:1004E00053455F4C494748545F4252494748544E30
:1004F00045535300544F47474C455F4C4947485478
:100500005300534F4654574152455F504F57455241
:10051000004255494C445F50455243454E54004CAF
:100520004556454C494E475F44415441005A5F503F
:10053000524F4245004155544F4C4556454C005092
:1005400052494E545F4A4F420050524F4752455312
:1005500053004155544F5245504F52545F54454DEE
:100560005000564F4C554D45545249430045455057
:10057000524F4D0042494E4152595F46494C455FEA
:100580005452414E534645520053455249414C5FE7
:10059000584F4E5F584F4646004649524D574152BC
:1005A000455F4E414D453A4D61726C696E20322E69
:1005B000302E352E33202847697448756229205320
:1005C0004F555243455F434F44455F55524C3A683F
:1005D000747470733A2F2F6769746875622E636F35
:1005E0006D2F4D61726C696E4669726D77617265CF
:1005F0002F4D61726C696E2050524F544F434F4CD7
:100600005F56455253494F4E3A312E30204D4143AB
:1006100048494E455F545950453A33442050726919
:100620006E7465722045585452554445525F434F8D
:10063000554E543A3120555549443A636564653204
:100640006132662D343161322D343734382D3962C0
:1006500031322D6335356336326633363766660A96
:10066000002F2F2000205200416363656C6572618A
:1006700074696F6E3A2050003F4A206F7574206F86
:10068000662072616E67652028302E303120746FCD
:1006900020302E33290A004F4646004F4E00205886
:1006A0000020204D61783A2000200020204D696E06
:1006B0003A2000536F667420656E6473746F7073B4
:1006C0003A200046523A0020466C6F773A2000509C
:1006D000726F7465637465642050696E0A00496EB8
:1006E00076616C69642065787472756465720A005D
:1006F00020643A0020693A0020703A00646973006F
:10070000656E0043290A0061626C656420286D698A
:100710006E2074656D702000436F6C642065787482
:100720007275646573206172652000486F6D652085
:10073000257325732573204669727374004F6666AE
:1007400073657473204170706C69656400457272E2
:100750003A20546F6F206661722100546F6F2066DB
:1007600061722066726F6D207265666572656E6378
:100770006520706F696E740A00454550524F4D20D8
:1007800064697361626C65640A00446F6E65207011
:1007900072696E74696E672066696C650A004D3710
:1007A00037004D333100496E76616C69642065789D
:1007B0007472756465720A003637263F3C3D380E08
:1007C0002B303A0C1A1C18084505FF422C2D2E0020
:1007D00001627573793A2070617573656420666F84
:1007E0007220696E7075740A00627573793A2070B0
:1007F000617573656420666F7220757365720A0097
:10080000627573793A2070726F63657373696E678E
:100810000A0053544F505045442E20005072696EC8
:100820007465722073746F707065642064756520E0
:10083000746F206572726F72732E2046697820740F
:100840006865206572726F7220616E6420757365D1
:10085000204D39393920746F207265737461727458
:100860002E202854656D70657261747572652069FB
:10087000732072657365742E20536574206974202B
:1008800061667465722072657374617274696E67F3
:10089000290A004E6F20436865636B73756D20777E
:1008A000697468206C696E65206E756D6265722C66
:1008B000204C617374204C696E653A20004E6F20A5
:1008C000436865636B73756D2077697468206C6924
:1008D0006E65206E756D6265722C204C617374209C
:1008E0004C696E653A2000636865636B73756D20B3
:1008F0006D69736D617463682C204C617374204C56
:10090000696E653A20004C696E65204E756D6265B2
:1009100072206973206E6F74204C617374204C696F
:100920006E65204E756D6265722B312C204C6173A3
:1009300074204C696E653A20004D313130005344CB
:100940002072656164206572726F720A0021212035
:100950004B494C4C20636175736564206279204B70
:10096000494C4C20627574746F6E2F70696E0A006A
:100970002121204B494C4C206361757365642062D2
:100980007920746F6F206D75636820696E61637480
:100990006976652074696D65202D206375727265B6
:1009A0006E7420636F6D6D616E643A2000506C65EB
:1009B000617365205265736574005052494E544509
:1009C000522048414C544544004B494C4C45442E20
:1009D00020005072696E7465722068616C74656481
:1009E0002E206B696C6C28292063616C6C65642116
:1009F0000A006563686F3A004572726F723A0020B0
:100A00004D393220580020496E76616C696420654A
:100A100078747275646572200020746F6F206C6F3B
:100A20006E6720657874727573696F6E2070726579
:100A300076656E7465640A0020636F6C6420657867
:100A400074727573696F6E2070726576656E746509
:100A5000640A0000304031000010371237143700AC
:100A6000000037023704370000003604360836101D
:100A7000360000A0320000A032000060306230007A
:100A800000003800006030623090300831A0320041
:100A9000000032203240326032803200003031407B
:100AA00031603062300031023190300000002300AC
:100AB000006030623000230000603062302031007E
:100AC00000103112311431000060306230000090AB
:100AD000303031403100006030623000311031126E
:100AE00031143100310831303100006030623000A3
:100AF0000060306230103300310033103112311495
:100B00003100310831000000300000473930004723
:100B10003020462564004730202563257325642E48
:100B2000253032642046256400473931004D313785
:100B3000004D3138004D353030004D353031004DED
:100B40003530320A4D3530300000706C65617365A8
:100B5000207761697400504944206973206175747D
:100B60006F74756E696E670000070B01F10A0AEB7E
:100B70000A01D70A01CF0A12C90AC0C10AA0B90ADC
:100B800092B10A94AD0A9EAD0A499D0A47910A4B5B
:100B9000850AFB810A5E7B0A60770ADE730AD469E4
:100BA0000AD6610ADA590A24530A00000053442085
:100BB00063617264206572726F72004E4F544943D4
:100BC0004500506C6561736520636F6E6669726D78
:100BD0002E00504944204175746F74756E6520660F
:100BE000696E697368656421205075742074686546
:100BF000206C617374204B702C204B6920616E64F3
:100C0000204B6420636F6E7374616E747320667220
:100C10006F6D2062656C6F7720696E746F20436F13
:100C20006E66696775726174696F6E2E68005049EF
:100C300044204175746F74756E65206661696C65DA
:100C400064212074696D656F7574005049442041BA
:100C500075746F74756E65206661696C65642120BA
:100C600054656D706572617475726520746F6F2064
:100C70006869676800504944204175746F74756EE7
:100C800065206661696C6564212042616420657835
:100C9000747275646572206E756D626572006F6E38
:100CA00050696454756E696E673A007C3C3E5E2BF9
:100CB0003D3F2F5B5D3B2C2A225C0024F4D4305056
:100CC000C38E20C2A24017828B7011127A910D81BF
:100CD0006CD90AA861E108C7586607615143061E2E
:100CE0004B5D05C145A7041A411104093D980371E4
:100CF0003931034036DB0265339102D4305402802F
:100D00002E1D02632CEE01752AC501B028A001102A
:100D10002781018F2564012B244B01E0223401AC93
:100D2000211F018D200D01801FFC00841EED009706
:100D30001DDF00B81CD200E61BC600201BBC0064EF
:100D40001AB200B219A8000A19A0006A189900D1B5
:100D500017910040178B00B516840031167E00B342
:100D60001579003A157300C7146F0058146A00EE25
:100D70001366008813630025135E00C7125B006CC6
:100D800012570015125400C111510070114F00216B
:100D9000114B00D61049008D104700461044000248
:100DA000104200C00F4000800F3E00420F3C000682
:100DB0000F3B00CB0E3800930E37005C0E3500273A
:100DC0000E3400F30D3200C10D3100900D30006083
:100DD0000D2E00320D2D00050D2C00D90C2B00AE70
:100DE0000C2900850C29005C0C2700350C27000E0F
:100DF0000C2600E80B2400C40B2400A00B23007D6C
:100E00000B23005A0B2100390B2100180B2000F88E
:100E10000A1F00D90A1E00BB0A1E009D0A1D008081
:100E20000A1D00630A1C00470A1B002C0A1B001144
:100E30000A1A00F7091A00DD091900C4091900ABE4
:100E4000091900920917007B091800630917004C63
:100E500009160036091600200916000A091500F5C2
:100E6000081500E0081400CC081400B8081400A409
:100E7000081400900813007D0812006B0813005836
:100E8000081200460812003408110023081100124D
:100E900008110001081100F0071000E0071000D051
:100EA000071000C0071000B0070F00A10710009145
:100EB000070E0083070F0074070F0065070E005729
:100EC000070E0049070E003B070D002E070E0020FD
:100ED000070D0013070D0006070D00F9060C00EDC5
:100EE000060D00E0060C00D4060C00C8060C00BC81
:100EF000060C00B0060C00A4060B0099060C008D31
:100F0000060B0082060B0077060B006C060B0061D7
:100F1000060A0057060B004C060A0042060A003873
:100F2000060A002E060A0024060A001A060A001005
:100F300006090007060A00FD050900F4050900EB93
:100F4000050900E2050900D9050900D0050900C717
:100F5000050900BE050900B5050800AD050800A596
:100F60000509009C050800940508008C050800840C
:100F70000508007C050800740508006C050700657D
:100F80000508005D050700560508004E05070047E7
:100F90000507004005080038050700310507002A4D
:100FA000050700230507001C050600160507000FAE
:100FB0000507000805060002050700FB040600F50A
:100FC000040700EE040600E8040600E2040700DB64
:100FD000040600D5040600CF040600C9040600C3B9
:100FE000040600BD040600B7040600B1040500AC09
:100FF000040600A6040600A00405009B0406009554
:10100000040500900406008A04050085040500809C
:101010000406007A04050075040500700405006BE1
:1010200004050066040500610405005C0405005722
:10103000040500520405004D040500480405004362
:101040000405003E0404003A0405003504050030A0
:101050000404002C04050027040400230405001EDA
:101060000404001A04040016040500110404000D11
:10107000040400090405000404040000040400FC46
:10108000030400F8030400F4030400F0030400EC7C
:10109000030400E8030400E4030400E0030400DCAC
:1010A000030400D8030400D4030400D0030400CCDC
:1010B000030400C8030300C503030024F404D9207B
:1010C0001BC40C5C0E9804C4095F0265077101F42F
:1010D00005F900FB04B30048048700C10369005808
:1010E00003550003034500BE023A00840231005359
:1010F000022A002902250004022000E4011C00C885
:10110000011900AF01170098011400840113007148
:101110000110006101100051010E0043010D003665
:10112000010B002B010B0020010B00150109000C25
:1011300001090003010800FB000800F3000800EBB0
:10114000000700E4000600DE000600D8000600D21A
:10115000000600CC000500C7000500C2000500BD68
:10116000000400B9000400B5000400B1000400ADA3
:10117000000400A9000400A5000300A20003009FD2
:101180000004009B000300980003009500020093F8
:10119000000300900003008D0002008B0003008814
:1011A0000002008600020084000300810002007F2C
:1011B0000002007D0002007B00020079000200773F
:1011C000000100760002007400020072000100714C
:1011D0000002006F0002006D0001006C0002006A56
:1011E000000100690002006700010066000100655F
:1011F0000001006400020062000100610001006063
:101200000001005F0002005D0001005C0001005B66
:101210000001005A00010059000100580001005768
:101220000001005600010055000100540001005368
:101230000000005300010052000100510001005065
:101240000001004F0001004E0000004E0001004D63
:101250000001004C0001004B0000004B0001004A5F
:10126000000100490001004800000048000100475B
:101270000001004600000046000100450000004556
:10128000000100440001004300000043000100424F
:101290000000004200010041000000410001004048
:1012A0000001003F0000003F0001003E0000003E42
:1012B0000001003D0000003D0001003C0000003C3A
:1012C0000000003C0001003B0000003B0001003A30
:1012D0000000003A00010039000000390001003828
:1012E000000000380000003800010037000000371F
:1012F0000001003600000036000000360001003515
:10130000000000350000003500010034000000340A
:1013100000000034000100330000003300000033FF
:1013200000010032000000320000003200010031F4
:1013300000000031000000310001003000000030EA
:10134000000000300001002F0000002F0000002FDF
:101350000000002F0001002E0000002E0000002ED3
:101360000001002D0000002D0000002D0000002DC8
:101370000001002C0000002C0000002C0000002CBC
:101380000001002B0000002B0000002B0000002BB0
:101390000001002A0000002A0000002A0000002AA4
:1013A0000001002900000029000000290000002998
:1013B000000000290001002800000028000000288B
:1013C000000000280000002800010027000000277E
:1013D0000000002700000027000000270001002671
:1013E0000000002600000026000000260000002665
:1013F0000001002500000025000000250000002558
:101400000000002500000025000100240000002449
:10141000000000240000002400000024000100233C
:101420000000002300000023000000230000002330
:101430000000002300000023000100220000002221
:101440000000002200000022000000220000002214
:101450000001002100000021000000210000002107
:1014600000000021000000210000002100010020F8
:1014700000000020000000200000002000000020EC
:101480000000002000000020000000200001001FDC
:101490000000001F0000001F0000001F0000001FD0
:1014A0000000001F0000001F0001001E0000001EC1
:1014B0000000001E0000001E000000043700001E97
:1014C000290000511B00005810000010090000CC3A
:1014D00004000078020000410100000000484300C1
:1014E00000484300004843000000000000000000E6
:1014F00000000048617264636F646564204465663F
:1015000061756C742053657474696E6773204C6FD9
:10151000616465640A000000964300009643000081
:10152000A0400000C8410000A0420000A04200000E
:101530007A450000FA43B80B0000B80B00006400C5
:101540000000102700003B2000204400204900201C
:10155000204D33303120500050494420736574745D
:10156000696E67733A0020204D32303620580048AB
:101570006F6D65206F66667365743A00204A0020BF
:10158000530020204D323035204200416476616E98
:101590006365643A20423C6D696E5F7365676D6593
:1015A0006E745F74696D655F75733E20533C6D6941
:1015B0006E5F66656564726174653E20543C6D695A
:1015C0006E5F74726176656C5F6665656472617486
:1015D000653E204A3C6A756E635F6465763E002016
:1015E000540020520020204D3230342050004163FE
:1015F00063656C65726174696F6E2028756E6974BD
:10160000732F7332293A20503C7072696E745F6197
:101610006363656C3E20523C726574726163745FF3
:10162000616363656C3E20543C74726176656C5FE7
:10163000616363656C3E0020204D323031205800DC
:101640004D6178696D756D20416363656C6572618C
:1016500074696F6E2028756E6974732F7332293A1E
:1016600000204500205A0020590020204D32303300
:101670002058004D6178696D756D206665656472EE
:10168000617465732028756E6974732F73293A002D
:1016900053746570732070657220756E69743A00BA
:1016A00020204D3230302044300A0020204D32308E
:1016B000302044002044697361626C65640A00460E
:1016C000696C616D656E742073657474696E67739F
:1016D0003A0020286D6D290020204732312020203B
:1016E000203B20556E69747320696E206D6D006F0C
:1016F00070656E00545249474745524544003A20B0
:10170000007A5F6D696E00795F6D696E00785F6D5C
:10171000696E005265706F7274696E6720656E64E1
:1017200073746F70207374617475730A00486F6D01
:10173000696E67204661696C656400000000000006
:101740000000000000000000004842000048420085
:101750000080405761726E696E673A20486F6D690C
:101760006E672042756D702044697669736F7220D0
:101770003C20310A000202040000A0400000A0400A
:101780000000004000004843000048430000484378
:10179000FFFFFF00002200250028002B002E003153
:1017A00000340002010000050108010B01000020C7
:1017B000002300260029002C002F00320000010029
:1017C00000030106010901050505050705080808CC
:1017D00008020202020A0A080804040404010101C2
:1017E00001010101010303030303030303040707CA
:1017F000070C0C0C0C0C0C0C0C0202020206060668
:1018000006060606060B0B0B0B0B0B0B0B07070A4A
:101810000A0A0A0A0A050505040404080801021058
:1018200020200808102040102040800201020108FA
:1018300004020101020408102040808040201008AA
:101840000402018004020180402010080402010803
:101850000402010102040810204080010204081063
:101860002040801008040880102040044080102090
:1018700040048000000A0B02090C0D0E0807030447
:101880000100000000000000000000000000000057
:101890000000000000000000000000000000001236
:1018A0001110000000000000000000000000000017
:1018B0000000000000000000000000000000000028
:1018C0000000000000000000002020506C616E6EDF
:1018D000657242756666657242797465733A200076
:1018E0002046726565204D656D6F72793A20004320
:1018F0006F6D70696C65643A204E6F7620313920C7
:10190000323032300A00204C6173742055706461AB
:101910007465643A20323032302D30332D3331202B
:101920007C20417574686F723A20286E6F6E652C4A
:101930002064656661756C7420636F6E66696729E3
:101940000A00322E302E352E330A004D61726C693A
:101950006E0020536F6674776172652052657365FF
:10196000740A00205761746368646F67205265735E
:1019700065740A002042726F776E206F7574205272
:10198000657365740A002045787465726E616C2019
:1019900052657365740A00506F77657255700A005E
:1019A00073746172740A006175746F25632E670029
:1019B0004732385859004D31303031006572726FFE
:1019C000722077726974696E6720746F2066696C23
:1019D000650A00446F6E6520736176696E672066E4
:1019E000696C652E0A004D323900205A3A002059A0
:1019F0003A0020583A00656E6473746F7073206803
:101A000069743A200043616E6E6F74206F70656E6A
:101A100020737562646972200053442063617264AC
:101A2000206F6B0A006F70656E526F6F7420666175
:101A3000696C65640A00766F6C756D652E696E69F8
:101A400074206661696C65640A00534420696E699C
:101A500074206661696C0A004D3234004D323320C7
:101A600025730046696C652073656C6563746564F5
:101A70000A002053697A653A200046696C65206F38
:101A800070656E65643A2000454E442053554252BD
:101A90004F5554494E450A002220706F7300222092
:101AA000706172656E743A2200535542524F55541C
:101AB000494E452043414C4C207461726765743A2D
:101AC0002200747279696E6720746F2063616C6C98
:101AD000207375622D67636F64652066696C65733A
:101AE000207769746820746F6F206D616E79206C47
:101AF0006576656C732E204D4158206C6576656C5B
:101B00002069733A310A0057726974696E672074EC
:101B10006F2066696C653A20002E0A006F70656E52
:101B2000206661696C65642C2046696C653A20000A
:101B3000667265736800646F696E67002066696C21
:101B4000653A20004E6F7720000000210024002716
:101B5000002A002D003000330001010000040107BD
:101B6000010A0170012C0190012701B0012201C07E
:101B7000011D01F00118011002130130020E016075
:101B800002090190020401C002FF000003FA0040B4
:101B900003F5008003F000D003EB002004E60070A2
:101BA00004E100E004DC004005D700C005D200409D
:101BB00006CD00D006C8008007C3003008BE00F084
:101BC00008B900C009B400B00AAF00B00BAA00D039
:101BD0000CA500000EA000500F9B00C010960050F6
:101BE00012910000148C00C0158700B0178200B05D
:101BF000197D00D01B7800001E730040206E0090FD
:101C0000226900F024640040275F0090295A00E018
:101C10002B5500102E500020304B0010324600E0B3
:101C200033410090353C001037370070383200A047
:101C3000392D00B03A2800A03B2300603C1E001064
:101C40003D1900903D1400103E0F00703E0A00C088
:101C50003E0500003F0000403FFBFF803FF6FFC015
:101C60003FF1FF20436F756E7420583A00453100F4
:101C7000626564002C2073797374656D2073746FD2
:101C80007070656421204865617465725F49443AEB
:101C9000200048656174696E67204661696C6564FF
:101CA0000048656174696E67206661696C656400EF
:101CB000544845524D414C2052554E4157415900D0
:101CC000546865726D616C2052756E617761790040
:101CD000202D20496E76616C696420657874727578
:101CE000646572206E756D62657220210A0045720E
:101CF000723A204D415854454D50004D415854457D
:101D00004D50207472696767657265640045727230
:101D10003A204D494E54454D50004D494E54454D85
:101D20005020747269676765726564004D383420AD
:101D3000582059205A204500202F0020403A0032D8
:101D40002E302E352E3300012000000205750000D4
:101D500000200000022D7500000320000002A07981
:101D6000000010200000024E790000022000000256
:101D7000017500000021000002184300000221004C
:101D80000002184300000421000002184300002054
:101D900021000002184300003021000002F9420037
:101DA0000000240000026A42000000303F1D1000C5
:101DB00000BC78203000002000002F7660306703E0
:101DC0000200008B4562306B0302E879A8789030FE
:101DD0000F02028542A8782031A809020000484578
:101DE0001021000002BD42000010226B0302A0413E
:101DF000000010336B030200002478202200000250
:101E00005D49000000376E0302CB41EB750237726B
:101E10000302CB41EB750437760302CB41EB75101F
:101E200024000002DD460000002300000215492DB9
:101E30004600314F0302E174897800224F0302BF4C
:101E400041000000334F030200003C780231500390
:101E500002E17489780222500302BF41000002337C
:101E600050030200003C780431510302E174897888
:101E70000422510302BF4100000433510302000059
:101E80003C7808314602029141A8781031F20C02E8
:101E9000000048451231F60C02000048451431FAA2
:101EA0000C02000048453031000002000053784029
:101EB000310000200000EB7800362108023342197F
:101EC00045043625080233421945083629080233ED
:101ED00042194510362D08020B42194520200000FA
:101EE00002A27600002220000002207700002420B9
:101EF000000002DA75000000320000200000387691
:101F0000203200002000003876403200002000001F
:101F100038766032000020000038768032000020E1
:101F2000000038762620000002707500002820008E
:101F300000025C75000040200000025375000000A4
:101F4000380000020000F57700110000200000BCFE
:101F50007840110000200000BC78801100002000B3
:101F600000BC78C0110000200000BC780000000018
:101F7000020000000041626F7274696E672E2E2E9F
:101F8000004E6F204D656469610043616E6E6F7431
:101F900020656E746572207375626469723A200000
:101FA00066726F6D20534420436172643F0050722B
:101FB000696E742066696C65004D3235003F0041E2
:101FC000626F7274207072696E74696E670050720D
:101FD000696E742041626F727465640025732563B5
:101FE000004361703A00220A00656E71756575657F
:101FF000696E672022006F6B00526573656E643AEC
:1020000020002569730025696D2025697300256905
:10201000682025696D20256973002569642025697C
:10202000682025696D202569730025697920256957
:1020300064202569682025696D2025697300504951
:1020400044204175746F74756E65206661696C65B6
:102050006421204261642065787472756465722021
:102060006E756D6265720A0023646566696E65202F
:1020700044454641554C545F004B6420004B692059
:10208000004B702000504944204175746F74756E88
:10209000652066696E6973686564212050757420D7
:1020A000746865206C617374204B702C204B692020
:1020B000616E64204B6420636F6E7374616E747321
:1020C0002066726F6D2062656C6F7720696E746F29
:1020D00020436F6E66696775726174696F6E2E68F2
:1020E0000A00504944204175746F74756E6520660E
:1020F00061696C6564212074696D656F75740A008F
:10210000504944204175746F74756E65206661692D
:102110006C6564212054656D7065726174757265BB
:1021200020746F6F20686967680A00204B643A204A
:1021300000204B693A2000204B703A20000A2043CF
:102140006C617373696320504944200A0020547500
:102150003A2000204B753A2000206D61783A20002B
:10216000206D696E3A200020643A20002062696187
:10217000733A2000504944204175746F74756E6540
:102180002073746172740A00504944204175746F61
:1021900074756E65206661696C6564212054656D97
:1021A000706572617475726520746F6F20686967FD
:1021B000680A005072696E7420506175736564001E
:1021C0004520255300220A00556E6B6E6F776E20F6
:1021D000636F6D6D616E643A20220033442050724B
:1021E000696E7465722052656164792E005072695F
:1021F0006E74696E672E2E2E0020453A00205A3AE2
:102200000020593A00583A002E0A006F70656E207F
:102210006661696C65642C2046696C653A20000033
:10222000FD8CE38C11241FBECFEFD1E2DEBFCDBF0A
:1022300000E00CBF12E0A0E0B2E0E4E7F5E301E06B
:102240000BBF02C007900D92A839B107D9F721E161
:10225000A8E9B2E001C01D92AE37B207E1F711E183
:10226000C1E1D1E100E006C021970109802FFE0104
:102270000E94D999C031D10780E00807A9F70E94D0
:1022800012870C94A89A0C9400002F923F924F92C0
:102290005F926F927F928F929F92AF92BF92CF92F6
:1022A000DF92EF92FF920F931F93CF93DF93CDB7FF
:1022B000DEB7C355D1090FB6F894DEBF0FBECDBF50
:1022C00064968FAF64972091A60261962FAF6197B5
:1022D00011E01093A60280913C0C8D3409F473C276
:1022E000843511F40C94FC1F873411F00C941720E2
:1022F00020903A0C30903B0C34E02316310409F462
:102300009BC154F437FC5BC280914D0B52E0251603
:1023100031040CF005C12FC08AE52816310409F4F8
:10232000D9C164F4A5E12A16310411F40C941920E2
:10233000BCE12B16310409F4BDC141C2EBE52E16F8
:10234000310409F4CBC1FCE52F16310409F037C282
:1023500008E4202E02E0302E8FE8E82E89E0F82EE7
:10236000A2EFBCE0B9A3A8A392E0C92E9DE0D92EAC
:1023700000E010E0F4C1813011F00C9419200E94AB
:10238000C4288CE999E00E941E6080910C0883FDAE
:1023900088C02091FE0C3091FF0C4091000D5091AF
:1023A000010D6091A8097091A9098091AA099091E5
:1023B000AB090E945792882309F473C0809162038D
:1023C00081111EC020E030E0A90160916703709187
:1023D00068038091690390916A030E94A4960E9409
:1023E00010982091090230910A026217730744F491
:1023F0000E945B2B84E393E00E94352B11E001C027
:1024000010E02091FE0C3091FF0C4091000D509196
:10241000010D6091A8097091A9098091AA09909174
:10242000AB090E94A3966B017C0120E030E0A9017A
:102430000E94049987FF04C0F7FAF094F7F8F0942B
:102440002091050230910602409107025091080246
:10245000C701B6010E94BD9220E030E048E453E499
:102460000E94049918163CF40E945B2B85E193E0CE
:102470000E94352B02C01123A1F08091A8099091F0
:10248000A909A091AA09B091AB098093FE0C909381
:10249000FF0CA093000DB093010D88EA99E00E9413
:1024A000705A2AE037ED43E25CE360910B027091D1
:1024B0000C0280910D0290910E020E94BD926B0160
:1024C0007C016091460270914702072E000C880B38
:1024D000990B0E945E929B01AC01C701B6010E945C
:1024E000BD9269837A838B839C83C12CD12C760126
:1024F0008E010F5F1F4F28EA39E044EA59E060EA95
:1025000079E08CE999E00E94AB4080E1ECE9F9E0E8
:10251000A2EFBCE001900D928A95E1F70C9419208E
:10252000813011F00C9419200E94C42882E50E9489
:10253000B728882309F44EC00E943B286B017C0118
:1025400020E030E0A9010E945792882311F40C94F6
:10255000E5202091F20C3091F30C4091F40C509155
:10256000F50C28A339A34AA35BA38091F60C9091A4
:10257000F70CA091F80CB091F90C8CA39DA3AEA31D
:10258000BFA380909C0990909D09A0909E09B09057
:102590009F094090A0095090A1096090A2097090F5
:1025A000A309A501940168A179A18AA19BA10E9418
:1025B000579281110C942620A30192016CA17DA158
:1025C0008EA19FA10E945792882311F40C94E520BC
:1025D0000C94262089E40E94B728882329F00E94C1
:1025E0003B286B017C0103C0C12CD12C76018AE40D
:1025F0000E94B728882311F40C94EC200E943B28F9
:1026000068A779A78AA79BA720E030E0A901C701A6
:10261000B6010E94579281110C94F92020E030E01D
:10262000A90168A579A58AA59BA50E945792811149
:102630000C94F9200C94E52080E50E94B7288823AB
:1026400029F00E94F7276B017C0103C0C12CD12C1B
:10265000760183E50E94B728882361F00E943B2819
:1026600020E030E04AE754E40E94BD920E941798AF
:102670006B017C010E94605A8091190F811105C085
:1026800060E085E693E00E9485440E940A69C60ED8
:10269000D71EE81EF91E0E940A69DC01CB018C19C5
:1026A0009D09AE09BF09B7FD02C00C9419200E9414
:1026B000612DF1CF80919B098770873011F00C94C8
:1026C000842460E08FE40E94892981110C941920F0
:1026D0000C9484241092A5020C9419208FE080930E
:1026E000A5020C9419200E943B282B013C011330B9
:1026F00049F0D6012D913D914D915C910E94A39698
:102700002B013C01E8A1F9A1208131814281538153
:10271000C301B2010E94A3964B015C012DEB37E38C
:1027200046E855EB0E94049987FD21C02DEB37E365
:1027300046E855E3C501B4010E9457921816BCF053
:102740001F5FF4E0EF0EF11C28A139A12C5F3F4F71
:1027500039A328A334E0C30ED11C143031F1F101A8
:1027600081911F010E94B728882351F3BCCF1330F9
:1027700051F44092FE0C5092FF0C6092000D70924A
:10278000010D01E0DDCFA5019401D7016D917D918F
:102790008D919C910E94A496F7016083718382833E
:1027A0009383812F0E94FE5FCBCF002321F08EEF19
:1027B0009CE00E94705A0E94ED610C9419200E94C6
:1027C000A8860C94192080913A0C90913B0C8F367E
:1027D000910509F4EDC50CF0DCC08032910509F4D7
:1027E00034C30CF07CC08731910509F423C2ECF5A9
:1027F0008231910509F480C66CF497FF02C00C94F5
:10280000F91F823091050CF493C1419709F4F1C18D
:102810000C94F91F8531910509F4FFC10CF001C238
:10282000449711F00C94F91F89E993E00E94352B2D
:1028300082EB9FE00E94C04F8BE1E2EBFFE0DE0104
:10284000119601900D928A95E1F760E070E0CE015B
:1028500001960E94A76CCE0101960E94B4518AE8AD
:1028600093E00E94352B0C9419208B31910509F4CB
:1028700029C23CF48931910509F4FDC10CF4EFC182
:1028800013C28D31910509F478C20CF46EC28E31F9
:10289000910509F479C24F9711F00C94F91F0E9429
:1028A00015646C8F7D8F8E8F9F8FBE016F5F7F4F02
:1028B000CE014C960E94F97D60E0CE0101960E9407
:1028C000C2440E945B2BBE016F5F7F4F8FE094E09C
:1028D0000E94442B8AE00E942E2B0C9419208535EF
:1028E000910509F435C6A4F58D34910509F422C388
:1028F0005CF48B34910509F404C30CF006C38A9789
:1029000009F4E6C20C94F91F8235910509F4E6C575
:10291000ACF48135910511F00C94F91F0E948E6F73
:102920000E9488640E94455C0E94652A68EE73E0FC
:1029300080E090E00E949E290C9419208335910537
:1029400009F4D3C58435910509F4D6C50C94F91F53
:102950008A36910509F4EEC464F48836910509F4C9
:10296000EDC20CF0D1C48C35910509F414C60C9459
:10297000F91F8C36910509F45FC50CF4FCC48D3643
:10298000910509F400C38E36910509F400C50C9435
:10299000F91F8C3D910511F40C94AD1D0CF059C03C
:1029A0008937910509F43EC78CF58337910509F401
:1029B00083C67CF48137910509F443C50CF075C6D4
:1029C00041E060E070E080E694E00E945F2B0C94B0
:1029D00019208637910509F4E8C634F48537910546
:1029E00009F4D3C60C94F91F8737910509F417C76A
:1029F0008837910511F00C94F91F81E08093B80994
:102A00008093B7090E9492620C9419208B3C910527
:102A100009F47CC774F4883C910509F40AC7893C21
:102A2000910509F450C78B39910511F00C94F91FE9
:102A30002FC58D3C910509F499C70CF489C78E3CCC
:102A4000910509F4A6C7833D910509F4C0C70C940C
:102A5000F91F8C3A41E0940711F40C94531F8CF544
:102A60008D32A1E09A0711F40C948A1E94F4823EF0
:102A7000910511F40C942A1E8C32E1E09E0711F4AA
:102A80000C94751E8D3D910511F00C94F91F0C945A
:102A9000D41D8F32F1E09F0711F40C944D1F14F4F4
:102AA0000C94091F803931E0930711F40C94501FE6
:102AB0008A39914011F00C94F91F0E94D8290C9486
:102AC0001920873F51E0950711F40C94C51FB4F409
:102AD000853FB1E09B0711F40C94BC1F14F00C94DB
:102AE000C21F843F914011F00C94F91F0E94572B94
:102AF00089E797E00E94352B0C941920803A23E057
:102B0000920709F4D7C13CF48C30924011F40C9434
:102B1000CD1F0C94F91F873E53E0950711F40C94D8
:102B2000D51F893E934011F40C94E31F0C94F91FB8
:102B300080E50E94B728882329F00E94F7276B01BF
:102B40007C0103C0C12CD12C760183E50E94B728FB
:102B5000882361F00E943B2820E030E04AE754E4FB
:102B60000E94BD920E9417986B017C010E94605ADE
:102B70008091380C9091390C009719F00E94F04820
:102B80000AC06EE673E0CE0101960E946191CE010B
:102B900001960E94F0481091A60283E08093A6025D
:102BA00081E080932209C114D104E104F10431F0E1
:102BB0000E940A69C60ED71EE81EF91E80912209DE
:102BC000882311F40C94A325C114D104E104F10469
:102BD00011F40C949F250E940A69DC01CB018C1929
:102BE0009D09AE09BF09B7FF02C00C949F250C9444
:102BF000A3258091340C84FF02C00C94A8258091F9
:102C0000360C87FF02C00C94A8258091370C837086
:102C100011F00C94A8250C94BF250E94966B0C947F
:102C200019200E94AC6980913111877F8093311106
:102C30000C941920E091380CF091390C8081882394
:102C400029F0803209F410823196F8CF60E080914B
:102C5000380C9091390C0E94096A0C9419200E943A
:102C6000572A882321F00E94366B0E9464640E94D8
:102C700067860C9419208091311182FF03C08B7FED
:102C8000809331118091F10C813089F782E080933B
:102C9000F10C0E940A6960938B0970938C098093F0
:102CA0008D0990938E09E3CF8091311183FD02C08D
:102CB0000C94192083E50E94B72881110C94C92532
:102CC0000C94192083E40E946E28882319F184EB68
:102CD00093E00E94352B80915C0F882391F0BE0118
:102CE0006F5F7F4F89E59FE00E94874E8E010F5FE7
:102CF0001F4FF80181918F01882339F00E942E2BFC
:102D0000F8CF8AEA93E00E94352B8AE00E942E2BAE
:102D10000C9419208091311182FF21C083EC93E043
:102D20000E94352B60912D1170912E1180912F11E1
:102D3000909130114AE00E94BA2B8FE20E942E2B14
:102D40006091291170912A1180912B1190912C1171
:102D50004AE00E94BA2B0E943A2D0C94192085ED6E
:102D600093E00E94352B0C9419208091380C90919F
:102D7000390C0E94BB690C941920809131118E7F0F
:102D8000809331110C9419208091311183FD02C080
:102D90000C9419200E9491868091311183FD02C00C
:102DA0000C9419204091380C5091390CBE01645E8E
:102DB0007F4F80E00E9498838C01009711F40C945F
:102DC00019206C8D7D8D19821C8222E0AC01CE0110
:102DD00001960E94BA51811102C0F12C14C0CE019B
:102DE00001960E9406838823C1F361E0CE0101961B
:102DF0000E942F4E009789F325EEDC012C931C8254
:102E00000E94B749F82ECE0101960E94B451B80134
:102E1000FF2089F081E094E00E94442B8AE00E9428
:102E20002E2B10922D1110922E1110922F11109204
:102E300030110C94192089EE93E00E94442B86EE09
:102E400093E00E94352B0C9419208091311182FD62
:102E50000E94605A8091311183FD02C00C941920A8
:102E600060E080E50E948929182F682F8091380C36
:102E70009091390C0E94096A83E50E94B728882343
:102E800081F00E940728AB01BC0140932D115093A3
:102E90002E1160932F117093301189E59FE00E94ED
:102EA000AA4B0E94366B11110C9419200E94646485
:102EB0000C9419202091380C3091390C90913111DB
:102EC000926090933111C9010E94BB690C94192042
:102ED0006DE070E080E50E9476298C0197FF02C0CA
:102EE0000C941920E82E60E089E40E948929811160
:102EF0000C94DA25802F0E94BD868111C8C60C94DF
:102F0000DA250E9464640C9419208091F10C8130C0
:102F100011F00C94192082E08093F10C0E940A6950
:102F200060938B0970938C0980938D0990938E091F
:102F30000C9419200E9488640C94192080910C082C
:102F400083FF02C00C9419200E94502C87FF02C0FE
:102F50000C94192083E50E94B728882381F00E94F1
:102F60003B280E941098CB010E94BA6E80916B039F
:102F700090916C038635910514F40C9423260E94DD
:102F8000E2860C94192080910C0883FF02C00C94F7
:102F900019200E94502C25968FAF259787FF02C0DD
:102FA0000C94192083E50E94B7288CA3811106C0D8
:102FB00082E50E94B728182F8823B1F10E943B2890
:102FC0000E941098CB010E94BA6E80916B03909181
:102FD0006C038635910514F00C9429260E948864B0
:102FE0000E94678660916B0370916C03072E000C42
:102FF000880B990B0E945E926B017C0180906703A5
:1030000090906803A0906903B0906A03A5019401B1
:103010000E940499181614F40C9447262CA122231C
:1030200011F40C942D2611E00E94E286112311F474
:103030000C94192081E0809342021CA61DA61EA6B6
:103040001FA618AE19AE1AAE1BAE18A629961FAE53
:1030500029973CE32D963FAF2D974CE162964FAFF9
:10306000629756E463965FAF6397D12CE12C10E82A
:10307000F12E0FEB8CAF412C512C320160916B0380
:1030800070916C03072E000C880B990B0E945E92C6
:103090001B0188A3192F2D2D3E2D4F2D502F0E943F
:1030A0005792882311F12091670330916803409172
:1030B000690350916A039CA1B10188A1911108C0D4
:1030C000912F0E945792881F8827881F88A713C0B6
:1030D000912F0E94579287FF0DC080914202882352
:1030E00009F4A7C70E946786A4C72D2C3E2CF8A21E
:1030F000102F01C018A60E940A696B017C01DC0137
:10310000CB0128AD39AD4AAD5BAD821B930BA40B4F
:10311000B50BB7FD35C0D701C60188519C4FAF4FE5
:10312000BF4F88AF99AFAAAFBBAF25968FAD25979C
:103130000E94006F8EE294E00E94352B41145104EE
:1031400061047104B9F0D301C201805F984DAF4FA3
:10315000BF4FBC01CD016C197D098E099F0928EE76
:1031600033E040E050E00E944896CA01B9010E9455
:10317000272C03C08FE30E942E2B8AE00E942E2B67
:103180000E94612D0E940A696093A1027093A202BD
:103190008093A3029093A40220E030E0A901609103
:1031A0006703709168038091690390916A030E949C
:1031B000A49668AB7CAB21968FAF2197092F9B011A
:1031C000482F592FB10188A1912F0E94A3964B013E
:1031D0005C0120E030E0A9010E94049987FF04C04F
:1031E000B7FAB094B7F8B094411451046104710473
:1031F000B1F420E030E040E85FE3C501B4010E9493
:10320000579287FF18C09CAD26013701992399F08A
:10321000A0E14A0EA7E25A1E611C711C0CC020E0FE
:1032200030E040E450E4C501B4010E94049918164E
:1032300014F426013701B8A5BB2309F448C02CA516
:103240003DA54EA55FA5211531054105510541F06C
:10325000D701C601821B930BA40BB50BB7FD37C07A
:1032600028A93CA921964FAD2197502F29966FADE3
:1032700029972D967FAD2D9762968FAD62976396B5
:103280009FAD63970E94A39620E030E040EC5FE39F
:103290000E94579287FD21CFD701C601805A9541E0
:1032A000AF4FBF4F8CA79DA7AEA7BFA798A92996E0
:1032B0009FAF2997ACA92D96AFAF2D972196BFADA3
:1032C00021976296BFAF629763960FAF6397809125
:1032D0004202882309F401CF4114510461047104AE
:1032E00031F41CAED22CE32CF8A0012FC7CEE0E1C4
:1032F000CE1AE7E2DE0AE108F108C418D508E608AC
:10330000F708F7FCEECFE9CE0E94502C182F87FD6E
:103310000AC088E494E00E94352B812F0E94006F40
:103320008AE00E942E2B6196FFAD6197F093A60272
:103330000C94C42780E50E94B686182F833008F0CD
:1033400078C681E40E946E28882321F060914F03A3
:1033500070E002C06FEF70E083E50E947E81E12F94
:10336000F0E0E15BFC4F8F3F910519F010F08FEF1B
:1033700090E080835EC680E50E94B686833008F0C8
:1033800058C6E82FF0E0E15BFC4F108252C68EE495
:103390000E94B728882309F44CC60E94072860932E
:1033A000C10C7093C20C8093C30C9093C40C41C6A3
:1033B00083E50E946E28882329F083E50E94B68663
:1033C00080930C080E945B2B89E594E00E94352BCA
:1033D00080910C08882369F1BFE4EB2EB4E0FB2E4A
:1033E00000E010E020E080910C0890E0A0E0B0E068
:1033F000002E04C0B695A795979587950A94D2F7A5
:1034000080FF0EC0DD24D394D20E222319F08CE26B
:103410000E942E2BF701859194910E94352B2D2D22
:103420000F5F1F4F32E0E30EF11C05301105D9F696
:103430006CCC8BE494E067CC10922209109242028B
:10344000F8C583E50E94B728882371F00E941728E9
:10345000282F30E02D3331051CF480930002E9C59C
:103460008CE380930002E5C50E945B2BC0900002B4
:10347000D12CE12CF12C8EE694E00E94352B4AE011
:10348000C701B6010E94BA2B8AE00E942E2BD1C53B
:1034900083E50E94B728882309F4CBC50E9417282A
:1034A000182F90E0CD970CF01CE310939C020E9423
:1034B0000A696B017C01212F30E0A8EEB3E00E9485
:1034C0009496C60ED71EE81EF91EC0929802D0929E
:1034D0009902E0929A02F0929B02ABC58091A502FC
:1034E0008F7D80618093A502A4C58091A5028F7E07
:1034F00080628093A5029DC583E50E94B72888233A
:1035000099F00E943B2820E030E04AE754E40E9412
:10351000BD920E94179860930102709302028093FB
:1035200003029093040285C58091340C84FF02C08D
:103530000C944A268091360C87FF02C00C944A26D0
:103540008091370C837011F00C944A260C947626E7
:1035500083E50E946E28882309F46BC50E940A69DE
:103560006093A1027093A2028093A3029093A4029D
:103570000E943B2820E030E04AE754E40E94BD92DC
:103580000E94179860939D0270939E0280939F0201
:103590009093A0024EC50E94502C87FD4AC5909181
:1035A000340C94FD04C09091360C97FF0AC0F8E4E7
:1035B000CF2EF2E0DF2EADE0EA2EA8E0FA2E10E0EA
:1035C00009C09091370C937091F7682F81E00E94A9
:1035D000FF2C2FC5D6018D916D010E94B72888233D
:1035E00009F459C0133009F04FC00E943B284B0129
:1035F0005C0120E030E040EA51E40E94579287FFEE
:103600003AC0A501940160912D0870912E08809117
:103610002F08909130080E949E972B013C019B013E
:10362000AC0160913D0870913E0880913F089091F7
:1036300040080E94BD9260933D0870933E088093BD
:103640003F08909340086091470370914803809130
:10365000490390914A030E945C92A30192010E9447
:10366000BD920E941798609347037093480380931C
:10367000490390934A0380922D0890922E08A092BD
:103680002F08B092300807C00E943B28F701648BD6
:10369000758B868B978B1F5FF4E0EF0EF11C143057
:1036A00009F098CF0E94A55BC4C40E94028686EEF2
:1036B0009FE00E947974BDC489E995E00E94352B92
:1036C00060E089E895E00E94918160E084E795E000
:1036D0000E94918160E08DE695E00E94918161E019
:1036E00082E695E00E94918161E082E595E00E948A
:1036F000918160E089E495E00E94918161E08FE32F
:1037000095E00E94918160E085E395E00E949181BF
:1037100060E08DE295E00E94918160E08FE195E0AC
:103720000E94918160E081E195E00E94918160E0DA
:1037300082E095E00E94918160E084EF94E00E9435
:10374000918160E08EED94E00E94918160E08DECCB
:1037500094E00E94918160E08EEB94E00E94918160
:1037600060E089EA94E00E94918161E086E994E05A
:103770000E94918160E089E894E00E94918160E07C
:1037800085E794E00E94918154C48091380C909117
:10379000390C009709F46BCADC012C91222309F43F
:1037A00066CA60E00E94C24444C40091380C109183
:1037B000390C94E0F12C40E0915021F1F801808126
:1037C000282F2B7F213421F421812133D9F407C004
:1037D0008035C1F4818180538A3048F013C0813430
:1037E00021F0853421F441E002C0FF24F3949801D4
:1037F0002E5F3F4F89012F5F3F4FF801808180325C
:10380000C9F3DACF41110E945B2BFF2021F081E642
:1038100096E00E94352BC8010E94402D0AC40E94E8
:10382000766207C41092B8091092B7090E9492629A
:1038300000C40E94502C182F87FDFBC384E40E9413
:103840006E288823E9F10E943B286B017C0101E08E
:1038500020E030E0A9010E945792811101C000E0F0
:103860000093380920E030E0A901C701B6010E94A9
:103870005792882329F124E01202F0011124E35C1D
:10388000F64FC082D182E282F38220E030E0A901CB
:1038900060913D0970913E0980913F0990914009E6
:1038A0000E94579281110CC080E090E0A0E4B0E447
:1038B00080933D0990933E09A0933F09B09340093E
:1038C0000E94805CB6C30E94502C87FDB2C3E8E41E
:1038D000EE2EE2E0FE2E0DE018E0D7018D917D0185
:1038E0000E946E28882359F00E943B280E94179856
:1038F000F80160837183828393830E94195A0C5F5D
:103900001F4FF8E00D311F0741F793C30E94502C61
:1039100087FD8FC368E4E62E62E0F62E0DE018E026
:103920007DE1C72E78E0D72ED7018D917D010E94D1
:103930006E28882339F00E943B28F80164A375A300
:1039400086A397A30C5F1F4FC016D10669F771C3FA
:103950008091350C87FF02C00C9479268091360C3B
:103960008E7011F00C9479260C94BF268091340C43
:1039700081FF02C00C94E7268091350C81FF02C0C4
:103980000C94E7268091360C8C7011F00C94E7268D
:1039900050C35BEBE52E59E0F52E10E088E5810F72
:1039A0000E946E28882359F00E943B28D7016D930E
:1039B0007D938D939C931397812F0E94FE5F1F5FD1
:1039C000B4E0EB0EF11C133049F70C94DB1340907C
:1039D000020D5090030D6090040D7090050D209124
:1039E0002102309122024091230250912402C3010E
:1039F000B2010E94A49668A379A38AA39BA3809096
:103A0000060D9090070DA090080DB090090D209123
:103A10002502309126024091270250912802C501CB
:103A2000B4010E94A4966CA37DA38EA39FA3C09013
:103A30000A0DD0900B0DE0900C0DF0900D0D209123
:103A4000290230912A0240912B0250912C02C70189
:103A5000B6010E94A49668A779A78AA79BA7209180
:103A60002D0230912E0240912F0250913002C3015D
:103A7000B2010E94A4962B013C01209131023091A9
:103A800032024091330250913402C501B4010E94C8
:103A9000A4964B015C012091350230913602409191
:103AA000370250913802C701B6010E94A4966B01FB
:103AB0007C010E945B2B83EB96E00E94352B83E513
:103AC0000E946E28882321F00E942B2880933902BF
:103AD00080913902882319F08BE996E002C087E9CA
:103AE00096E00E94352B8BEA96E00E94352B48A188
:103AF00059A16AA17BA18EE996E00E94EE2C4CA10F
:103B00005DA16EA17FA187E696E10E94EE2C48A5FB
:103B100059A56AA57BA584E696E10E94EE2C89EA68
:103B200096E00E94352B81EA96E00E94352BB30186
:103B3000A2018EE996E00E94EE2CB501A40187E671
:103B400096E10E94EE2CB701A60184E696E10E9460
:103B5000EE2C8AE00E942E2B6CC283E50E94B728CF
:103B6000882331F00E940728709347026093460231
:103B70008091340C9091350CA091360CB091370C9B
:103B8000892B8A2B8B2B09F054C2609146027091CD
:103B9000470283EC96E00E94432C85E20E942E2B84
:103BA0008AE00E942E2B45C20E94502CF82E87FDE1
:103BB00040C283E50E94B7280F2D0F2C000C110B7B
:103BC000882369F10E940728F801EE0FFF1FE15FCB
:103BD000FD4F71836083000F111F000F111FF8014B
:103BE000EB5FFD4F7F01072E000C880B990B0E94A5
:103BF0005E922AE037ED43E25CE30E94BD92F80159
:103C0000E75CF64F20813181428153810E94BD9251
:103C1000D7016D937D938D939C9313970AC20E9455
:103C20005B2B85E40E942E2B80E38F0D0E942E2BB0
:103C3000000F111FF801E15FFD4F6081718187EC7A
:103C400096E00E94432C85E20E942E2B8AE00E947F
:103C50002E2BEFC180E50E946E28882309F4E9C16C
:103C600060E070E080E50E947629F82E6FEF7FEF2C
:103C700083E50E9476298C010196039708F0D9C14B
:103C8000F7FCD7C18F2D0E94BD86882339F00E9492
:103C9000572B8FEC96E00E94352BCBC10E94605AC7
:103CA00060E08F2D0E94CB670F3FBFEF1B0731F005
:103CB0000130110571F000E010E00DC08F2D0E9461
:103CC0005C6631E020E0892B09F030E0032F122FF1
:103CD00002C001E010E08F2D0E945C668017910702
:103CE00009F4A7C10E94612DF6CF64E071E083E57D
:103CF0000E947E818C0168EE73E080E50E947E81E7
:103D00008938E3E19E0710F088E893E1B8010E944A
:103D100058448FC185E40E94B686811173C080E546
:103D20000E946E28882351F00E943B2860936E0306
:103D300070936F03809370039093710389E40E94E2
:103D40006E28882381F00E943B282CEA35EC47E25C
:103D50005EE30E94BD92609372037093730380933D
:103D600074039093750384E40E946E28882381F085
:103D70000E943B282CEA35EC47E25EE30E949E97C6
:103D8000609376037093770380937803909379031D
:103D90000E945B2B40916E0350916F036091700302
:103DA0007091710388EF96E00E94EE2C2CEA35ECBE
:103DB00047E25EE360917203709173038091740334
:103DC000909175030E949E97AB01BC0184EF96E031
:103DD0000E94EE2C2CEA35EC47E25EE3609176031C
:103DE0007091770380917803909179030E94BD923E
:103DF000AB01BC0180EF96E00E94EE2C8AE00E94AD
:103E00002E2B17C10E94572B8EED96E00E94352B6A
:103E100010C183E50E946E28182F882371F00E943C
:103E20003B280E94109870930A026093090221E0D7
:103E3000672B09F020E02093620380E50E946E2842
:103E4000882359F02091090230910A02232B11F0A6
:103E50000E942B2880936203ECC01111EAC00E94DB
:103E60005B2B88E197E00E94352B809162038823C9
:103E700019F080E097E002C08CEF96E00E94352BAD
:103E80006091090270910A0287E097E00E94432C3A
:103E900083E097E00E94352BCCC00E94197AC9C0FC
:103EA0000E94605AC6C090919B0990FD02C087E0B5
:103EB00001C086E091FD8D7F9E012F5F3F4F19016C
:103EC00092FFDEC78B7F11F00C946D270BE317E197
:103ED00042EF5CE059A348A390E9C92E97E1D92E9F
:103EE0007901F8016591759185919491A8A1B9A185
:103EF0008D909D90AD90BD90B9A3A8A3A50194010C
:103F00000E94A3962B013C01F70160837183828399
:103F1000938320E030E040EA51EC0E94049987FD51
:103F20000AC020E030E040EA51E4C301B2010E943F
:103F3000579218162CF4F601849118160CF4D0C779
:103F4000D7018D909D90AD90BD907D0120E030E037
:103F500040EA51ECC501B4010E94049987FDCBC72A
:103F600020E030E040EA51E4C501B4010E945792DC
:103F700018160CF0D2C7BFC70E949D6280E00E9455
:103F80009D6457C00E949D6254C061E083E50E9419
:103F9000892981270E949D644CC08091311182FF44
:103FA00048C080648093311144C081E080934D0B00
:103FB0001092C50C60E083E50E948929811139C007
:103FC0000E94127F36C00E9415646D337105810511
:103FD000910520F082EA97E00E94AB818EE997E09C
:103FE0000E94AB818AE897E00E94352B0E94455CD5
:103FF00020C00E94A8861DC000913A0C10913B0C75
:104000000023B9F00E945B2B84E50E942E2BB8019F
:104010007727072E000C880B990B0E94272C80E233
:104020000E942E2B86EA97E00E94352B02C00E9448
:10403000A8866496FFAD6497F11102C00E94027FCA
:1040400061962FAD61972093A6029EC711E032E0E2
:104050002316310409F010E020E030E0A901C70187
:10406000B6010E945792881F8827881F1813A4C082
:1040700020E030E040E85FE328A739A74AA75BA724
:1040800028A139A14AA15BA1C501B4010E94A39650
:1040900020E030E040E05FE30E94BD9268A379A396
:1040A0008AA39BA32CA13DA14EA15FA1C301B20194
:1040B0000E94A39620E030E040E05FE30E94BD92C2
:1040C0006CA37DA38EA39FA328A139A14AA15BA1C4
:1040D000CA01B9010E94BD924B015C012CA13DA116
:1040E0004EA15FA1CA01B9010E94BD929B01AC0122
:1040F000C501B4010E94A4960E9452994B015C0133
:104100009B01AC01C701B6010E94A3962B013C01A3
:10411000A5019401C701B6010E94A4969B01AC01C0
:10412000C301B2010E94BD926B017C0120E030E02E
:10413000A9010E94049987FD07C0C701B6010E942A
:1041400052992B013C0103C0412C512C32016CA12E
:104150007DA18EA19FA19058A50194010E949E97D8
:1041600028A539A54AA55BA50E94BD92A30192018D
:104170000E94BD9228A139A14AA15BA10E94A496E8
:104180006B017C01A501940168A179A18AA19BA181
:104190000E949E9728A539A54AA55BA50E94BD92BD
:1041A000A30192010E94BD922CA13DA14EA15FA14D
:1041B0000E94A4960C94001380E090E0A0E8BFEB6E
:1041C00088A799A7AAA7BBA75BCF0E94572B8FE40C
:1041D00093E00E94352B2DCF20E030E0A901C701EC
:1041E000B6010E945792882381F318A619A61AA631
:1041F0001BA6A7019601505828A339A34AA35BA385
:1042000088A599A5AAA5BBA5B0588CA39DA3AEA3CC
:10421000BFA3CA01B9010E94BD924B015C012CA150
:104220003DA14EA15FA1CA01B9010E94BD929B01AF
:10423000AC01C501B4010E94A4960E9452996CAFD2
:104240007DAF8EAF9FAF2091F20C3091F30C409177
:10425000F40C5091F50C2CA73DA74EA75FA7A70122
:1042600096016CA57DA58EA59FA50E94A496249677
:104270006CAF7DAF8EAF9FAF24978091F60C90917D
:10428000F70CA091F80CB091F90C88AB99ABAAABE4
:10429000BBAB28A539A54AA55BA5BC01CD010E94F1
:1042A000A49628966CAF7DAF8EAF9FAF28972091D4
:1042B0009C0930919D0940919E0950919F092CAB1A
:1042C0003DAB4EAB5FAB24962CAD3DAD4EAD5FAD7F
:1042D00024976CA97DA98EA99FA90E94A3966B0122
:1042E0007C018091A0099091A109A091A209B091AF
:1042F000A30988AF99AFAAAFBBAF28962CAD3DAD4F
:104300004EAD5FAD2897BC01CD010E94A3964B0135
:104310005C01A701960168A179A18AA19BA10E94D5
:10432000BD922B013C01A50194016CA17DA18EA140
:104330009FA10E94BD929B01AC01C301B2010E94EA
:10434000A4962B013C01A501940168A179A18AA141
:104350009BA10E94BD924B015C01A70196016CA13B
:104360007DA18EA19FA10E94BD929B01AC01C501C0
:10437000B4010E94A396A30192010E9423976B01AE
:104380007C0120E030E0A9010E94579287FF0AC01B
:104390002BED3FE049EC50E4C701B6010E94A49622
:1043A0006B017C012BED3FE049EC50E4C701B60105
:1043B0000E949E9720E030E040EC51E40E94BD92C4
:1043C0000E9482970E9417988B01672B11F401E0DD
:1043D00010E032E02316310451F42BED3FE049ECBC
:1043E00050E4C701B6010E94A3966B017C0120E056
:1043F00030E0A901C701B6010E945792811122C085
:104400002CA93DA94EA95FA96CA57DA58EA59FA548
:104410000E945792811116C028AD39AD4AAD5BADEF
:1044200068A979A98AA99BA90E94579281110AC0FB
:1044300008E110E04BEDC42E4FE0D42E49ECE42E01
:1044400040E4F42E8091FA0C9091FB0CA091FC0CAE
:10445000B091FD0C88AB99ABAAABBBAB9C01AD0195
:104460006091A4097091A5098091A6099091A7096E
:104470000E94A3962B013C01A70196016CAD7DAD76
:104480008EAD9FAD0E94BD924B015C0120E030E0FB
:10449000A901C301B2010E9457928823C9F0A50166
:1044A0009401C501B4010E94BD924B015C01A301BE
:1044B0009201C301B2010E94BD929B01AC01C501F2
:1044C000B4010E94A4960E9452994B015C010DC058
:1044D00020E030E0A901C501B4010E94049987FFE2
:1044E00004C0B7FAB094B7F8B0942FE632E143E8CD
:1044F0005AE3C501B4010E94579287FDFAC1209189
:10450000A8093091A9094091AA095091AB0928AF97
:1045100039AF4AAF5BAF8091FE0C9091FF0CA09138
:10452000000DB091010D8CAB9DABAEABBFAB2AE0E3
:1045300037ED43E25CE360910B0270910C028091D5
:104540000D0290910E020E94BD926CA77DA78EA7CE
:104550009FA76091460270914702072E000C880BBE
:10456000990B0E945E929B01AC016CA57DA58EA566
:104570009FA50E94BD926C8F7D8F8E8F9F8FC501EE
:10458000B4010E9446980E9417981B01601771079A
:1045900008F41801B10180E090E00E945C924B01A8
:1045A0005C019B01AC01C701B6010E949E976CA7FC
:1045B0007DA78EA79FA7A5019401C301B2010E9408
:1045C0009E972C966CAF7DAF8EAF9FAF2C972CA98A
:1045D0003DA94EA95FA968AD79AD8AAD9BAD0E949A
:1045E000A396A50194010E949E9760966CAF7DAF43
:1045F0008EAF9FAF60972CA53DA54EA55FA5CA01C4
:10460000B9010E94BD9220E030E040E05FE30E94EB
:10461000BD929B01AC0160E070E080E89FE30E94E6
:10462000A39668AF79AF8AAF9BAF28A939A94AA9E9
:104630005BA929873A874B875C878CA99DA9AEA97E
:10464000BFA98D879E87AF87B88B0E940A699B019F
:10465000AC0128533F4F4F4F5F4F2CAF3DAF4EAF94
:104660005FAF48A059A06AA07BA041E050E059ABE1
:1046700048AB59E15CAB88A999A98215930508F06C
:104680000FC10E9491710E940A69DC01CB012CAD1F
:104690003DAD4EAD5FAD821B930BA40BB50BB7FDCB
:1046A0000EC00E940A699B01AC0128533F4F4F4F37
:1046B0005F4F2CAF3DAF4EAF5FAF0E94612D3CA965
:1046C00031503CAB3323E9F12CA13DA14EA15FA1B8
:1046D00068AD79AD8AAD9BAD0E94BD926B017C0146
:1046E0009201A3016CA57DA58EA59FA50E94BD92F8
:1046F000A70196010E94A4967B018C019201A3015F
:1047000068AD79AD8AAD9BAD0E94BD924B015C0155
:104710002CA13DA14EA15FA16CA57DA58EA59FA555
:104720000E94BD929B01AC01C501B4010E94A396F9
:104730002B013C01C701D8018CA39DA3AEA3BFA34D
:104740004FC048A959A9BA0180E090E00E945C924C
:104750002CA53DA54EA55FA50E94BD924B015C0115
:104760000E9499976B017C01C501B4010E94449994
:104770004B015C01A701960168A179A18AA19BA1C7
:104780000E94BD922B013C0128A539A54AA55BA535
:10479000C501B4010E94BD92A30192010E94A4969A
:1047A0002B013C01A501940168A179A18AA19BA1DB
:1047B0000E94BD924B015C0128A539A54AA55BA5C5
:1047C000C701B6010E94BD929B01AC01C501B401B5
:1047D0000E94A3966CA37DA38EA39FA359E15CAB1B
:1047E0009201A30124966CAD7DAD8EAD9FAD249753
:1047F0000E94A49669837A838B839C832CA13DA11C
:104800004EA15FA128966CAD7DAD8EAD9FAD289772
:104810000E94A4966D837E838F8398872C962CADFF
:104820003DAD4EAD5FAD2C9769857A858B859C85B6
:104830000E94A49669877A878B879C8760962CADA7
:104840003DAD4EAD5FAD60976D857E858F85988956
:104850000E94A4966D877E878F87988BCE010196E4
:104860000E941E60C12CD12C30E8E32E3FE3F32ED2
:104870008E01045E1F4F9E01235F3F4FAE01475FD5
:104880005F4FBE016B5F7F4FCE0101960E94AB4030
:10489000882331F088A999A9019699AB88ABEBCE12
:1048A00080E1ECE9F9E0DE01119601900D928A9524
:1048B000E1F7CE0101960E941E60C12CD12C760139
:1048C0008E01045E1F4F9E01235F3F4FAE01475F85
:1048D0005F4FBE016B5F7F4FCE0101960E94AB40E0
:1048E00080E1FE013196A2EFBCE001900D928A9525
:1048F000E1F70E940A696093A1027093A20280937B
:10490000A3029093A40295CB0E94605A80910B025F
:1049100090910C02A0910D02B0910E028093A90219
:104920009093AA02A093AB02B093AC02809146028E
:10493000909147029093A8028093A70284E690E0AA
:10494000909347028093460281E08093B8090E94C9
:10495000926288E50E946E28182F89E50E946E28D1
:10496000082F8AE50E946E281013E7C0181711F06F
:10497000012FE3C001E011E03324339480E1E2EF42
:10498000FCE0ACE9B9E001900D928A95E1F782E58F
:104990000E94B728882369F00E943B286B017C01A4
:1049A00020E030E0A9010E945792882309F495C0C5
:1049B00006C0C12CD12C20EAE22E20E4F22E1111E7
:1049C00003C0002309F493C08091BA0982FD09C095
:1049D0006091FA0C7091FB0C8091FC0C9091FD0C95
:1049E00003C060E070E0CB01A70196010E94A4968D
:1049F0002B013C016093A4097093A5098093A6093B
:104A00009093A7092091FA0C3091FB0C4091FC0C7B
:104A10005091FD0C0E94049918160CF05EC0809015
:104A2000F20C9090F30CA090F40CB090F50CC090A8
:104A3000F60CD090F70CE090F80CF090F90CEFE445
:104A4000F7E185919591A591B4918C8F9D8FAE8F53
:104A5000BF8F85E595E5A5E0B3E489839A83AB83B1
:104A6000BC834092FA0C5092FB0C6092FC0C70924A
:104A7000FD0CCE014C960E94BF608092F20C909289
:104A8000F30CA092F40CB092F50CC092F60CD092FC
:104A9000F70CE092F80CF092F90CCE0101960E940E
:104AA000BF602091FA0C3091FB0C4091FC0C5091AE
:104AB000FD0CC301B2010E94579287FF0CC04092C7
:104AC000FA0C5092FB0C6092FC0C7092FD0CCE0123
:104AD0004C960E94BF600E94605A112319F080E03A
:104AE0000E941C61002319F081E00E941C613320A8
:104AF00019F082E00E941C610E94DA608091B7097F
:104B00008093B8098091A9029091AA02A091AB026A
:104B1000B091AC0280930B0290930C02A0930D0213
:104B2000B0930E028091A7029091A8029093470241
:104B3000809346020E94ED617CCA382E1FCF0E94EE
:104B4000612D0C94DE15109222091093A60271CAF1
:104B500088E50E946E2881115F9889E50E946E2881
:104B600081118A988AE50E946E2881118C9885E4CB
:104B70000E946E28882309F45CCA12985ACA60E021
:104B800081E893E00E9485445F988A988C981298F7
:104B900050CA0E940728AB01BC0140932D115093CD
:104BA0002E1160932F117093301189E59FE00E94C0
:104BB000AA4B3FCA8DE40E94B7288823D9F00E94EF
:104BC0001728813069F038F0823079F462E0802F64
:104BD0000E94CB672ECA60E0802F0E94CB6729CA53
:104BE00061E0802F0E94CB6724CA8CE194E00E9490
:104BF000352B1FCA83E50E94B728882309F419CAF8
:104C00000E941728F82EBDE2EB1649F0EEE2EE16F0
:104C100049F0FCE2EF1209C080934F030ACA809367
:104C2000500307CA8093510304CA61E0802F0E9499
:104C3000CB676F2D802F0E9485666F2D70E0802FCF
:104C40000E940768F6C90E9488640E9467860C94D7
:104C5000BF170E9464640C94F217A5019401C70168
:104C6000B6010E940499181694F082E394E09F9391
:104C70008F9380EC91E29F938F931F920E94958D6A
:104C80000F900F900F900F900F900C9413188DE3CE
:104C900094E0EDCF0E94605A88E50E946E28882338
:104CA00031F05F9A8091BA098E7F8093BA0989E5C5
:104CB0000E946E28882331F08A9A8091BA098D7FEC
:104CC0008093BA098AE50E946E28882331F08C9A75
:104CD0008091BA098B7F8093BA0985E40E946E287F
:104CE000882309F4A6C90E94C229A3C90E94455C71
:104CF000A0C983E50E94B728882391F00E943B2831
:104D0000609341087093420880934308909344084D
:104D10006093490870934A0880934B0890934C081D
:104D200080E50E94B728882351F00E943B286093B9
:104D3000410870934208809343089093440882E5A9
:104D40000E94B728882351F00E943B2860934508B1
:104D500070934608809347089093480884E50E9422
:104D6000B728882309F465C90E943B286093490845
:104D700070934A0880934B0890934C085AC940910D
:104D8000410850914208609143087091440888E6B8
:104D900096E00E94EE2C40914508509146086091A3
:104DA00047087091480885E696E00E94EE2C4091F5
:104DB000490850914A0860914B0870914C088FED5A
:104DC00095E10E94EE2C8AE00E942E2B32C982E4EB
:104DD0000E946E28882351F00E94F72760931D08D7
:104DE00070931E0880931F089093200883E50E940B
:104DF0006E28882351F00E943B2860934D087093E1
:104E00004E0880934F089093500884E50E946E28C6
:104E1000882351F00E943B286093510870935208F8
:104E200080935308909354088AE40E946E28882344
:104E300009F4FFC80E943B286B017C012AE037ED92
:104E400043E25CE30E94049987FD13C02AE939E933
:104E500049E95EE3C701B6010E94579218164CF06B
:104E6000C0923703D0923803E0923903F0923A03AC
:104E7000E0C80E94572B88E796E00E94352BD9C8DE
:104E800028E632E081FF03C04AE652E002C046E96C
:104E900052E080FF03C08FE792E002C086E992E013
:104EA0003F932F935F934F939F938F938BE297E062
:104EB0009F938F933F922F920E94EF910E945B2BC2
:104EC000C1010E94402D60E0C1010E94C2440FB6A2
:104ED000F894DEBF0FBECDBFACC826E932E0D2CF1A
:104EE000B7FAB094B7F8B094D7018D929D92AD9275
:104EF000BC92139725C80E94572B8BE597E00E9420
:104F0000352B61E08DE497E00E94854468E270E013
:104F100088EC90E00E9458448CC80C5F1F4FBFEF94
:104F2000CB1ADB0AE7E4F7E1E017F10711F00C9484
:104F3000711F8BEBE82E89E0F82E10E0F1018191D2
:104F40009191A191B1911F01F70181939193A19347
:104F5000B1937F01812F0E94FE5F1F5F133071F7B5
:104F60000E94ED6160E08DE397E00E94854463E973
:104F700072E084E690E00E9458446AEB72E084E6B6
:104F800090E00E94584455C8CD5ADF4F0FB6F894B0
:104F9000DEBF0FBECDBFDF91CF911F910F91FF906C
:104FA000EF90DF90CF90BF90AF909F908F907F90C9
:104FB0006F905F904F903F902F900895282F809191
:104FC000A502233021F485FD0EC084FD0EC090E0C3
:104FD000A0E0B0E004C0B695A795979587952A956F
:104FE000D2F78170089581E0089580E0089580915E
:104FF000350390913603009731F04AE050E060E0CD
:1050000070E00C94379060E070E0CB0108958091DF
:10501000350390913603009731F04AE050E060E0AC
:1050200070E00C94098F60E070E0CB0108950E945D
:10503000072897FD0CC00E9407286F3F7105810566
:10504000910509F034F40E940728862F089580E026
:1050500008958FEF08958091350390913603892B41
:1050600039F00E94172891E0811103C090E001C03F
:1050700091E0892F08950F931F93CF93809135036B
:10508000909136030097F1F0FC018F01C1912C2F14
:105090002F7D89F0C53411F0C536B9F7F8011082BB
:1050A00060E070E00E94AD8DF801C083562F472F5D
:1050B000382F292F0BC060E070E0CF911F910F9126
:1050C0000C94AD8D50E040E030E020E0652F742F6F
:1050D000832F922FCF911F910F91089581548A3180
:1050E00008F042C0E82FF0E04091340C5091350CAC
:1050F0006091360C7091370C04C076956795579582
:1051000047958A95D2F7842F817040FF2FC0E65EC5
:10511000F34F9081992309F1E091C70CF091C80CED
:10512000E90FF11D908120ED290F2A3098F09E3271
:1051300011F491810CC09D3211F09B3271F4918178
:1051400020ED290F2A3030F09E3239F492819053AD
:105150009A3018F42E2F9F2F02C020E090E0209369
:10516000350390933603089580E0089508950E94D2
:105170006E28882341F081E0209135033091360379
:10518000232B09F480E008958F929F92AF92BF92F3
:10519000CF92DF92EF92FF920F931F93CF938CE900
:1051A000E82E89E0F82E02EF1CE092E0C92E9DE087
:1051B000D92EC0E088E58C0F0E94B728882311F112
:1051C0000E943B284B015C018C2F0E94DE27882324
:1051D00051F0F8012081318142815381C501B40130
:1051E0000E94A49609C0F601208131814281538139
:1051F000C501B4010E94A396F70160837183828385
:1052000093830AC0F80180819181A281B381F70163
:1052100080839183A283B383CF5FF4E0EF0EF11C10
:105220000C5F1F4F84E0C80ED11CC33019F685E413
:105230000E94B728882301F10E943B286B017C0162
:1052400083E00E94DE27882371F02091FE0C3091CC
:10525000FF0C4091000D5091010DC701B6010E9455
:10526000A4966B017C01C092A809D092A909E09292
:10527000AA09F092AB0910C08091FE0C9091FF0C2E
:10528000A091000DB091010D8093A8099093A909F8
:10529000A093AA09B093AB0986E40E94B72888239B
:1052A000C9F00E943B2820E030E0A9010E94049947
:1052B000181684F40E943B2820E030E040E752E4D6
:1052C0000E949E9760930B0270930C0280930D02D4
:1052D00090930E02CF911F910F91FF90EF90DF906E
:1052E000CF90BF90AF909F908F900895CF93DF9312
:1052F000D62FC72F0E94B728882329F00E9407289D
:10530000262F972F02C02D2F9C2F822FDF91CF9118
:105310000895CF93DF93C82FD62F0E94B7288823F4
:1053200021F0DF91CF910C942B288C2F0E946E28B6
:10533000811101C08D2FDF91CF910895CF92DF921F
:10534000EF92FF926B017C0183E3C816D104E10464
:10535000F10470F082E3C81AD108E108F10862E3B1
:1053600070E080E090E00E94D0680E949171ECCFE4
:10537000C701B6010E94D068FF90EF90DF90CF90F8
:105380000C949171129A08955F9A8091BA098E7F58
:105390008093BA098A9A8091BA098D7F8093BA095D
:1053A0008C9A8091BA098B7F8093BA090C94C22998
:1053B0004F925F926F927F928F929F92AF92BF9225
:1053C000CF92DF92EF92FF920E94EB5F9091D10F0C
:1053D0009093D00F9093CF0F9093CE0F94E690932D
:1053E000CD0F28EE33E030930B0820930A0881118B
:1053F0000E94F85F81E08093C70B0E94605A81E0B1
:105400000E941B5C4B015C0180E00E941B5C2B0135
:105410003C016093B3027093B4028093B502909301
:10542000B6028092B7029092B802A092B902B092EE
:10543000BA0282E00E941B5C6B017C016093BB029C
:105440007093BC028093BD029093BE0283E00E94E1
:105450001B5C4092F20C5092F30C6092F40C709230
:10546000F50C8092F60C9092F70CA092F80CB0928A
:10547000F90CC092FA0CD092FB0CE092FC0CF0926A
:10548000FD0C6093FE0C7093FF0C8093000D9093C5
:10549000010DFF90EF90DF90CF90BF90AF909F9065
:1054A0008F907F906F905F904F900C94DA60909106
:1054B000311193FB882780F993FF06C081E090911A
:1054C0005C0F911101C080E00895EFE4F3E01082D9
:1054D0001182128208959091D10095FD04C090919F
:1054E000D00095FD40C0209166082F5F2F720FB647
:1054F00007FC26C090916708291327C09091D0001F
:1055000095FF1DC09091670840916608941791F02F
:10551000E92FF0E0EA59F74F32819F5F9F72309395
:10552000D600909367083091D00030643093D0005B
:10553000491305C09091D1009F7D9093D100DACF9F
:1055400090916708291301C0FBCFE0916608F0E055
:10555000EA59F74F8283209366088091D1008062D8
:105560008093D10008958093D6008091D00080640C
:105570008093D000089580919F089091A00898177B
:1055800059F0E92FF0E0E156F74F82819F5F9F7756
:105590009093A00890E008958FEF9FEF08951F92D9
:1055A0000F920FB60F9211240BB60F922F938F9379
:1055B0009F93EF93FF93809167082091660882176D
:1055C00091F0E82FF0E0EA59F74F92818F5F8F72E8
:1055D0009093D600809367089091D0009064909348
:1055E000D000281305C08091D1008F7D8093D10019
:1055F000FF91EF919F918F912F910F900BBE0F9084
:105600000FBE0F901F9018951F920F920FB60F921A
:1056100011240BB60F922F938F939F93EF93FF93C9
:105620002091A008E0919F0881E08E0F8F779091E4
:10563000D600281729F0F0E0E156F74F9283E82FC3
:10564000E0939F08FF91EF919F918F912F910F9081
:105650000BBE0F900FBE0F901F9018959091C00039
:1056600095FFFCCF8093C6000895CF93DF93FC0194
:105670008491EF012196882321F00E942E2BFE01B8
:10568000F7CFDF91CF9108950F931F93CF93DF93BF
:105690008B010E94352BE8018991882319F00E9423
:1056A0002E2BFACFDF91CF911F910F91089588EFA4
:1056B00099E00C94352B82EF99E00C94352B0F93E5
:1056C0001F93CF93DF93EC01142F0E948E6F0E94E3
:1056D000572B82ED99E00E94352B209711F0BE01E7
:1056E00002C069EC79E08091340380FF04C089EE48
:1056F00093E030E615C081608093340301E02DEA29
:1057000039E049E45BE08AEB99E00E94548260E072
:105710008AEF0E94EB450E949F478823E1F3E7CF81
:10572000019729F0232F2A950000E9F7F9CFF89483
:1057300089EE93E038EE019729F0232F2A95000097
:10574000E9F7F9CF0E948E6F112319F00E94C42946
:1057500002C00E94C229909902C0A895FCCF909BDC
:1057600002C0A895FCCFE0E0F0E0DF91CF911F915F
:105770000F9119948F929F92AF92BF92EF92FF92E6
:105780000F931F93CF93DF93CDB7DEB7A0970FB6DC
:10579000F894DEBF0FBECDBF61157105810591057F
:1057A00091F100E0842E912CA12CB12C102FEE242D
:1057B000E394F12CEC0EFD1EE00EF11C07FDFA94B3
:1057C000A50194010E944896F7016083B901CA01BE
:1057D0000F5F611571058105910541F71F3F31F19B
:1057E000E1E0F0E0EC0FFD1FE10FF11D17FDFA9570
:1057F00080818A3010F097E301C090E3890F0E9406
:105800002E2B1150EBCF80E3A0960FB6F894DEBF9D
:105810000FBECDBFDF91CF911F910F91FF90EF9001
:10582000BF90AF909F908F900C942E2BA0960FB6A8
:10583000F894DEBF0FBECDBFDF91CF911F910F91C6
:10584000FF90EF90BF90AF909F908F900895CF9270
:10585000DF92EF92FF926B017C0197FF0BC08DE20C
:105860000E942E2BF094E094D094C094C11CD11CC3
:10587000E11CF11C4AE0C701B601FF90EF90DF90F8
:10588000CF900C94BA2BCF93DF93EB010E94352B72
:10589000BE01DD0F880B990BDF91CF910C94272C63
:1058A000CF9384E50E94B728882301F10E9417282E
:1058B000C82F1816E4F40E945B2B8DE40E942E2B57
:1058C00060913A0C70913B0C072E000C880B990BE1
:1058D0000E94272C6C2FCC0F770B86E09AE00E9459
:1058E000432C8AE00E942E2B8FEF01C080E0CF91E5
:1058F00008958F929F92AF92BF92CF92DF92EF92D4
:10590000FF92CF936B017C01B42E20E030E0A9011F
:105910000E94579287FF07C08DE20E942E2BF7FA54
:10592000F094F7F8F094C0E060E070E080E09FE36E
:10593000CB1541F02DEC3CEC4CEC5DE30E94BD92AC
:10594000CF5FF6CF9B01AC01C701B6010E94A496C0
:105950006B017C010E9417984B015C014AE00E9498
:10596000BA2BCC2389F1C501B4010E945C929B0142
:10597000AC01C701B6010E94A3966B017C018EE2C7
:105980000E942E2B20E030E040E251E4C701B60136
:105990000E94BD924B015C010E9410986B01770F31
:1059A000EE08FF08C701B6010E94272CC701B60107
:1059B0000E945E929B01AC01C501B4010E94A396B6
:1059C0006B017C01C150F1F6CF91FF90EF90DF9019
:1059D000CF90BF90AF909F908F900895CF92DF921D
:1059E000EF92FF926A017B010E94352B42E0C701D2
:1059F000B601FF90EF90DF90CF900C94792C882324
:105A000019F00E945B2B03C080E20E942E2B409174
:105A100021085091220860912308709124088FEF8B
:105A200099E00E94EE2C4091250850912608609143
:105A300027087091280887E696E10E94EE2C409195
:105A4000290850912A0860912B0870912C0884E64F
:105A500096E10E94EE2C40912D0850912E08609105
:105A60002F087091300881E696E10E94EE2C8AE0C2
:105A70000C942E2B8DE00E942E2B8AE00C942E2B62
:105A8000CF93DF93EC018991882319F00E942E2B8C
:105A9000FACFDF91CF910C943A2D80913D0C9091EB
:105AA0003E0C981759F0E92FF0E0E35CF34F828148
:105AB0009F5F9F7790933E0C90E008958FEF9FEF4C
:105AC00008952F923F924F925F926F927F928F92A2
:105AD0009F92AF92BF92CF92DF92EF92FF920F937D
