:100000000C94F8130C9438140C9438140C94381481
:100010000C9438140C9438140C9438140C94381430
:100020000C9438140C946A280C946A280C946A284E
:100030000C9438140C9438140C9438140C94381410
:100040000C9438140C9472320C9438140C943814A8
:100050000C9438140C940E320C9438140C947B2DA0
:100060000C9438140C9456830C944C830C943814D0
:100070000C9438140C9438140C9438140C943814D0
:100080000C9438140C9438140C9438140C943814C0
:100090000C9438140C9438140C9438140C943814B0
:1000A0000C9438140C9438140C9438140C943814A0
:1000B0000C9438140C9438140C9438140C94381490
:1000C0000C9438140C9438140C9438140C94381480
:1000D0000C9438140C9438140C9438140C94381470
:1000E0000C943814084AD73B3BCE016E84BCBFFD4C
:1000F000C12F3D6C74319ABD56833DDA3D00C77FF8
:1001000011BED9E4BB4C3E916BAAAABE0000008090
:100110003F05A84CCDB2D44EB93836A9020C50B91F
:10012000918688083CA6AAAA2ABE000000803F004B
:100130004E414E494E495459494E46CDCCCC3D0ACC
:10014000D7233C17B7D13877CC2B329595E6241FAF
:10015000B14F0A000020410000C84200401C462068
:10016000BCBE4CCA1B0E5AAEC59D744142530050D2
:100170004C4100506C656173652052657365740075
:100180005052494E5445522048414C544544002554
:10019000533A202553004B494C4C45442E200050E7
:1001A00072696E7465722068616C7465642E206B70
:1001B000696C6C28292063616C6C6564210A0000FD
:1001C0006563686F3A004572726F723A004C4F5720
:1001D0000048494748004F4B004572726F723A2001
:1001E000416C6C200020636F6E6E656374696F6E86
:1001F0002E2E2E200054657374696E6720004C4FBC
:10020000570048494748004F4B004572726F723A99
:1002100020416C6C200020636F6E6E656374696FA3
:100220006E2E2E2E200054657374696E6720004C6C
:100230004F570048494748004F4B004572726F7254
:100240003A20416C6C200020636F6E6E65637469A8
:100250006F6E2E2E2E200054657374696E67200019
:100260004C4F570048494748004F4B004572726F4A
:10027000723A20416C6C200020636F6E6E6563746F
:10028000696F6E2E2E2E200054657374696E672080
:1002900000544D4320434F4E4E454354494F4E204A
:1002A0004552524F520020440020204D3230302021
:1002B0005300202844697361626C6564293A0046E2
:1002C000696C616D656E742073657474696E6773B3
:1002D0000020204D3230312058004D61782041639C
:1002E00063656C65726174696F6E2028756E6974E0
:1002F000732F7332290020204D3230332058004DA7
:100300006178206665656472617465732028756E16
:100310006974732F73290020520020204D3230342D
:10032000205000416363656C65726174696F6E2073
:1003300028756E6974732F7332292028503C7072AF
:10034000696E742D616363656C3E20523C72657406
:10035000726163742D616363656C3E20543C7472FA
:100360006176656C2D616363656C3E2900204A00EF
:1003700020540020530020204D32303520420041CF
:100380006476616E6365642028423C6D696E5F73BC
:1003900065676D656E745F74696D655F75733E202A
:1003A000533C6D696E5F66656564726174653E207D
:1003B000543C6D696E5F74726176656C5F666565ED
:1003C00064726174653E204A3C6A756E635F646561
:1003D000763E290020440020490020204D33303152
:1003E000205000486F74656E6420504944003B20E3
:1003F0000020496E76616C6964206578747275645A
:100400006572200020204D323036205800486F6D34
:1004100065206F6666736574004361703A0020570B
:100420003A00436F6F6C696E672E2E2E00453120A7
:1004300025530020573A0042656420436F6F6C6972
:100440006E672E2E2E004265642048656174696EC9
:10045000672E2E2E00206661696C65642120426142
:1004600064206865617465722069640A00504944BB
:10047000204175746F74756E650023646566696EDE
:10048000652044454641554C545F004B6420004B69
:100490006920004B7020002066696E69736865648E
:1004A000212050757420746865206C617374204B32
:1004B000702C204B6920616E64204B6420636F6E4A
:1004C0007374616E74732066726F6D2062656C6FF9
:1004D0007720696E746F20436F6E6669677572610D
:1004E00074696F6E2E680A00504944204175746F1C
:1004F00074756E6500206661696C6564212074699D
:100500006D656F75740A00504944204175746F74AD
:10051000756E6500206661696C6564212054656DA7
:10052000706572617475726520746F6F2068696799
:10053000680A00504944204175746F74756E6500F7
:10054000504944204379636C657300255320256925
:100550002F256900204B643A2000204B693A200087
:10056000204B703A200020436C6173736963205004
:100570004944200A002054753A2000204B753A2047
:1005800000206D61783A2000206D696E3A200020CD
:10059000643A200020626961733A20004865617402
:1005A000696E672E2E2E002073746172740A0050DB
:1005B0004944204175746F74756E650020666169E9
:1005C0006C6564212054656D706572617475726527
:1005D00020746F6F20686967680A005049442041A1
:1005E00075746F74756E6500504944204175746F61
:1005F00074756E65004572723A20757466382066AF
:100600006F6E74206E6F7420696E697469616C69B5
:100610007A65642E004572723A20757466382066D9
:100620006F6E74206E6F7420696E697469616C6995
:100630007A65642E004572723A20757466382066B9
:100640006F6E74206E6F7420696E697469616C6975
:100650007A65642E0042656400456E636C6F737545
:100660007265002020202020202000202020200053
:10067000657272001FE02010201020101020102042
:100680002010201030300840048003001FE03FF0AD
:100690003FF03FF01FE01FE03FF03FF03FF00FC0A2
:1006A000078003003FFFF038007030FC3020FC1062
:1006B0002078102030102C00D02E31D02F7BD02F5E
:1006C0007BD02E31D02C00D020301020781020FC90
:1006D0001030FC303800703FFFF03FFFF038007002
:1006E0003186302387102787902F87D02F03D02083
:1006F00030102078102078102030102F03D02F8752
:10070000D02787902387103186303800703FFFF064
:100710001FFFF81FFFF80410400208200208200401
:100720001040082080104100104100082080041073
:10073000400000001FFFF81FFFF846696C2E2044A0
:1007400069612E004520696E206D6D5E33002008C2
:100750002046616374002008204D61780020082045
:100760004D696E004F6666004F6E004175746F7480
:10077000656D70004D696E2054726176656C205312
:1007800070656564004D696E2056656C6F636974B1
:1007900079004D61782040205370656564004D619B
:1007A00078204520416363656C004D6178204020CE
:1007B000416363656C0054726176656C20416363CC
:1007C000656C005265747261637420416363656C8B
:1007D00000416363656C00402073746570732F6D16
:1007E0006D00416476616E6365642053657474695D
:1007F0006E6773004D3432380046696C616D656E0A
:10080000740054656D706572617475726500544D45
:100810004320447269766572730053746570732F58
:100820006D6D004A756E6374696F6E204465760065
:10083000416363656C65726174696F6E004D6178C8
:1008400020537065656420286D6D2F7329005365F2
:100850007420486F6D65204F66667365747300433E
:100860006F6E66696775726174696F6E0042656468
:10087000004E6F7A7A6C650046616E205370656534
:100880006400436F6E66696775726174696F6E00AC
:10089000526573746F72652044656661756C74731C
:1008A0000050726568656174202420436F6E660095
:1008B000416476616E6365642053657474696E6724
:1008C00073004D61696E00436F6E66696775726192
:1008D00074696F6E0054656D7065726174757265D0
:1008E000004D6F74696F6E0054756E6500496E66D9
:1008F0006F2053637265656E002100486F74656EEA
:100900006420746F6F20636F6C64004261636B00DE
:1009100050726F63656564004D6F7665204578742D
:100920007275646572004D6F74696F6E004469730F
:1009300061626C65205374657070657273004D3828
:1009400034004175746F20486F6D65004732380080
:100950004D61696E005072656865617420242042A3
:1009600065640050726568656174202420456E647A
:100970000054656D7065726174757265006F016B0E
:1009800001436F6F6C646F776E00507265686561CC
:100990007420240046616E205370656564207E00DB
:1009A000426564004E6F7A7A6C65004D61696E0035
:1009B0004531005A00590058004531005A0059008D
:1009C0004F6666004F6E005800544D4320447269D4
:1009D0007665727300537465616C746843686F70F8
:1009E00020456E61626C6564005374657070696E59
:1009F00067204D6F646500447269766572204375A7
:100A00007272656E7400416476616E636564205332
:100A1000657474696E677300466C6F770046616E2B
:100A2000205370656564207E00426564004E6F7AD5
:100A30007A6C65005370656564004D61696E006F86
:100A400070656E00545249474745524544003A206C
:100A5000007A5F6D696E00795F6D696E00785F6D19
:100A6000696E005265706F7274696E6720656E649E
:100A700073746F70207374617475730A00576172B8
:100A80006E696E673A20486F6D696E672042756DBA
:100A9000702044697669736F72203C20310A00022D
:100AA000020400004843000048430000484300009F
:100AB000A0400000A04000000040000048430000AB
:100AC0004843000048430000000000000000000010
:100AD000000048617264636F646564204465666108
:100AE000756C742053657474696E6773204C6F6104
:100AF0006465640000009643000096430000A04037
:100B00000000C8410000A0420000A0420000C8430D
:100B10000000FA43B80B0000B80B000064000000AE
:100B20001027000020286D6D29002046002042007B
:100B300020480020204D3134352053004D6174652C
:100B40007269616C20686561747570207061726192
:100B50006D65746572730020204D39303600205465
:100B60003020450053746570706572206472697638
:100B700065722063757272656E740020204D353683
:100B80003920533100543020450044726976657233
:100B9000207374657070696E67206D6F64650020E6
:100BA000204D3134392043203B20556E6974732029
:100BB000696E2043656C736975730A0054656D70C6
:100BC0006572617475726520556E697473002020BA
:100BD000473231203B004C696E65617220556E6969
:100BE00074730020436F756E7420583A0042656438
:100BF000004531004500626564002C2073797374F0
:100C0000656D2073746F7070656421204865617430
:100C100065725F49443A20004572723A204D41584E
:100C200054454D50004D415854454D502074726903
:100C30006767657265640048656174696E67204620
:100C400061696C65640048656174696E67206661FE
:100C5000696C6564004572723A204D494E54454DA9
:100C600050004D494E54454D502074726967676578
:100C700072656400544845524D414C2052554E41D6
:100C800057415900546865726D616C2052756E61F0
:100C900077617900202F002042403A0020403A003E
:100CA0006D61726C696E66772E6F726700322E31DD
:100CB0002E31001FFFFFFFFFFFFF6000000000015B
:100CC000FF400000000000FF8000000000007F8364
:100CD000CF00000C303F87FF80000C301F867980EA
:100CE000000C000F8C30C7838C30E78C30CFC7CC22
:100CF00031F38C30DCECEC33B98C30D86C6C3319BC
:100D00008C30D06C0C33198C30D86C0C33198C307F
:100D1000DC6C0E3B198C30CF7C079F198C30C77C64
:100D2000038F194000000000000260000000000076
:100D3000061FFFFFFFFFFFF82020506C616E6E65FD
:100D40007242756666657242797465733A20002056
:100D500046726565204D656D6F72793A20002043BB
:100D60006F6D70696C65643A204175672031382079
:100D7000323032320A00204C617374205570646145
:100D80007465643A20323032322D30382D303620BE
:100D90007C20417574686F723A20286E6F6E652CE6
:100DA0002064656661756C7420636F6E666967297F
:100DB0000A004D61726C696E20322E312E310A00AC
:100DC00020536F6674776172652052657365740A8B
:100DD00000205761746368646F672052657365749F
:100DE0000A002042726F776E206F7574205265730F
:100DF00065740A002045787465726E616C205265D6
:100E00007365740A00506F77657255700A007374C9
:100E10006172740A00456E6473746F7073002553B9
:100E200020256320256320256320256300205A3A6E
:100E30000020593A0020583A00656E6473746F7050
:100E400073206869743A2000000021002400270004
:100E50002A002D00300033000101000004010701C9
:100E60000A0100000A0B02090C0D0E080703040119
:100E70000000000000000000000000000000000072
:100E8000000000000000000000000000000012113F
:100E90001000000000000000000000000000000042
:100EA0000000000000000000000000000000000042
:100EB00000000000000000000000200023002600C9
:100EC00029002C002F003200000100000301060160
:100ED000090100002200250028002B002E0031000F
:100EE000340002010000050108010B01050505059C
:100EF000070508080808020202020A0A0808040492
:100F000004040101010101010101030303030303BF
:100F10000303040707070C0C0C0C0C0C0C0C02024E
:100F2000020206060606060606060B0B0B0B0B0B4B
:100F30000B0B07070A0A0A0A0A0A05050504040436
:100F400008080102102020080810204010204080CE
:100F5000020102010804020101020408102040807D
:100F6000804020100804020180040201804020100B
:100F70000804020108040201010204081020408054
:100F8000010204081020408010080408801020404E
:100F9000044080102040048024F404D9201BC40C99
:100FA0005C0E9804C4095F0265077101F405F9003D
:100FB000FB04B30048048700C103690058035500CF
:100FC00003034500BE023A008402310053022A00A6
:100FD0002902250004022000E4011C00C8011900B8
:100FE000AF01170098011400840113007101100073
:100FF0006101100051010E0043010D0036010B008C
:101000002B010B0020010B00150109000C01090048
:1010100003010800FB000800F3000800EB000700D4
:10102000E4000600DE000600D8000600D20006003C
:10103000CC000500C7000500C2000500BD0004008B
:10104000B9000400B5000400B1000400AD000400C4
:10105000A9000400A5000300A20003009F000400F3
:101060009B0003009800030095000200930003001A
:10107000900003008D0002008B0003008800020036
:101080008600020084000300810002007F0002004D
:101090007D0002007B000200790002007700010061
:1010A000760002007400020072000100710002006C
:1010B0006F0002006D0001006C0002006A00010078
:1010C0006900020067000100660001006500010080
:1010D0006400020062000100610001006000010084
:1010E0005F0002005D0001005C0001005B00010088
:1010F0005A0001005900010058000100570001008A
:10110000560001005500010054000100530000008A
:101110005300010052000100510001005000010085
:101120004F0001004E0000004E0001004D00010084
:101130004C0001004B0000004B0001004A00010080
:10114000490001004800000048000100470001007C
:101150004600000046000100450000004500010077
:101160004400010043000000430001004200000071
:101170004200010041000000410001004000010068
:101180003F0000003F0001003E0000003E00010063
:101190003D0000003D0001003C0000003C0000005C
:1011A0003C0001003B0000003B0001003A00000051
:1011B0003A00010039000000390001003800000049
:1011C000380000003800010037000000370001003F
:1011D0003600000036000000360001003500000037
:1011E000350000003500010034000000340000002C
:1011F0003400010033000000330000003300010020
:101200003200000032000000320001003100000016
:10121000310000003100010030000000300000000B
:10122000300001002F0000002F0000002F00000000
:101230002F0001002E0000002E0000002E000100F3
:101240002D0000002D0000002D0000002D000100E9
:101250002C0000002C0000002C0000002C000100DD
:101260002B0000002B0000002B0000002B000100D1
:101270002A0000002A0000002A0000002A000100C5
:1012800029000000290000002900000029000000BA
:1012900029000100280000002800000028000000AC
:1012A000280000002800010027000000270000009F
:1012B0002700000027000000270001002600000092
:1012C0002600000026000000260000002600010085
:1012D000250000002500000025000000250000007A
:1012E000250000002500010024000000240000006B
:1012F000240000002400000024000100230000005E
:101300002300000023000000230000002300000051
:101310002300000023000100220000002200000042
:101320002200000022000000220000002200010034
:101330002100000021000000210000002100000029
:101340002100000021000000210001002000000019
:10135000200000002000000020000000200000000D
:101360002000000020000000200001001F000000FD
:101370001F0000001F0000001F0000001F000000F1
:101380001F0000001F0001001E0000001E000000E2
:101390001E0000001E00000024F4D43050C38E2034
:1013A000C2A24017828B7011127A910D816CD90AFA
:1013B000A861E108C7586607615143061E4B5D05E9
:1013C000C145A7041A411104093D9803713931033D
:1013D0004036DB0265339102D4305402802E1D0268
:1013E000632CEE01752AC501B028A00110278101E8
:1013F0008F2564012B244B01E0223401AC211F0115
:101400008D200D01801FFC00841EED00971DDF0064
:10141000B81CD200E61BC600201BBC00641AB20038
:10142000B219A8000A19A0006A189900D1179100F2
:1014300040178B00B516840031167E00B315790075
:101440003A157300C7146F0058146A00EE13660053
:101450008813630025135E00C7125B006C125700EF
:1014600015125400C111510070114F0021114B0091
:10147000D61049008D10470046104400021042006B
:10148000C00F4000800F3E00420F3C00060F3B00A3
:10149000CB0E3800930E37005C0E3500270E34005B
:1014A000F30D3200C10D3100900D3000600D2E00A3
:1014B000320D2D00050D2C00D90C2B00AE0C29008F
:1014C000850C29005C0C2700350C27000E0C26002B
:1014D000E80B2400C40B2400A00B23007D0B230089
:1014E0005A0B2100390B2100180B2000F80A1F00AD
:1014F000D90A1E00BB0A1E009D0A1D00800A1D009D
:10150000630A1C00470A1B002C0A1B00110A1A0060
:10151000F7091A00DD091900C4091900AB091900FF
:10152000920917007B091800630917004C0916007F
:1015300036091600200916000A091500F5081500DD
:10154000E0081400CC081400B8081400A408140023
:10155000900813007D0812006B0813005808120051
:101560004608120034081100230811001208110067
:1015700001081100F0071000E0071000D00710006C
:10158000C0071000B0070F00A107100091070E0060
:1015900083070F0074070F0065070E0057070E0042
:1015A00049070E003B070D002E070E0020070D0017
:1015B00013070D0006070D00F9060C00ED060D00DF
:1015C000E0060C00D4060C00C8060C00BC060C009B
:1015D000B0060C00A4060B0099060C008D060B004B
:1015E00082060B0077060B006C060B0061060A00F2
:1015F00057060B004C060A0042060A0038060A008D
:101600002E060A0024060A001A060A00100609001F
:1016100007060A00FD050900F4050900EB050900AD
:10162000E2050900D9050900D0050900C705090030
:10163000BE050900B5050800AD050800A5050900AF
:101640009C050800940508008C0508008405080026
:101650007C050800740508006C0507006505080096
:101660005D050700560508004E0507004705070001
:101670004005080038050700310507002A05070066
:10168000230507001C050600160507000F050700C7
:101690000805060002050700FB040600F504070024
:1016A000EE040600E8040600E2040700DB0406007E
:1016B000D5040600CF040600C9040600C3040600D2
:1016C000BD040600B7040600B1040500AC04060022
:1016D000A6040600A00405009B040600950405006E
:1016E000900406008A0405008504050080040600B5
:1016F0007A04050075040500700405006B040500FC
:1017000066040500610405005C040500570405003B
:10171000520405004D04050048040500430405007B
:101720003E0404003A0405003504050030040400BA
:101730002C04050027040400230405001E040400F3
:101740001A04040016040500110404000D0404002A
:10175000090405000404040000040400FC03040060
:10176000F8030400F4030400F0030400EC03040095
:10177000E8030400E4030400E0030400DC030400C5
:10178000D8030400D4030400D0030400CC030400F5
:10179000C8030300C5030300043700001E2900002E
:1017A000511B00005810000010090000CC0400007C
:1017B00078020000410100004D6F766520246D6DB8
:1017C00000302E303235004D6F766520302E316D71
:1017D0006D004D6F766520316D6D004D6F76652023
:1017E00031306D6D004D6F76652041786973004D25
:1017F0006F7665202A004D6F7665204000000C0F43
:1018000000FE07022503BB017FFE08FE08FE050857
:101810000806000040F0C888889878100508080677
:101820000000C0F88888888888F80505050600014A
:101830002030F830200508080600002070F820202D
:101840002020E00509090600FF2070A8A8B88888B4
:101850007020070505070001D86C366CD80509090A
:101860000600FFF8A88888888888A8F8050A0A066C
:1018700000FE205050505088A8A88870030303062B
:10188000000340A040FFFFFFFFFFFFFFFFFFFFFF40
:10189000FFFFFFFFFFFFFFFFFFFFFF000000060548
:1018A000FF0107070602008080808080008003031C
:1018B00003060105A0A0A005060606000050F8508A
:1018C00050F8500509090600FF2070A8A07028A84C
:1018D0007020050707060000C8C81020409898052A
:1018E000070706000040A0A040A890680103030677
:1018F00002058080800309090601FF2040408080A6
:10190000804040200309090601FF8040402020203C
:1019100040408005070706000020A8702070A8201E
:101920000505050600012020F8202002030306011A
:10193000FFC04080050101060003F8020202060113
:1019400000C0C005070706000008101020404080B6
:10195000050707060000708898A8C8887003070765
:1019600006010040C040404040E005070706000077
:10197000708808102040F8050707060000F80810D6
:101980003008887005070706000010305090F810E6
:1019900010050707060000F880F0080888700507A2
:1019A00007060000304080F08888700507070600B1
:1019B00000F8081010202020050707060000708896
:1019C0008870888870050707060000708888780886
:1019D0001060020505060100C0C000C0C002060676
:1019E0000601FFC0C000C0408003050506010120BC
:1019F00040804020050303060002F800F8030505B7
:101A0000060101804020408005070706000070881D
:101A100010202000200507070600007088B8A8B82D
:101A20008070050707060000708888F88888880598
:101A30000707060000F04848704848F00507070609
:101A4000000070888080808870050707060000F01D
:101A50004848484848F0050707060000F88080F02D
:101A60008080F8050707060000F88080F0808080FD
:101A700005070706000070888080988870050707B2
:101A8000060000888888F888888803070706010010
:101A9000E04040404040E0050707060000381010D5
:101AA000101090600507070600008890A0C0A09065
:101AB00088050707060000808080808080F8050781
:101AC0000706000088D8A8888888880507070600C8
:101AD000008888C8A89888880507070600007088CD
:101AE0008888888870050707060000F08888F080DD
:101AF000808005070706000070888888A890680520
:101B00000707060000F08888F0A090880507070600
:101B1000000070888070088870050707060000F8CC
:101B200020202020202005070706000088888888BC
:101B3000888870050707060000888888885050202C
:101B400005070706000088888888A8A850050707A9
:101B50000600008888502050888805070706000086
:101B600088885020202020050707060000F808106C
:101B7000204080F80309090601FFE0808080808012
:101B80008080E00507070600008040402010100814
:101B90000309090601FFE020202020202020E00585
:101BA00003030600052050880501010600FEF80326
:101BB00003030601058040200505050600007008A6
:101BC0007888780507070600008080F0888888F00C
:101BD000050505060000708080887005070706006F
:101BE0000008087888888878050505060000708850
:101BF000F08070050707060000304840E040404094
:101C00000507070600FE70888888780870050707B2
:101C10000600008080F08888888803070706010096
:101C20004000C0404040E00409090601FE100030B9
:101C30001010101090600507070600008080889043
:101C4000E09088030707060100C04040404040E0A4
:101C5000050505060000D0A8A8A8A80505050600EA
:101C600000B0C88888880505050600007088888847
:101C7000700507070600FEF0888888F08080050759
:101C8000070600FE7888888878080805050506009C
:101C900000B0C880808005050506000078807008C7
:101CA000F00507070600002020F820202018050571
:101CB00005060000888888986805050506000088E4
:101CC000888850200505050600008888A8A85005CA
:101CD000050506000088502050880507070600FE0D
:101CE00088888850204080050505060000F81020EF
:101CF00040F80309090601FF204040408040404071
:101D0000200109090602FF80808080808080808019
:101D10000309090601FF8040404020404040800503
:101D2000030306000248A890FF434F4D4D554E490E
:101D3000434154494F4E0044525952554E0045526A
:101D4000524F525300494E464F004543484F007092
:101D5000012C0190012701B0012201C0011D01F0F9
:101D60000118011002130130020E016002090190F6
:101D7000020401C002FF000003FA004003F50080E6
:101D800003F000D003EB002004E6007004E100E063
:101D900004DC004005D700C005D2004006CD00D0CD
:101DA00006C8008007C3003008BE00F008B900C0B4
:101DB00009B400B00AAF00B00BAA00D00CA5000017
:101DC0000EA000500F9B00C0109600501291000012
:101DD000148C00C0158700B0178200B0197D00D0A8
:101DE0001B7800001E730040206E0090226900F0F6
:101DF00024640040275F0090295A00E02B55001012
:101E00002E500020304B0010324600E0334100904D
:101E1000353C001037370070383200A0392D00B043
:101E20003A2800A03B2300603C1E00103D190090A2
:101E30003D1400103E0F00703E0A00C03E05000039
:101E40003F0000403FFBFF803FF6FFC03FF1FF6FC8
:101E50006B00496E76616C69642065787472756494
:101E600065720A00202E68737472743A2000202E66
:101E700068656E643A20002063686F707065722038
:101E80002E746F66663A2000202E68737472743A5E
:101E90002000202E68656E643A20002063686F7011
:101EA000706572202E746F66663A2000202E68736B
:101EB0007472743A2000202E68656E643A20002007
:101EC00063686F70706572202E746F66663A2000CA
:101ED000202E68737472743A2000202E68656E6438
:101EE0003A20002063686F70706572202E746F66F0
:101EF000663A20003F53206F7574206F6620726130
:101F00006E67652028312E2E38290A003F50206F39
:101F10007574206F662072616E676520282D332EE0
:101F20002E3132290A003F4F206F7574206F6620D2
:101F300072616E67652028312E2E3135290A0073B3
:101F400070726561644379636C6500737465616C7C
:101F5000746843686F700020647269766572206DE2
:101F60006F64653A09007370726561644379636CEC
:101F70006500737465616C746843686F70002064F9
:101F80007269766572206D6F64653A0900737072CC
:101F90006561644379636C6500737465616C746832
:101FA00043686F700020647269766572206D6F649B
:101FB000653A09007370726561644379636C65000A
:101FC000737465616C746843686F70002064726933
:101FD000766572206D6F64653A09002064726976D7
:101FE00065722063757272656E743A2000206472A7
:101FF000697665722063757272656E743A2000208E
:102000006472697665722063757272656E743A20C7
:1020100000206472697665722063757272656E74F1
:102020003A2000454550524F4D2064697361626CFF
:1020300065640A00486F6D6520257325732573203C
:102040004669727374004F666673657473204170DD
:10205000706C696564004572723A20546F6F206637
:1020600061722100546F6F206661722066726F6D1D
:10207000207265666572656E636520706F696E7447
:102080000A00000000000000000000000000646979
:102090007300656E0043290A0061626C6564202844
:1020A0006D696E2074656D702000436F6C642065EF
:1020B0007874727564657320617265200020466CC7
:1020C0006F773A200046523A002058004F464600AB
:1020D0004F4E0020204D61783A2000200020204DF6
:1020E000696E3A2000203B200020204D3231312003
:1020F0005300536F667420656E6473746F70730061
:102100003F4A206F7574206F662072616E6765208C
:1021100028302E303120746F20302E33290A004DA4
:1021200031343520533C696E6465783E206F757498
:10213000206F662072616E67652028302D31290A74
:10214000002F2F00434F4E4649475F4558504F528E
:1021500054004D4541545041434B00434F4F4C4573
:10216000525F54454D5045524154555245004348E5
:10217000414D4245525F54454D5045524154555290
:102180004500424142595354455050494E47004141
:10219000524353004D4F54494F4E5F4D4F444553AA
:1021A00000544845524D414C5F50524F54454354A2
:1021B000494F4E00455854454E4445445F4D3230DA
:1021C00000435553544F4D5F4649524D5741524578
:1021D0005F55504C4F4144004C464E5F5752495456
:1021E00045004C4F4E475F46494C454E414D4500DA
:1021F0004155544F5245504F52545F53445F5354CE
:10220000415455530053445F575249544500524579
:1022100050454154005344434152440050524F4DA5
:1022200050545F535550504F525400484F53545FD1
:10223000414354494F4E5F434F4D4D414E4453002F
:10224000454D455247454E43595F504152534552C3
:1022500000434153455F4C494748545F4252494708
:1022600048544E45535300544F47474C455F4C49E3
:102270004748545300534F4654574152455F504FBF
:10228000574552004255494C445F50455243454ED4
:1022900054004C4556454C494E475F44415441001B
:1022A0005A5F50524F42450052554E4F55540041CF
:1022B00055544F4C4556454C005052494E545F4A78
:1022C0004F420050524F4752455353004155544FCF
:1022D0005245504F52545F54454D50004155544F54
:1022E0005245504F52545F504F5300564F4C554D2E
:1022F000455452494300454550524F4D0042494EC6
:102300004152595F46494C455F5452414E534645F0
:10231000520053455249414C5F584F4E5F584F460B
:1023200046004649524D574152455F4E414D453A50
:102330004D61726C696E20322E312E31202841752C
:102340006720313820323032322031363A32323A58
:1023500033342920534F555243455F434F44455F23
:1023600055524C3A6769746875622E636F6D2F4DD4
:1023700061726C696E4669726D776172652F4D612D
:10238000726C696E2050524F544F434F4C5F56450C
:102390005253494F4E3A312E30204D414348494E19
:1023A000455F545950453A3344205072696E746504
:1023B000722045585452554445525F434F554E5430
:1023C0003A3120555549443A636564653261326655
:1023D0002D343161322D343734382D396231322D7C
:1023E0006335356336326633363766660A00334402
:1023F000205072696E746572204F46462E004D3132
:1024000031332053006F6666004A1D451D3E1D375F
:102410001D291D44454255473A006F6B00256973DD
:102420000025696D20256973002569682025696D7F
:102430002025697300256964202569682025696D58
:10244000202569730025697920256964202569683C
:102450002025696D20256973005072696E7420749F
:10246000696D653A20004E6F204D6F76652E0043F2
:102470006C69636B20746F20526573756D652E2EC9
:102480002E00536C6565702E2E2E0047322F473379
:102490002062616420706172616D65746572730A97
:1024A0000020746F6F206C6F6E6720657874727592
:1024B00073696F6E2070726576656E7465640A006C
:1024C00020636F6C6420657874727573696F6E2019
:1024D00070726576656E7465640A00486F6D696E2A
:1024E00067204661696C656400FFFFFF20453A0084
:1024F000205A3A0020593A00583A00204500205A04
:102500000020590020204D39322058005374657046
:10251000732070657220756E697400220A00556E12
:102520006B6E6F776E20636F6D6D616E643A202203
:1025300000DB0FC93F45BCDA3F8FB30240FCF027F8
:102540004056946140FE4B9B4084A5D840E0231840
:1025500041346A5641E859974164DBD5416E2717EB
:1025600042B4B75542CE1A9742C8AED542B5885A42
:1025700043D40684BFA65FA7BF7443E0BF10B11A5F
:10258000C01C2C58C0E8F697C0B849D6C04E4E17AC
:10259000C124D355C1802497C1A0B5D5C1121A1743
:1025A000C244AE55C2781797C26CACD5C267885A80
:1025B000C320746F6F206C6F6E67206578747275BE
:1025C00073696F6E2070726576656E7465640A005B
:1025D00020636F6C6420657874727573696F6E2008
:1025E00070726576656E7465640A00627573793A17
:1025F0002070617573656420666F7220696E7075F6
:10260000740A00627573793A20706175736564208D
:10261000666F7220757365720A00627573793A206D
:1026200070726F63657373696E670A004D31313282
:102630002053687574646F776E0053544F50504543
:10264000442E20005072696E7465722073746F702E
:102650007065642064756520746F206572726F7296
:10266000732E2046697820746865206572726F72D7
:1026700020616E6420757365204D39393920746F7F
:1026800020726573746172742E202854656D7065B4
:102690007261747572652069732072657365742E3A
:1026A00020536574206974206166746572207265B8
:1026B0007374617274696E67290A004E6F204368F3
:1026C00065636B73756D2077697468206C696E65DE
:1026D000206E756D6265722C204C617374204C699C
:1026E0006E653A2000636865636B73756D206D6974
:1026F000736D617463682C204C617374204C696E37
:10270000653A20004C696E65204E756D62657220D9
:102710006973206E6F74204C617374204C696E6510
:10272000204E756D6265722B312C204C61737420C4
:102730004C696E653A20004D313130005365726945
:10274000616C20737461747573206D69736D61744D
:1027500063680A004B494C4C20627574746F6E2F8D
:1027600070696E0A002121204B494C4C2063617531
:102770007365642062792000746F6F206D756368E3
:1027800020696E6163746976652074696D65202DBA
:102790002063757272656E7420636F6D6D616E6417
:1027A0003A20002121204B494C4C20636175736510
:1027B0006420627920006F6B0A00526573656E6455
:1027C0003A20003344205072696E7465722052655D
:1027D0006164792E005072696E74696E672E2E2EB8
:1027E000005072696E7420506175736564005FC13A
:1027F00011241FBECFEFD1E2DEBFCDBF00E00CBF82
:1028000084B780933A1014BE0FB6F894A8958091BF
:102810006000886180936000109260000FBE12E03B
:10282000A0E0B2E0E6E4FEE901E00BBF02C00790E1
:102830000D92AC3FB107D9F720E1ACEFB2E001C097
:102840001D92AA33B207E1F713E1C8EFD3E100E02C
:1028500006C021970109802FFE010E94CFCBC73F00
:10286000D10780E00807A9F70E941BBB0C9421CF79
:102870000C940000CF92DF92EF92FF920F931F9380
:1028800028E937E141E0F901C590D590E590F49051
:10289000C616D706E806F90658F4969587957795F3
:1028A0006795440F2C5F3F4F57E1243B350759F79D
:1028B0004093E105613271058105910568F4E8E90D
:1028C000F3E16591749190E080E01F910F91FF908A
:1028D000EF90DF90CF900895DC01CB018097A109A4
:1028E000B109811528E09207A105B105D8F044E0AF
:1028F000949F900111242856304FF901329645914A
:102900005491F901259134916627859FF001849FA8
:10291000E10DF61F0694E61FF61F11242E1B3F0B38
:10292000B901D1CF8C019D01369527951795079553
:102930000C7F08561C4EF80125913491F80132960F
:1029400045915491682F6770649FC001659F900DF9
:10295000112443E0969587954A95E1F7281B390B9A
:10296000DFCF0F931F93CF93DF93582FFC0180E0AD
:1029700077E0919148E0282F30E0A92FB0E089015D
:10298000000F012F001F110B9170C92F90E0D92F5C
:10299000880F0C171D0721F0C901880F991F872781
:1029A000B595A7959A2F415031F79E2F951B9617F5
:1029B00000F3DF91CF911F910F9108952091DF05D2
:1029C0003091E0052817390771F49091DE05809168
:1029D000DD05981741F0E091DE05F0E0E356FA4F8F
:1029E000808190E008958FEF9FEF08950895EF9212
:1029F000FF920F931F93CF93DF93DC015C96ED90D2
:102A0000FC905D97E114F10479F481E090E0139675
:102A10009C938E93129790E080E0DF91CF911F916D
:102A20000F91FF90EF9008955196ED91FC91529780
:102A300050968C915097982F90950FB75E962C9149
:102A40005E97122F127021FD6095F894208111235A
:102A500019F1282B2083E7012197F1F728E0462F71
:102A600050E0308160FF1AC0382B3083E701219796
:102A7000F1F7BA0175956795215089F7112381F017
:102A80008081892380830FBF5C968D919C910197F3
:102A9000F1F781E090E0C1CF2923DCCF3923E5CFE6
:102AA0009081892BEFCF2091DF053091E005281729
:102AB000390769F48091DD052091DE0590E0805CA6
:102AC0009F4F821B910960E470E00C94A0CB90E0D2
:102AD00080E008952091DF053091E005281739073F
:102AE000B9F49091DE058091DD05981789F0E091A9
:102AF000DE05F0E0E356FA4F80812091DE0530E0FC
:102B00002F5F3F4F2F7333272093DE0590E008950A
:102B10008FEF9FEF08953FB7F894809199059091BA
:102B20009A05A0919B05B0919C0526B5A89B05C070
:102B30002F3F19F00196A11DB11D3FBFBA2FA92F3C
:102B4000982F8827BC01CD01620F711D811D911D39
:102B500042E0660F771F881F991F4A95D1F70895A5
:102B60008F929F92AF92BF92CF92DF92EF92FF929D
:102B70006B017C01D0DF4B015C01C114D104E10485
:102B8000F104B1F0C8DF681979098A099B09683E28
:102B900073408105910588F321E0C21AD108E1084C
:102BA000F10888EE880E83E0981EA11CB11CE5CFC9
:102BB000FF90EF90DF90CF90BF90AF909F908F905D
:102BC0000895AF92BF92CF92DF92EF92FF920F9350
:102BD0001F93CF93DF936C017B018B01040F151FB3
:102BE000EB015E01AE18BF08C017D10759F069911B
:102BF000D601ED91FC910190F081E02DC60119956F
:102C0000892B79F7C501DF91CF911F910F91FF902B
:102C1000EF90DF90CF90BF90AF9008950895FC01A2
:102C2000DB0111968C9111972281821770F19381AB
:102C3000981758F14C919581491738F514965C9185
:102C40000680F781E02D821B883018F0E90FF11D16
:102C50008770969596959695642F677020E830E07A
:102C600002C0359527956A95E2F7989F802D11242B
:102C7000469546954695840F9927991FE80FF91FA9
:102C80008081552319F0282B20830895209528232F
:102C9000FBCF80E00895DC0114968D919C911597EF
:102CA0008617970709F43CC015967C936E9314978A
:102CB0006115710579F157968C915797FB01811138
:102CC00030C03596E4915896EC935897645F7F4FE7
:102CD000FB01649159966C93599758968C9158972B
:102CE000082E000C990B59962C915997821B91092B
:102CF00027FD93955A962C915A97203441F0829F44
:102D0000C001112426E0969587952A95E1F75B96F8
:102D10008C935B9789E496E156969C938E93559796
:102D20000895813041F43F96E4915896EC9358977A
:102D3000605F7F4FCDCF3D96E4915896EC935897C6
:102D4000625F7F4FC5CFFC0180810895FC018491B3
:102D5000882321F0823011F083E0089586E0089501
:102D600081E00895DC0115966C931597262F30E0CD
:102D700050E040E0ED91FC910190F081E02D61E1A7
:102D80001994DC01ED91FC910084F185E02D1995F9
:102D9000611571058105910539F06F3F7F4F8F4FA8
:102DA0009F4F21F080E0089582E0089581E008952A
:102DB000FC01A4A5B5A5109749F0ED91FC911197E0
:102DC0000190F081E02DCD011995089582A593A57C
:102DD000009739F0DC01ED91FC910190F081E02D3C
:102DE000F3CF80E00895FC01A4A5B5A5109741F0AC
:102DF000ED91FC9111970284F385E02DCD0119949A
:102E000082A593A5009739F0DC01ED91FC91028435
:102E1000F385E02DF4CF90E080E00895FC01A4A5B7
:102E2000B5A5109741F0ED91FC9111970084F185C3
:102E3000E02DCD01199482A593A5009739F0DC010E
:102E4000ED91FC910084F185E02DF4CF90E080E0DD
:102E50000895DC0196964D935D936D937C939997BD
:102E6000ED91FC910190F081E02D9A01AB0160E7BA
:102E700019949A01AB01DC0158962C935897632F53
:102E800063705996EC915997EC7FE62B5996EC9329
:102E90005997ED91FC910190F081E02D60E019943B
:102EA000DC01ED91FC910280F381E02D6FE6199435
:102EB000262F2F70DC0195966C919597607F622B81
:102EC00095966C93959792962D913D914D915C912D
:102ED0009597ED91FC910190F081E02D6CE61994AD
:102EE000DC0194962C91949760FB21F994962C9395
:102EF000949792962D913D914D915C919597ED917E
:102F0000FC910190F081E02D6CE61994DC01939620
:102F10008C91939760FB87F993968C93939761FBC1
:102F2000882780F994966C9194976E7F682B94967D
:102F30006C93949792962D913D914D915C919597BC
:102F4000ED91FC9111970190F081E02D6CE6CD019F
:102F50001994DC0192968C91929760FB87F9929676
:102F60008C9392976695677093968C919397887FD0
:102F7000682B93966C93939792962D913D914D91DA
:102F80005C919597ED91FC9111970190F081E02D66
:102F90006CE6CD0119946770262F2295207FDC0105
:102FA00092966C9192976F78622B92966C9392970F
:102FB00092962D913D914D915C919597ED91FC915B
:102FC0000190F081E02D6CE61994DC01ED91FC910B
:102FD0000280F381E02D6CE61994F7DF892F8F7062
:102FE0000895F3DF869581700895EFDF771F7727C7
:102FF000771F8170880F872B0895E7DF862F881F42
:103000008827881F7770770F872B0895DEDF862F3C
:10301000829587700895DC0192964D935D936D9330
:103020007C939597ED91FC910190F081E02D9A01B0
:10303000AB016CE61994CF93DF93C0912507D09133
:10304000260781E0CE31D105E4F020E030E040E019
:103050005FE360912107709122078091230790918F
:1030600024070E9426CC0E946ACD6C1B7D0B77FF43
:1030700003C071956195710981E0633071050CF0B1
:1030800080E0DF91CF9108958F929F92AF92BF928F
:10309000CF92DF92EF92FF920F931F93CF93DF9324
:1030A000B0E4A0E06A2F70E0AB014B0F511D5595C5
:1030B0004795411119C0E1E5FDE165917491072E35
:1030C000000C880B990B0E947AC7DF91CF911F915A
:1030D0000F91FF90EF90DF90CF90BF90AF909F90B7
:1030E0008F900895B42FE0CFA41711F0B41303C04C
:1030F000EDE4FEE1E2CF9A0121503109220F331FA6
:10310000220F331FF901E15BF24EE590F490F901D3
:10311000ED5AF24EC591D4918E159F0518F3A42F48
:10312000C817D90708F4BECFF901EF5AF24E05913E
:103130001491F901EB5AF24EC590D4908E199F0963
:10314000BC0190E080E00E9478C74B015C01B601B1
:10315000601B710B072E000C880B990B0E947AC71D
:103160009B01AC01C501B4010E94D9C74B015C01B0
:10317000CE19DF09BE0190E080E00E9478C79B0174
:10318000AC01C501B4010E9402CD6B017C01B80104
:10319000110F880B990B0E947AC79B01AC01C701E4
:1031A000B6010E9426CC91CFFC0190E1AFEFB4E0D4
:1031B00001900D929A95E1F70895000080915005D5
:1031C00080FF22C089988FEF8093A70480915005DB
:1031D00081FF1DC08F9A8FEF8093A80480915005C6
:1031E00082FF18C080910B018270809309018FEFDC
:1031F0008093A9048091500583FF14C016988FEF27
:103200008093AA0400000895899A81E0DDCF8F9809
:1032100081E0E2CF80910B0180958270809309015B
:1032200081E0E6CF169A81E0EBCF80E00895CF925F
:10323000DF92EF92FF9280913006882309F457C005
:10324000C0902C06D0902D06E0902E06F0902F0610
:1032500020E030E0A901C701B6010E9474C78823AD
:1032600009F445C020E030E040E05FE3C701B6016B
:103270000E94D9C79B01AC010E94D9C72BED3FE04A
:1032800049E450E40E94D9C79B01AC0160E070E0C2
:1032900080E89FE30E9402CD6B017C01C0921C0676
:1032A000D0921D06E0921E06F0921F066091270242
:1032B00070912802072E000C880B990B0E947AC788
:1032C0002AE037ED43E25CE30E94D9C7A7019601EB
:1032D0000E94D9C760934C0270934D0280934E02B6
:1032E00090934F02FF90EF90DF90CF900895C12C04
:1032F000D12C80E8E82E8FE3F82ED0CF1092290E43
:1033000010929304109294041092950410929604D3
:1033100010923E0610923F0610924006109241060F
:1033200010928F04109290041092910410929204C3
:103330000895CF92DF92EF92FF92FC01C080D1807E
:10334000E280F38020E030E0A901C701B6010E94CD
:1033500074C787FF68C0C701B601905820E030E00D
:1033600040E251E40E94D9C720E030E040EA50E456
:103370000E9426CC20E030E040E251E40E9402CDE1
:103380000E946ACD9B0160E22031F7E23F0730F0F6
:10339000C90160E177E20E948CCB605D6093890493
:1033A000283E83E0380708F445C0C90168EE73E0A1
:1033B0000E948CCBCB016AE070E00E948CCB805DD8
:1033C00080938A0480E22436310558F0C90164E60E
:1033D00070E00E948CCBCB016AE070E00E948CCB45
:1033E000805D80938B0480E22A30310558F0EAE05A
:1033F000F0E0C901BF010E948CCBCB01BF010E944C
:103400008CCB805D80938C04C9016AE070E00E94DF
:103410008CCB805D80938D0489E894E0FF90EF90E1
:10342000DF90CF90089520E030E040E251E4C70102
:10343000B60198CF80E2C4CF8F929F92AF92BF9295
:10344000CF92DF92EF92FF92FC01C080D180E280A8
:10345000F38020E030E040E251E4C701B6010E9471
:10346000D9C720E030E040E251E40E94D9C74B01C7
:103470005C0120E030E0A901C701B6010E9474C7D9
:1034800020E030E040EA50E487FF04C020E030E074
:1034900040EA50ECC501B4010E9426CC20E030E0A7
:1034A00040E251E40E9402CD0E946ACD9B018BE272
:1034B00037FF05C022273327261B370B8DE2809369
:1034C0008804C90168EE73E00E94A0CBCB01EAE05A
:1034D000F0E0BF010E94A0CB805D80938904C90108
:1034E00064E670E00E94A0CBCB01BF010E94A0CB9C
:1034F000805D80938A04C901BF010E94A0CB282F60
:10350000CB01BF010E94A0CB805D80938B048EE233
:1035100080938C04205D20938D0488E894E0FF90D4
:10352000EF90DF90CF90BF90AF909F908F900895D5
:103530008F929F92AF92BF92CF92DF92EF92FF92C3
:10354000CF93FC01C080D180E280F38020E030E0A6
:1035500040E251E4C701B6010E94D9C720E030E043
:1035600048EC52E40E94D9C74B015C0120E030E0F6
:1035700040E251ECC701B6010E9474C7181654F41A
:1035800020E030E048EC52E4C701B6010E944CCE86
:1035900087FD86C020E030E0A901C701B6010E9486
:1035A00074C787FF6EC060E070E080EA90ECA50110
:1035B00094010E9426CC20E030E040E251E40E94D9
:1035C00002CD0E946ACD6B017C01F7FC5FC020E157
:1035D00037E240E050E00E94B3CBCA01B9012AE0D3
:1035E00030E040E050E00E94B3CB605D609388041F
:1035F000C701B60128EE33E040E050E00E94B3CBB3
:103600009AE0892E912CA12CB12CCA01B901A501F7
:1036100094010E94B3CB605D60938904C701B60139
:1036200024E630E040E050E00E94B3CBCA01B9018B
:10363000A50194010E94B3CB605D60938A048EE281
:1036400080938B04C701B601A50194010E94B3CBFE
:10365000C62FCA01B901A50194010E94B3CB605DD8
:1036600060938C04C05DC0938D0488E894E0CF9192
:10367000FF90EF90DF90CF90BF90AF909F908F9092
:10368000089560E070E080EA90E491CFF094E094D7
:10369000D094C094C11CD11CE11CF11C6DE2A6CFDA
:1036A00020E030E0A901C701B6010E9474C787FF7E
:1036B0006AC060E070E080EA90ECA50194010E948D
:1036C00026CC20E030E040E251E40E9402CD0E948E
:1036D0006ACD4B015C0120E030E0A901C701B601D1
:1036E0000E944CCE87FD0BC020E030E040E251E468
:1036F000C701B6010E9474C760E287FD13C0B7FC22
:1037000047C0C501B40128EE33E040E050E00E941C
:10371000B3CBCA01B9012AE030E040E050E00E949A
:10372000B3CB605D60938904C501B40124E630E049
:1037300040E050E00E94B3CB8AE0C82ED12CE12CAF
:10374000F12CCA01B901A70196010E94B3CB605DBB
:1037500060938A048EE280938B04C501B401A701B3
:1037600096010E94B3CBC62FCA01B901A7019601E9
:103770000E94B3CB605D60938C04C05DC0938D04E8
:1037800089E894E074CF60E070E080EA90E495CF3F
:10379000B094A09490948094811C911CA11CB11CA5
:1037A0006DE2C0CF9C0197FF26C0EE27FF27E81BE4
:1037B000F90B2D398FEF38070CF05DC08DE2809347
:1037C0008A04CF0164E670E00E94A0CBCB012AE01E
:1037D00030E0B9010E94A0CB805D80938B04CF01C3
:1037E000B9010E94A0CBCB01B9010E94A0CB805DA2
:1037F00080938C042AC0283E83E03807B4F1C901C5
:1038000068EE73E00E94A0CBCB01EAE0F0E0BF01DC
:103810000E94A0CB805D80938A04C90164E670E0B9
:103820000E94A0CBCB01BF010E94A0CB805D809302
:103830008B04C901BF010E94A0CBCB01BF010E9434
:10384000A0CB805D80938C04F901CF016AE070E029
:103850000E94A0CB805D80938D048AE894E0089557
:103860008DE237FDC5CF80E2C3CFF90180E2243677
:1038700031050CF0A4CF80E280938A0480938B04FE
:10388000EA30F1056CF38DE237FF80E280938B0420
:10389000CF016AE070E00E94A0CB605D60938C0471
:1038A000D4CF9C0197FD2DC080E2243631055CF019
:1038B000C90164E670E00E94A0CBCB016AE070E031
:1038C0000E94A0CB805D80938B0480E22A3031057A
:1038D0005CF0EAE0F0E0C901BF010E94A0CBCB019F
:1038E000BF010E94A0CB805D80938C04C9016AE077
:1038F00070E00E94A0CB805D80938D048BE894E003
:1039000008953195219531098DE2DDCF9C01283E46
:1039100083E03807D0F1C90168EE73E00E948CCBD8
:10392000CB016AE070E00E948CCB805D80938A04BA
:1039300080E22436310558F0C90164E670E00E9447
:103940008CCBCB016AE070E00E948CCB805D8093D1
:103950008B0480E22A30310558F0EAE0F0E0C9013A
:10396000BF010E948CCBCB01BF010E948CCB805D3C
:1039700080938C04C9016AE070E00E948CCB805D6A
:1039800080938D048AE894E0089580E2CFCF24E606
:10399000829FC001112481589F4F6FEF70E00E94F9
:1039A000A0CB262F81E3643609F080E280938A045D
:1039B00090E22A3040F03AE0822F632F0E9473CBCE
:1039C0000E9473CB905D90938B04822F6AE00E94DB
:1039D00073CB905D90938C0485E280938D048AE88C
:1039E00094E008956091270270912802072E000C40
:1039F000880B990B0E947AC72AE037ED43E25CE31B
:103A00000E94D9C720911C0630911D0640911E06C8
:103A100050911F060E94D9C760934C0270934D02CB
:103A200080934E0290934F020895CF93DF93EC0161
:103A3000CB01BA010E947AC72DEC3CEC4CEC5DE363
:103A40000E9402CD0E946FCD79836883DF91CF9170
:103A500008950E947AC72DEC3CEC4CEC5DE30E948B
:103A600002CD0E946FCDCB0151CFE0911606E3301D
:103A700030F4F0E0EB5CF84F8091F405808308951A
:103A8000FC0184910895CF93DF93EC01CB01BA013F
:103A90000E947AC729EC38EC48EC5EE30E9402CD24
:103AA00020E030E040E05FE30E9426CC0E946FCD32
:103AB0006883DF91CF9108950E947AC729EC38EC92
:103AC00048EC5EE30E9402CD20E030E040E05FE39E
:103AD0000E9426CC0E946FCD862F59CFE09116060A
:103AE00086E0E802F0011124EE5CF94F8091F405C4
:103AF00090E0958384830895CF93DF9300D01F9245
:103B0000CDB7DEB70E946FCD0E9478C769837A83F4
:103B10008B839C83CE0101960CDC0F900F900F904D
:103B20000F90DF91CF9108958F929F92AF92BF92A5
:103B3000CF92DF92EF92FF92CF936B017C0120E056
:103B400030E0A9010E9474C787FDC3C06DEB77E325
:103B500086E095E3A70196010E9426CC6B017C01CB
:103B600020E030E0A9010E9474C787FFB7C0C701F9
:103B7000B601905820E030E040E251E40E94D9C7FD
:103B800020E030E040E251E40E94D9C720E030E07C
:103B900040EA50E40E9426CC20E030E040E251E4CC
:103BA0000E9402CD0E946ACD6B017C0160E280EA36
:103BB000C81686E8D80681E0E806F1048CF0C70153
:103BC000B60120EA36E841E050E00E94B3CBCA01DA
:103BD000B9012AE030E040E050E00E94B3CB605DE4
:103BE0006093870460E280E1C81687E2D806E104AA
:103BF000F1048CF0C701B60120E137E240E050E06B
:103C00000E94B3CBCA01B9012AE030E040E050E0A5
:103C10000E94B3CB605D6093880460E288EEC816B2
:103C200083E0D806E104F1048CF0C701B60128EE68
:103C300033E040E050E00E94B3CBCA01B9012AE072
:103C400030E040E050E00E94B3CB605D60938904B7
:103C500060E284E6C816D104E104F1048CF0C701E7
:103C6000B60124E630E040E050E00E94B3CBCA0148
:103C7000B9012AE030E040E050E00E94B3CB605D43
:103C800060938A048AE0882E912CA12CB12CC70164
:103C9000B601A50194010E94B3CBC62FCA01B90198
:103CA000A50194010E94B3CB605D60938B048EE20A
:103CB00080938C04C05DC0938D0487E894E0CF911D
:103CC000FF90EF90DF90CF90BF90AF909F908F903C
:103CD00008956DEB77E386E095EB3CCF20E030E094
:103CE00040E251E4C701B60149CFCF92DF92EF9293
:103CF000FF92CF93DF9300D01F92CDB7DEB76B0159
:103D00007C0120E030E0A9010E9474C787FD1AC041
:103D10006DEB77E386E095E3A70196010E9426CC40
:103D200069837A838B839C83CE01019602DB0F909B
:103D30000F900F900F90DF91CF91FF90EF90DF9059
:103D4000CF9008956DEB77E386E095EBE5CF8F920A
:103D50009F92AF92BF92CF92DF92EF92FF92CF935A
:103D60006B017C0120E030E0A9010E9474C787FD4F
:103D700093C06DEB77E386E095E3A70196010E947F
:103D800026CC6B017C0120E030E040E251E40E944F
:103D9000D9C720E030E04AE754E40E94D9C74B017C
:103DA0005C0120E030E0A901C701B6010E9474C7A0
:103DB00020E030E040EA50E487FF04C020E030E03B
:103DC00040EA50ECC501B4010E9426CC20E030E06E
:103DD00040E251E40E9402CD0E946ACD6B017C0159
:103DE000C114D104E104F10409F45BC0F7FE59C029
:103DF000F094E094D094C094C11CD11CE11CF11C3F
:103E00008DE280938804C701B60128EE33E040E0DC
:103E100050E00E94B3CB8AE0882E912CA12CB12CCB
:103E2000CA01B901A50194010E94B3CB605D609302
:103E300089048EE280938A04C701B60124E630E04B
:103E400040E050E00E94B3CBCA01B901A501940142
:103E50000E94B3CB605D60938B04C701B601A501DE
:103E600094010E94B3CBC62FCA01B901A5019401E8
:103E70000E94B3CB605D60938C04C05DC0938D04E1
:103E800088E894E0CF91FF90EF90DF90CF90BF90C3
:103E9000AF909F908F9008956DEB77E386E095EB60
:103EA0006CCF80E2AECFCF93DF93EC01CB01BA01B0
:103EB0000E947AC720E030E040E251E40E9402CD47
:103EC000688379838A839B83DF91CF9108950E94D1
:103ED0007AC720E030E040E251E40E9402CD24CED7
:103EE000CF93DF93EC01CB01BA010E947AC72AE09D
:103EF00037ED43E25DE30E9402CD0E946FCD6883FF
:103F000079838A839B83DF91CF9108950E947AC73A
:103F10002AE037ED43E25DE30E9402CDEDCDCF9381
:103F2000DF93EC01CB01BA010E947AC72AE037ED9A
:103F300043E25DE30E9402CD688379838A839B8399
:103F4000DF91CF9108950E947AC72AE037ED43E2CE
:103F50005DE30E9402CDC9CECF93DF93EC01CB018C
:103F6000BA010E947AC7688379838A839B83DF9131
:103F7000CF9108950E947AC7B8CECF93DF93EC011A
:103F8000CB01BA010E947AC720E030E048EC52E44D
:103F90000E9402CD688379838A839B83DF91CF91CE
:103FA0000895CF92DF92EF92FF92CF93DF9300D0EC
:103FB0001F92CDB7DEB70E947AC720E030E048EC10
:103FC00052E40E9402CD6B017C0120E030E0A901A7
:103FD0000E9474C72DEB37E346E055E387FF04C02A
:103FE0002DEB37E346E055EBC701B6010E9426CC26
:103FF00069837A838B839C83CE01019699DA0F9033
:104000000F900F900F90DF91CF91FF90EF90DF9086
:10401000CF900895CF93DF93EC01CB01BA010E94BA
:104020007AC70E946ACD79836883DF91CF91089522
:104030000E947AC70E946ACDCB0133CCCF93DF9325
:10404000EC01CB01BA010E947AC720E030E04AE7D8
:1040500054E40E9402CD688379838A839B83DF9135
:10406000CF9108950E947AC720E030E04AE754E4F7
:104070000E9402CD6CCE0F931F93522F2091590FA7
:1040800030915A0F2817390731F11092A5049093F7
:104090005A0F8093590F8B0130E020E00093FF0509
:1040A0001093000620930106309302064093F80512
:1040B0005093F90580599A4421F410928604109285
:1040C000840482E080932B0281E080930F0610929B
:1040D0008304109285041F910F91089520E040E021
:1040E00070E060E085E192E4C6CFCF93C1E0C09379
:1040F0008604FC0180819181A281B38180931002AA
:1041000090931102A0931202B093130220E040E0BA
:1041100070E060E08091F2059091F305ACDFC09310
:10412000A504CF910895CF93DF9300D01F92CDB710
:10413000DEB78DEC9CECACECBCE389839A83AB835B
:10414000BC83CE010196D1DF0F900F900F900F909E
:10415000DF91CF910895CF93DF9300D01F92CDB719
:10416000DEB78DEC9CECACECBDE389839A83AB832A
:10417000BC83CE010196B9DF0F900F900F900F9086
:10418000DF91CF910895CF93DF9300D01F92CDB7E9
:10419000DEB780E090E0A0E8BFE389839A83AB8339
:1041A000BC83CE010196A1DF0F900F900F900F906E
:1041B000DF91CF910895CF93DF9300D01F92CDB7B9
:1041C000DEB780E090E0A0E2B1E489839A83AB831C
:1041D000BC83CE01019689DF0F900F900F900F9056
:1041E000DF91CF910895FC01A081B1811C92A28141
:1041F000B3818C918F5F8C930280F381E02D90814D
:104200008CE0989F800D1124EBE5FFE013AE84AFA6
:104210000895FC0180810895009751F0FC0180E031
:104220009191992331F0907C9038D1F38F5FF8CF42
:1042300080E00895119800C09091020187FD90954B
:1042400091709093000100C0119A00C000C01198B5
:1042500000C09091020186FD9095917090930001AD
:1042600000C0119A00C000C0119800C090910201D6
:1042700085FD909591709093000100C0119A00C047
:1042800000C0119800C09091020184FD909591703A
:104290009093000100C0119A00C000C0119800C0A6
:1042A0009091020183FD909591709093000100C060
:1042B000119A00C000C0119800C09091020182FDC7
:1042C000909591709093000100C0119A00C000C0B9
:1042D000119800C09091020181FD9095917090938A
:1042E000000100C0119A00C000C0119800C0809168
:1042F000020181708093000100C0119A00C000C0CB
:104300000895BF92CF92DF92EF92FF920F931F9387
:10431000CF93DF936B01E9014A3009F4DFC04531E7
:1043200009F08AC0DB011296ED91FC911281C681E1
:10433000D78180910201809582708093000100C036
:10434000000086E290E00197F0F7012F0295007FD0
:1043500020E1B22EB10E88EF6DDF00C0000086E2D2
:1043600090E00197F0F7103208F0A5C0812F807718
:10437000806860DF802F5EDF00C0000086E290E092
:104380000197F0F780E856DF80E054DF00C00000BE
:1043900086E290E00197F0F78AEF4CDF00C0000062
:1043A00086E290E00197F0F77E01B0E1EB0EF11CA0
:1043B0008881807F3FDF89918295807F3BDFCE15AA
:1043C000DF05B1F700C0000086E290E00197F0F74A
:1043D0001F5F005F1B11BFCF80910201827080932D
:1043E0000001D6011296ED91FC9180819281980F87
:1043F00092832181921708F0FDC194819F5F94837D
:104400009381890F821710F08FEF820F838345818C
:1044100050E0440F551F70E060E0868197810E9454
:10442000EECE81E0DF91CF911F910F91FF90EF9041
:10443000DF90CF90BF900895FB010281138142333A
:1044400009F4DAC108F4E2C1463409F4CFC14734B3
:1044500009F4D7C14B3329F789812B81D8011296F2
:104460006C91129713964C91213009F414C22330A9
:1044700009F0F5C138EF380F582F91E0431708F4D1
:1044800090E041E0531708F040E031E0561708F49F
:1044900030E0592F542B352319F4942309F4C1CF5C
:1044A000FA8030E0F901E156FD4FD08025563D4FAE
:1044B000F901E080EDC180EE810F8068807FBADE77
:1044C000812F8295807FB6DE00C0000086E290E0FA
:1044D0000197F0F780E8AEDE80E857CF80910101C8
:1044E00082608093010180910201827080930001BB
:1044F00080910101816080930101809102018170AE
:1045000080930001099A119A80910201809582702E
:104510008093000100C0000086E290E00197F0F770
:1045200088E790E0CEE9DFE0FE013197F1F70197EF
:10453000D9F788EF7FDE00C0000086E290E00197A7
:10454000F0F780E277DE80E075DE00C0000086E2F2
:1045500090E00197F0F780E06DDE80E86BDE00C050
:10456000000086E290E00197F0F780E063DE80E1F2
:1045700061DE00C0000086E290E00197F0F7CE0116
:104580000197F1F7CE010197F1F7CE010197F1F70D
:10459000CE010197F1F7CE010197F1F7CE01019716
:1045A000F1F7CE010197F1F7CE010197F1F7CE01B6
:1045B0000197F1F7CE010197F1F7CE010197F1F7DD
:1045C000CE010197F1F7CE010197F1F7CE010197E6
:1045D000F1F72197F1F780E22DDE80E42BDE00C0B9
:1045E000000086E290E00197F0F780E223DE80E6AB
:1045F00021DE00C0000086E290E00197F0F7D0E0F5
:10460000C0E08C2F8077806815DE8D2F13DE00C010
:10461000000086E290E00197F0F780E80BDE80E092
:1046200009DE00C0000086E290E00197F0F78AEF13
:1046300001DE00C0000086E290E00197F0F790E212
:10464000119800C08091020181708093000100C028
:10465000119A00C000C0119800C0809102018170C1
:104660008093000100C0119A00C000C0119800C0E2
:104670008091020181708093000100C0119A00C0F6
:1046800000C0119800C080910201817080930001E8
:1046900000C0119A00C000C0119800C080910201B2
:1046A00081708093000100C0119A00C000C0119871
:1046B00000C08091020181708093000100C0119AB6
:1046C00000C000C0119800C08091020181708093E9
:1046D000000100C0119A00C000C0119800C0809174
:1046E000020181708093000100C0119A00C000C0D7
:1046F000119800C08091020181708093000100C078
:10470000119A00C000C0119800C080910201817010
:104710008093000100C0119A00C000C0119800C031
:104720008091020181708093000100C0119A00C045
:1047300000C0119800C08091020181708093000137
:1047400000C0119A00C000C0119800C08091020101
:1047500081708093000100C0119A00C000C01198C0
:1047600000C08091020181708093000100C0119A05
:1047700000C000C0119800C0809102018170809338
:10478000000100C0119A00C000C0119800C08091C3
:10479000020181708093000100C0119A00C000C026
:1047A00000C00000E6E2F0E03197F0F7915009F028
:1047B00047CF88EF3FDD00C0000086E290E0019720
:1047C000F0F7CF5FD05FC03209F01BCF80E032DD61
:1047D00080EC30DD00C0000086E290E00197F0F749
:1047E000809102018270809300011BCEF8018581C7
:1047F000888317CE80E016CEB901C8010E940F163B
:1048000010CED80111968C9188830BCE443191F053
:10481000473109F006CE1882D80112968C91129772
:10482000898315968C91159781508A8313968C9164
:104830008B83F7CDD80115964C91159750E0440F16
:10484000551F70E060E016968D919C910E94EECE0F
:10485000F80112828081815083831482E2CD48174F
:1048600008F4DFCD861708F4DCCDFA80E12CD12CDA
:10487000243070F416CEBE01C8010E940F16898143
:1048800098819D0D98838E0D8983FF0C09F4C9CD05
:10489000F7FEF6CFF0CF58E0580F382FEECD20912D
:1048A0001904022E000C330B8217130641F080937B
:1048B00019046DEF77E18FE59FE00C944B16089596
:1048C000089590E080E00895CF93DF93C091EA05CA
:1048D000D091EB0581E0CE31D105E4F020E030E06D
:1048E00040E05FE36091E6057091E7058091E8059F
:1048F0009091E9050E9426CC0E946ACD6C1B7D0B2D
:1049000077FF03C071956195710981E0633071058E
:104910000CF080E0DF91CF910895209195068330CF
:1049200021F425FD0CC024FD0CC030E0A90102C01B
:10493000559547958A95E2F7CA018170089581E0FF
:10494000089580E008958091330F9091340F891B72
:104950008F7039F481E09091290E913019F080E048
:10496000089581E0089581E008952F923F924F923B
:104970005F926F927F928F929F92AF92BF92CF92EF
:10498000DF92EF92FF920F931F93CF93DF931C015F
:10499000EB01CA01B9010E9478C72AE037ED43E272
:1049A0005DE30E94D9C72B013C0120E030E040E0EC
:1049B0005FEC0E944CCE18162CF0412C512C612C2F
:1049C0003FEC732EC301B2010E946ACD2B013C0162
:1049D000688179818A819B810E9478C72AE037EDBE
:1049E00043E25DE30E94D9C76B017C01C301B201C0
:1049F0000E947AC79B01AC01C701B6010E9425CC79
:104A00000E946FCD6B0188E79FE0A0E0B0E08419C1
:104A10009509A609B70948012FE2A22E23E5B22E77
:104A20007C018D01A3019201BE01C1010E94E7B882
:104A3000DF91CF911F910F91FF90EF90DF90CF907A
:104A4000BF90AF909F908F907F906F905F904F90AE
:104A50003F902F9008952F923F924F925F926F92C6
:104A60007F928F929F92AF92BF92CF92DF92EF92FE
:104A7000FF920F931F93CF93DF9300D000D01F922C
:104A80001F92CDB7DEB71C0178876F8379011A8337
:104A90000983BA01550F880B990B0E947AC74B0105
:104AA0005C0120E030E040E05FEC0E944CCE181644
:104AB0002CF0812C912CA12C2FECB22EC501B4012D
:104AC0000E946ACD2B013C01B701FF0C880B990BAA
:104AD0000E947AC74B015C0120E030E040E05FE4D7
:104AE0000E9474C787FD05C0812C912CA12C9FE4E6
:104AF000B92EEF81F88560817181072E000C880B3B
:104B0000990B0E947AC76B017C01C301B2010E941C
:104B10007AC79B01AC01C701B6010E9425CC0E9457
:104B20006FCD6B837C838D839E83C501B4010E940E
:104B30006ACD7B018C01E418F50806091709898004
:104B40009A8084E3A82E83E5B82ECB80DC80A30175
:104B500092016F817885C1010E94E7B828960FB64F
:104B6000F894DEBF0FBECDBFDF91CF911F910F91A3
:104B7000FF90EF90DF90CF90BF90AF909F908F907D
:104B80007F906F905F904F903F902F9008958F92FD
:104B90009F92AF92BF92CF92DF92EF92FF920F93CC
:104BA0001F93CF93DF93EC014B016091F40570E00C
:104BB00090E080E00E9478C729EC38EC48EC5EE396
:104BC0000E94D9C720E030E040E05FE30E9426CC9D
:104BD0000E946FCD89E3A82E83E5B82E6B0114E601
:104BE000E12EF12C00E010E020E030E0A90164EFBC
:104BF00075E0CE010E94E7B8DF91CF911F910F9130
:104C0000FF90EF90DF90CF90BF90AF909F908F90EC
:104C100008956F927F928F929F92AF92BF92CF92A0
:104C2000DF92EF92FF920F931F93CF93DF933C019C
:104C3000EB014A016881798190E080E00E9478C7A9
:104C40002DEC3CEC4CEC5DE30E94D9C720E030E059
:104C500040E251E40E9425CC0E946FCD8EE3A82E45
:104C600083E5B82E6B0112E2E12EFF24F39400E0FD
:104C700010E02AE030E040E050E0BE01C3010E94B5
:104C8000E7B8DF91CF911F910F91FF90EF90DF90E8
:104C9000CF90BF90AF909F908F907F906F9008952E
:104CA0000E94EACECF93DF93CDB7DEB78E81282F57
:104CB000082E000C330B909144069217130609F04E
:104CC0008CF4809344069E01275F3F4F4F815885A7
:104CD0006AE270E08AE596E00E943CC710924C04BC
:104CE00010924B04DF91CF910895EF92FF920F93B2
:104CF0001F93CF93DF93EC018B017A018A859B850B
:104D00008617970731F0888199810E944B161B877F
:104D10000A87B701888199810E94A7B82E813F81B7
:104D2000820F932F911D9F838E8390E080E0DF910F
:104D3000CF911F910F91FF90EF900895CF92DF9246
:104D4000EF92FF920F931F93CF93DF93CDB7DEB710
:104D50002C970FB6F894DEBF0FBECDBFF090960F24
:104D6000E090970F20911B0421111DC045E156E0F2
:104D70006E2D8F2D0E947F8690E080E0F80EF092DD
:104D8000960FE092970F99272C960FB6F894DEBFF6
:104D90000FBECDBFDF91CF911F910F91FF90EF908C
:104DA000DF90CF900895C090630FD090640F2FE5EF
:104DB0003FE03A8329832F2D30E03C832B832E2D37
:104DC00030E03E832D8318861F827A8769871C8690
:104DD0001B8600EB1FE29E012F5F3F4F40E45DE129
:104DE000BC01C6010E944286B6018FE59FE00E9489
:104DF0004B168F819885C2CF4F925F926F927F92B0
:104E00008F929F92AF92BF92CF92DF92EF92FF92DA
:104E10000F931F93CF9310924706109246062FE3ED
:104E200020939806109297061092960610925606B6
:104E30001092570610925806109259069C01F901DB
:104E400090812F5F3F4F9032D1F39E34C9F481811E
:104E500090ED980F9A3020F08D3211F08B3281F462
:104E600032969F012F5F3F4F808180538A3008F434
:104E700073C09F012F5F3F4F8081803209F46EC065
:104E8000F093C108E093C0088F010F5F1F4FC081EE
:104E90006AE270E0C8010E94F5CE009731F0FC0193
:104EA000319780818032E1F31182CD3429F0C4350D
:104EB00019F0C73409F040C0F80180810F5F1F4F1F
:104EC0008032D1F380538A30B8F5C093980610929F
:104ED0009706109296066AE09F012F5F3F4F409120
:104EE000960650919706649FC001659F900D11240E
:104EF000C0974081840F911D47FD9A959093970626
:104F000080939606F901208120532A3028F3DF018F
:104F100031962C912032D9F3CD3461F58E31910543
:104F200039F0F0F48731910519F08C31910511F5C4
:104F3000B0934706A0934606CF911F910F91FF9023
:104F4000EF90DF90CF90BF90AF909F908F907F9029
:104F50006F905F904F900895F90183CFF90189CF49
:104F60008537910538F08737910510F3803A23E0B3
:104F70009207F1F210924706109246065091C0082F
:104F8000C12CD12C7601C394FD0131964C91442360
:104F900099F2413299F4CD3489F48032910571F45B
:104FA000F0934706E093460663E270E0CF010E946B
:104FB000F5CE009709F2FC011082BECF41544A3170
:104FC00008F07DC0DF012D91203209F460C030ED82
:104FD000320F3A3008F46CC02E3209F05AC02181E9
:104FE00020532A3008F464C02091460630914706C9
:104FF0002115310509F05EC0BF0161507109709340
:10500000470660934606A42FB0E02601370104C08E
:10501000440C551C661C771C4A95D2F780905606A6
:1050200090905706A0905806B0905906842895286D
:10503000A628B7288092560690925706A092580646
:10504000B092590621153105C1F1251BA150BC4F65
:105050002C9320812154DF012A3108F495CFDF0100
:105060002191222309F490CF30ED320F3A30B8F37A
:1050700033ED320F323098F32B3289F39D012F5FDD
:105080003F4F4C91403209F07FCFD901F7CFFD015E
:1050900099CF2D3219F02B3209F0A6CF218130EDB6
:1050A000320F3A3028F02E3209F09ECF228198CF6D
:1050B0009F01A9CF30E020E0A6CF20E0C7CF20910C
:1050C000460630914706232B21F6B0934706A0935E
:1050D0004606BFCF1F920F920FB60F9211240BB648
:1050E0000F922F933F934F935F936F937F938F9381
:1050F0009F93AF93BF93EF93FF93E091DF05F09100
:10510000E005309749F0A685B7858585968D91FF96
:1051100016C09C918923B1F4FF91EF91BF91AF919B
:105120009F918F917F916F915F914F913F912F91BF
:105130000F900BBE0F900FBE0F901F9018959C9173
:10514000892351F7A389B4899C9185898095892306
:105150008C93868997890197F1F7608D718DA6856B
:10516000B785558538E020E0CB010197F1F7822F14
:1051700090E095958795282F4C91452309F020685C
:10518000315091F7868D81FD20958091DD0590E06D
:1051900001968F7399273091DE05381799F0A09109
:1051A000DD05B0E0A356BA4F2C938093DD05828DC8
:1051B000938D0197F1F7A389B4898C919589892BF7
:1051C0008C93AACF868D8160868FF1CFE091DF0529
:1051D000F091E005E817F90769F4A389B4899C9177
:1051E0008589809589238C931092E0051092DF05C4
:1051F00081E0089580E00895CF93DF93EC018A8DDC
:105200009B8D892BF9F08091DF059091E0058C173B
:105210009D07C1F0009709F0D9DF8E8D8E7F8E8FAC
:105220001092DD051092DE05D093E005C093DF05F6
:10523000EB89FC8980819D89892B808381E0DF91C6
:10524000CF91089580E0FBCF282F30E0F901EE598F
:10525000F14F9491F901EE5BF04F44912451314F9D
:10526000F9012491222309F435C0992311F19150B9
:105270009231F8F4E92FF0E08827EE5BF64D8F4F7E
:105280000C94CFCB7329772954296B296F2959297D
:105290007A29802984298A298E29922998299C296A
:1052A0005929A029A629AA29809180008F77809367
:1052B0008000E22FF0E0EE0FFF1FEE52F14FA591BC
:1052C000B4918FB7F894EC91611148C040954E238A
:1052D0004C938FBF0895809180008F7DE8CF80919F
:1052E0008000877FE4CF84B58F7784BDE2CF84B51B
:1052F0008F7DFBCF8091B0008F778093B000D9CFA6
:105300008091B0008F7DF9CF809190008F7780934E
:105310009000CFCF809190008F7DF9CF8091900049
:10532000877FF5CF8091A0008F778093A000C1CFB9
:105330008091A0008F7DF9CF8091A000877FF5CF6D
:10534000809120018F7780932001B3CF809120013D
:105350008F7DF9CF80912001877FF5CF4E2BB8CF7D
:10536000CF93DF93EC016C81617088816DDF6C817C
:10537000669561708A81DF91CF9166CFCF92DF927F
:10538000EF92FF920F931F93CF93DF9300D000D043
:105390001F921F92CDB7DEB77C0118861F8285E071
:1053A0008983F70182A98A8360686B835C834D835C
:1053B0003E832F8367E0CE0101960E94B114888757
:1053C000F70182A593A5892B29F080A991A90097BF
:1053D00009F0C6DF8E010F5F1F4F6E01F9E0CF0E9F
:1053E000D11CF80161918F01C7010E94D816F70105
:1053F00021893289820F932F911D928B818B0C15FD
:105400001D0579F762E070E080E090E00E94B01541
:1054100028960FB6F894DEBF0FBECDBFDF91CF91B7
:105420001F910F91FF90EF90DF90CF900895CF9351
:10543000DF9390E0FC01EE5BF04F24918451914F9B
:10544000FC0184918823C9F090E0880F991FFC012A
:10545000E85BF14FA591B491FC01EE52F14FC5917B
:10546000D49161110DC09FB7F8948C91209582233F
:105470008C938881282328839FBFDF91CF91089543
:10548000623051F49FB7F8943C91822F809583232A
:105490008C93E8812E2BEFCF8FB7F894EC912E2BC5
:1054A0002C938FBFEACF2FB7F89460919505709138
:1054B000960580919705909198052FBF08952F929A
:1054C0003F924F925F926F927F928F929F92AF9294
:1054D000BF92CF92DF92EF92FF920F931F93CF93E1
:1054E000DF93CDB7DEB761970FB6F894DEBF0FBE7E
:1054F000CDBF1C011C861B8685E08987F10182A92E
:105500008A876B8763E0CE0109960E94B1148C876D
:10551000F2E0F98B9E01235F3F4F3E872D87F1011B
:1055200084A595A5009759F067DEC1010E940E176A
:105530001816190674F4C1010E94F316F6CF82A55D
:1055400093A5892B91F380A991A9009771F308DFA6
:10555000ECCFF10186A597A5009731F061E074DEEC
:1055600061E0F10186A563DF8E01075F1F4FF8013F
:1055700061918F01C1010E94D8162D853E850217C9
:105580001307A9F7F10186A597A5009711F062E02E
:105590004EDF62E070E080E090E00E94B01583DFB3
:1055A0002B013C018985CB84D12CF12CE12CDD240D
:1055B000DA94E82A812C912C540105E010E073DF85
:1055C000641575058605970531F00150110909F438
:1055D00070C02B013C01C1010E94F31697FD0FC062
:1055E0007A2D692D582D44274C019924092C000C43
:1055F000AA08BB08842A952AA62AB72ABB24C8145D
:10560000D904EA04FB04D9F626013701812C912C38
:10561000540149DF6B017C0125E030E0388B2F8796
:1056200010E041DF6C157D058E059F0549F0EF8583
:10563000F8893197F88BEF87EF2BD9F16B017C015B
:10564000C1010E94F316DC0197FD1CC09201A30169
:10565000B401C50108E00E94EFCBBB27EB2FEE0F92
:10566000EE0B422E4A2A532E5B2A6E2E642A7E2E81
:10567000752A8E2E862A9E2E972AAE2EA82ABE2EF8
:10568000B92A1F5F153069F6F10186A597A5009725
:1056900031F061E0D9DD61E0F10186A5C8DEC1012C
:1056A0000E940E171816190664F4C1010E94F31621
:1056B000F6CF412C512C612C712C812C912CA12CDA
:1056C000B12CF10184A595A5009709F07FDD62E07A
:1056D00070E080E090E00E94B015F101178A92011D
:1056E000A301B401C50108E30E940ACC29839201F9
:1056F000A301B401C50100E30E940ACC2A839201F0
:10570000A301B401C50108E20E940ACC2B839201D7
:10571000A301B401C50100E20E940ACC2C839201CE
:10572000A301B401C50108E10E940ACC2D839201B6
:10573000A301B401C50100E10E940ACC2E839201AD
:10574000A301B401C50108E00E940ACC2F8348865A
:1057500067E0CE0101960E94B114481202C04110C8
:1057600011C081E0F101878BF989F13019F021E056
:10577000298BD5CE412C512C612C712C812C912C54
:10578000A12CB12C9201A301B401C50108E00E9433
:105790000ACCB901CA0161960FB6F894DEBF0FBEFC
:1057A000CDBFDF91CF911F910F91FF90EF90DF90D0
:1057B000CF90BF90AF909F908F907F906F905F90B1
:1057C0004F903F902F900895CF93DF93C09125077E
:1057D000D0912607209721F160912107709122072F
:1057E00080912307909124070E946ACD6E5F7F4FBE
:1057F00024976C177D07A4F47093400560933F05D0
:1058000052DE605C73468F4F9F4F609341057093EB
:1058100042058093430590934405DF91CF9108950D
:1058200010924105109242051092430510924405D2
:10583000F4CFCF93DF93C0912507D091260720970F
:1058400021F16091210770912207809123079091A7
:1058500024070E946ACD6E5F7F4F24976C177D07E7
:10586000A4F47093400560933F051DDE605C7346B1
:105870008F4F9F4F6093410570934205809343057E
:1058800090934405DF91CF910895109241051092B5
:1058900042051092430510924405F4CFCACF0F93EE
:1058A0001F9301DE009147041091480420914904A0
:1058B00030914A04601B710B820B930B97FD0CC057
:1058C00086B186FB882780F991E08927349B826026
:1058D000329B84608093450680914506817090914B
:1058E000450691FD826090914604981749F08130F9
:1058F00009F148F0823079F0833091F080934604CA
:105900001F910F910895913079F09230B9F79091ED
:10591000450491500CC0992339F09330C1F3EECF78
:105920009130A9F3923051F7909145049F5F909385
:105930004504E4CF992359F3933001F7F5CFCF9382
:1059400080911C04811154C01092960F1092970FF1
:105950001092980F1092640F1092630F1092660FBE
:105960001092650F1092680F81E08093670F82E2BA
:105970008093690F10926E0F10926D0FE2E8FFE0B6
:1059800020E93FE08FEF81932E173F07E1F7C1E059
:10599000C0937F0F29E436E13093750F2093740F85
:1059A000C093760F1092770F1092780F90E4909337
:1059B000790F10927A0F2EE036E13093910F2093F9
:1059C000900F28E032E03093620F2093610F97E14F
:1059D0009093860F91E19093870F90E19093840FBD
:1059E0008093830F8093820F0E94A686C0931C042D
:1059F00081E080931B0483E696E090932B0E8093C6
:105A00002A0E10922D0E10922C0E3E98469A3C981B
:105A1000449A3A98429A43DF10924504CF910C94ED
:105A20000C87CF92DF92EF92FF92CF93C82F3BDD8E
:105A30006B017C0124EA30E74DE75FE360911002DF
:105A40007091110280911202909113020E9474C70A
:105A500087FD18C08AEF90E0A0E0B0E08C0D9D1D9E
:105A6000AE1DBF1D8093350490933604A093370478
:105A7000B0933804C0930E02CF91FF90EF90DF9067
:105A8000CF90089580E090E0DC01E8CFCF93DF93E2
:105A9000C091EA05D091EB05209721F16091E605D0
:105AA0007091E7058091E8059091E9050E946ACD23
:105AB0006E5F7F4F24976C177D07A4F470931505D4
:105AC00060931405F0DC605A75418F4F9F4F6093CF
:105AD0001605709317058093180590931905DF91AB
